{
  "contractName": "AnbeShivamMain",
  "abi": [
    {
      "anonymous": false,
      "inputs": [
        {
          "indexed": false,
          "internalType": "string",
          "name": "name",
          "type": "string"
        },
        {
          "indexed": false,
          "internalType": "string",
          "name": "fileURL",
          "type": "string"
        }
      ],
      "name": "newContentAdded",
      "type": "event"
    },
    {
      "inputs": [
        {
          "internalType": "uint256",
          "name": "",
          "type": "uint256"
        }
      ],
      "name": "contents",
      "outputs": [
        {
          "internalType": "uint256",
          "name": "receivedFunds",
          "type": "uint256"
        },
        {
          "internalType": "string",
          "name": "name",
          "type": "string"
        },
        {
          "internalType": "string",
          "name": "fileURL",
          "type": "string"
        },
        {
          "internalType": "address payable",
          "name": "creator",
          "type": "address"
        }
      ],
      "stateMutability": "view",
      "type": "function",
      "constant": true
    },
    {
      "inputs": [
        {
          "internalType": "address",
          "name": "_tokenContract",
          "type": "address"
        }
      ],
      "name": "setTokenContractAddress",
      "outputs": [],
      "stateMutability": "nonpayable",
      "type": "function"
    },
    {
      "inputs": [],
      "name": "returnContentCount",
      "outputs": [
        {
          "internalType": "uint256",
          "name": "",
          "type": "uint256"
        }
      ],
      "stateMutability": "view",
      "type": "function",
      "constant": true
    },
    {
      "inputs": [
        {
          "internalType": "string",
          "name": "_name",
          "type": "string"
        },
        {
          "internalType": "string",
          "name": "_fileURL",
          "type": "string"
        }
      ],
      "name": "addContent",
      "outputs": [],
      "stateMutability": "nonpayable",
      "type": "function"
    },
    {
      "inputs": [
        {
          "internalType": "uint256",
          "name": "contentID",
          "type": "uint256"
        }
      ],
      "name": "investFunds",
      "outputs": [],
      "stateMutability": "payable",
      "type": "function",
      "payable": true
    }
  ],
  "bytecode": "0x608060405234801561001057600080fd5b50610cdf806100206000396000f3fe60806040526004361061004a5760003560e01c806380230f601461004f578063b23d48541461007a578063b5ecf912146100a3578063dd4cbcef146100e3578063f761d008146100ff575b600080fd5b34801561005b57600080fd5b50610064610128565b6040516100719190610928565b60405180910390f35b34801561008657600080fd5b506100a1600480360381019061009c9190610710565b610135565b005b3480156100af57600080fd5b506100ca60048036038101906100c591906107b5565b610178565b6040516100da9493929190610943565b60405180910390f35b6100fd60048036038101906100f891906107b5565b6102e8565b005b34801561010b57600080fd5b506101266004803603810190610121919061073d565b610440565b005b6000600180549050905090565b806000806101000a81548173ffffffffffffffffffffffffffffffffffffffff021916908373ffffffffffffffffffffffffffffffffffffffff16021790555050565b6001818154811061018857600080fd5b90600052602060002090600402016000915090508060000154908060010180546101b190610b37565b80601f01602080910402602001604051908101604052809291908181526020018280546101dd90610b37565b801561022a5780601f106101ff5761010080835404028352916020019161022a565b820191906000526020600020905b81548152906001019060200180831161020d57829003601f168201915b50505050509080600201805461023f90610b37565b80601f016020809104026020016040519081016040528092919081815260200182805461026b90610b37565b80156102b85780601f1061028d576101008083540402835291602001916102b8565b820191906000526020600020905b81548152906001019060200180831161029b57829003601f168201915b5050505050908060030160009054906101000a900473ffffffffffffffffffffffffffffffffffffffff16905084565b600181815481106102fc576102fb610bf8565b5b906000526020600020906004020160030160009054906101000a900473ffffffffffffffffffffffffffffffffffffffff1673ffffffffffffffffffffffffffffffffffffffff166108fc349081150290604051600060405180830381858888f19350505050158015610373573d6000803e3d6000fd5b50346001828154811061038957610388610bf8565b5b906000526020600020906004020160000160008282546103a99190610a1d565b9250508190555060008054906101000a900473ffffffffffffffffffffffffffffffffffffffff1673ffffffffffffffffffffffffffffffffffffffff166340c10f1933346040518363ffffffff1660e01b815260040161040b9291906108c8565b600060405180830381600087803b15801561042557600080fd5b505af1158015610439573d6000803e3d6000fd5b5050505050565b60016040518060800160405280600081526020018481526020018381526020013373ffffffffffffffffffffffffffffffffffffffff1681525090806001815401808255809150506001900390600052602060002090600402016000909190919091506000820151816000015560208201518160010190805190602001906104c99291906105d3565b5060408201518160020190805190602001906104e69291906105d3565b5060608201518160030160006101000a81548173ffffffffffffffffffffffffffffffffffffffff021916908373ffffffffffffffffffffffffffffffffffffffff16021790555050507f72ec5f49335439b8859fe0d46a1b5ad97026dba493bfa46230f030c9aef87af560018080805490506105639190610a73565b8154811061057457610573610bf8565b5b906000526020600020906004020160010160018080805490506105979190610a73565b815481106105a8576105a7610bf8565b5b90600052602060002090600402016002016040516105c79291906108f1565b60405180910390a15050565b8280546105df90610b37565b90600052602060002090601f0160209004810192826106015760008555610648565b82601f1061061a57805160ff1916838001178555610648565b82800160010185558215610648579182015b8281111561064757825182559160200191906001019061062c565b5b5090506106559190610659565b5090565b5b8082111561067257600081600090555060010161065a565b5090565b6000610689610684846109bb565b610996565b9050828152602081018484840111156106a5576106a4610c5b565b5b6106b0848285610af5565b509392505050565b6000813590506106c781610c7b565b92915050565b600082601f8301126106e2576106e1610c56565b5b81356106f2848260208601610676565b91505092915050565b60008135905061070a81610c92565b92915050565b60006020828403121561072657610725610c65565b5b6000610734848285016106b8565b91505092915050565b6000806040838503121561075457610753610c65565b5b600083013567ffffffffffffffff81111561077257610771610c60565b5b61077e858286016106cd565b925050602083013567ffffffffffffffff81111561079f5761079e610c60565b5b6107ab858286016106cd565b9150509250929050565b6000602082840312156107cb576107ca610c65565b5b60006107d9848285016106fb565b91505092915050565b6107eb81610ab9565b82525050565b6107fa81610aa7565b82525050565b600061080b82610a01565b6108158185610a0c565b9350610825818560208601610b04565b61082e81610c6a565b840191505092915050565b6000815461084681610b37565b6108508186610a0c565b9450600182166000811461086b576001811461087d576108b0565b60ff19831686526020860193506108b0565b610886856109ec565b60005b838110156108a857815481890152600182019150602081019050610889565b808801955050505b50505092915050565b6108c281610aeb565b82525050565b60006040820190506108dd60008301856107f1565b6108ea60208301846108b9565b9392505050565b6000604082019050818103600083015261090b8185610839565b9050818103602083015261091f8184610839565b90509392505050565b600060208201905061093d60008301846108b9565b92915050565b600060808201905061095860008301876108b9565b818103602083015261096a8186610800565b9050818103604083015261097e8185610800565b905061098d60608301846107e2565b95945050505050565b60006109a06109b1565b90506109ac8282610b69565b919050565b6000604051905090565b600067ffffffffffffffff8211156109d6576109d5610c27565b5b6109df82610c6a565b9050602081019050919050565b60008190508160005260206000209050919050565b600081519050919050565b600082825260208201905092915050565b6000610a2882610aeb565b9150610a3383610aeb565b9250827fffffffffffffffffffffffffffffffffffffffffffffffffffffffffffffffff03821115610a6857610a67610b9a565b5b828201905092915050565b6000610a7e82610aeb565b9150610a8983610aeb565b925082821015610a9c57610a9b610b9a565b5b828203905092915050565b6000610ab282610acb565b9050919050565b6000610ac482610acb565b9050919050565b600073ffffffffffffffffffffffffffffffffffffffff82169050919050565b6000819050919050565b82818337600083830152505050565b60005b83811015610b22578082015181840152602081019050610b07565b83811115610b31576000848401525b50505050565b60006002820490506001821680610b4f57607f821691505b60208210811415610b6357610b62610bc9565b5b50919050565b610b7282610c6a565b810181811067ffffffffffffffff82111715610b9157610b90610c27565b5b80604052505050565b7f4e487b7100000000000000000000000000000000000000000000000000000000600052601160045260246000fd5b7f4e487b7100000000000000000000000000000000000000000000000000000000600052602260045260246000fd5b7f4e487b7100000000000000000000000000000000000000000000000000000000600052603260045260246000fd5b7f4e487b7100000000000000000000000000000000000000000000000000000000600052604160045260246000fd5b600080fd5b600080fd5b600080fd5b600080fd5b6000601f19601f8301169050919050565b610c8481610aa7565b8114610c8f57600080fd5b50565b610c9b81610aeb565b8114610ca657600080fd5b5056fea2646970667358221220aa676ccd756ad2aaa221fe1ff1715b36e90dabda5f07176ae18434fbc990b38264736f6c63430008070033",
  "immutableReferences": {},
  "source": "// SPDX-License-Identifier: MIT\npragma solidity >=0.4.22 <0.9.0;\n\nimport \"./AnbeShivamInvestorToken.sol\";\n\ncontract AnbeShivamMain {\n    address tokenContract;\n\n    struct Content {\n        uint256 receivedFunds;\n        string name;\n        string fileURL;\n        address payable creator;\n    }\n\n    Content[] public contents;\n\n    event newContentAdded(string name, string fileURL);\n\n    function setTokenContractAddress(address _tokenContract) external {\n        tokenContract = _tokenContract;\n    }\n\n    function returnContentCount() external view returns (uint256) {\n        return contents.length;\n    }\n\n    function addContent(string memory _name, string memory _fileURL) external {\n        contents.push(Content(0, _name, _fileURL, payable(msg.sender)));\n        emit newContentAdded(\n            contents[contents.length - 1].name,\n            contents[contents.length - 1].fileURL\n        );\n    }\n\n    function investFunds(uint256 contentID) external payable {\n        contents[contentID].creator.transfer(msg.value);\n        contents[contentID].receivedFunds += msg.value;\n        AnbeShivamInvestorToken(tokenContract).mint(msg.sender, msg.value);\n    }\n}\n",
  "sourcePath": "/media/abhinav/Data/procjects/AnbeShivam/contracts/AnbeShivamMain.sol",
  "compiler": {
    "name": "solc",
    "version": "0.8.7+commit.e28d00a7.Emscripten.clang"
  },
  "schemaVersion": "3.4.3",
  "updatedAt": "2021-09-26T17:05:41.249Z",
  "networkType": "ethereum",
  "devdoc": {
    "kind": "dev",
    "methods": {},
    "version": 1
  },
  "userdoc": {
    "kind": "user",
    "methods": {},
    "version": 1
  }
}