{
  "contractName": "AnbeShivamMain",
  "abi": [
    {
      "inputs": [],
      "stateMutability": "nonpayable",
      "type": "constructor"
    },
    {
      "anonymous": false,
      "inputs": [
        {
          "indexed": true,
          "internalType": "address",
          "name": "owner",
          "type": "address"
        },
        {
          "indexed": true,
          "internalType": "address",
          "name": "spender",
          "type": "address"
        },
        {
          "indexed": false,
          "internalType": "uint256",
          "name": "value",
          "type": "uint256"
        }
      ],
      "name": "Approval",
      "type": "event"
    },
    {
      "anonymous": false,
      "inputs": [
        {
          "indexed": true,
          "internalType": "address",
          "name": "from",
          "type": "address"
        },
        {
          "indexed": true,
          "internalType": "address",
          "name": "to",
          "type": "address"
        },
        {
          "indexed": false,
          "internalType": "uint256",
          "name": "value",
          "type": "uint256"
        }
      ],
      "name": "Transfer",
      "type": "event"
    },
    {
      "inputs": [
        {
          "internalType": "address",
          "name": "owner",
          "type": "address"
        },
        {
          "internalType": "address",
          "name": "spender",
          "type": "address"
        }
      ],
      "name": "allowance",
      "outputs": [
        {
          "internalType": "uint256",
          "name": "",
          "type": "uint256"
        }
      ],
      "stateMutability": "view",
      "type": "function",
      "constant": true
    },
    {
      "inputs": [
        {
          "internalType": "address",
          "name": "spender",
          "type": "address"
        },
        {
          "internalType": "uint256",
          "name": "amount",
          "type": "uint256"
        }
      ],
      "name": "approve",
      "outputs": [
        {
          "internalType": "bool",
          "name": "",
          "type": "bool"
        }
      ],
      "stateMutability": "nonpayable",
      "type": "function"
    },
    {
      "inputs": [
        {
          "internalType": "address",
          "name": "account",
          "type": "address"
        }
      ],
      "name": "balanceOf",
      "outputs": [
        {
          "internalType": "uint256",
          "name": "",
          "type": "uint256"
        }
      ],
      "stateMutability": "view",
      "type": "function",
      "constant": true
    },
    {
      "inputs": [
        {
          "internalType": "uint256",
          "name": "",
          "type": "uint256"
        }
      ],
      "name": "contents",
      "outputs": [
        {
          "internalType": "uint256",
          "name": "recfunds",
          "type": "uint256"
        },
        {
          "internalType": "string",
          "name": "name",
          "type": "string"
        },
        {
          "internalType": "string",
          "name": "fileURL",
          "type": "string"
        },
        {
          "internalType": "address payable",
          "name": "creator",
          "type": "address"
        }
      ],
      "stateMutability": "view",
      "type": "function",
      "constant": true
    },
    {
      "inputs": [],
      "name": "decimals",
      "outputs": [
        {
          "internalType": "uint8",
          "name": "",
          "type": "uint8"
        }
      ],
      "stateMutability": "view",
      "type": "function",
      "constant": true
    },
    {
      "inputs": [
        {
          "internalType": "address",
          "name": "spender",
          "type": "address"
        },
        {
          "internalType": "uint256",
          "name": "subtractedValue",
          "type": "uint256"
        }
      ],
      "name": "decreaseAllowance",
      "outputs": [
        {
          "internalType": "bool",
          "name": "",
          "type": "bool"
        }
      ],
      "stateMutability": "nonpayable",
      "type": "function"
    },
    {
      "inputs": [
        {
          "internalType": "address",
          "name": "spender",
          "type": "address"
        },
        {
          "internalType": "uint256",
          "name": "addedValue",
          "type": "uint256"
        }
      ],
      "name": "increaseAllowance",
      "outputs": [
        {
          "internalType": "bool",
          "name": "",
          "type": "bool"
        }
      ],
      "stateMutability": "nonpayable",
      "type": "function"
    },
    {
      "inputs": [],
      "name": "name",
      "outputs": [
        {
          "internalType": "string",
          "name": "",
          "type": "string"
        }
      ],
      "stateMutability": "view",
      "type": "function",
      "constant": true
    },
    {
      "inputs": [],
      "name": "symbol",
      "outputs": [
        {
          "internalType": "string",
          "name": "",
          "type": "string"
        }
      ],
      "stateMutability": "view",
      "type": "function",
      "constant": true
    },
    {
      "inputs": [],
      "name": "totalSupply",
      "outputs": [
        {
          "internalType": "uint256",
          "name": "",
          "type": "uint256"
        }
      ],
      "stateMutability": "view",
      "type": "function",
      "constant": true
    },
    {
      "inputs": [
        {
          "internalType": "address",
          "name": "recipient",
          "type": "address"
        },
        {
          "internalType": "uint256",
          "name": "amount",
          "type": "uint256"
        }
      ],
      "name": "transfer",
      "outputs": [
        {
          "internalType": "bool",
          "name": "",
          "type": "bool"
        }
      ],
      "stateMutability": "nonpayable",
      "type": "function"
    },
    {
      "inputs": [
        {
          "internalType": "address",
          "name": "sender",
          "type": "address"
        },
        {
          "internalType": "address",
          "name": "recipient",
          "type": "address"
        },
        {
          "internalType": "uint256",
          "name": "amount",
          "type": "uint256"
        }
      ],
      "name": "transferFrom",
      "outputs": [
        {
          "internalType": "bool",
          "name": "",
          "type": "bool"
        }
      ],
      "stateMutability": "nonpayable",
      "type": "function"
    },
    {
      "inputs": [
        {
          "internalType": "string",
          "name": "_name",
          "type": "string"
        },
        {
          "internalType": "string",
          "name": "_fileURL",
          "type": "string"
        }
      ],
      "name": "addContent",
      "outputs": [],
      "stateMutability": "nonpayable",
      "type": "function"
    },
    {
      "inputs": [
        {
          "internalType": "uint256",
          "name": "contentid",
          "type": "uint256"
        }
      ],
      "name": "investedFunds",
      "outputs": [],
      "stateMutability": "payable",
      "type": "function",
      "payable": true
    }
  ],
  "bytecode": "0x60806040523480156200001157600080fd5b506040518060400160405280600f81526020017f416e626553686976616d20436f696e00000000000000000000000000000000008152506040518060400160405280600481526020017f474f445300000000000000000000000000000000000000000000000000000000815250816003908051906020019062000096929190620000b8565b508060049080519060200190620000af929190620000b8565b505050620001cd565b828054620000c69062000168565b90600052602060002090601f016020900481019282620000ea576000855562000136565b82601f106200010557805160ff191683800117855562000136565b8280016001018555821562000136579182015b828111156200013557825182559160200191906001019062000118565b5b50905062000145919062000149565b5090565b5b80821115620001645760008160009055506001016200014a565b5090565b600060028204905060018216806200018157607f821691505b602082108114156200019857620001976200019e565b5b50919050565b7f4e487b7100000000000000000000000000000000000000000000000000000000600052602260045260246000fd5b611d2680620001dd6000396000f3fe6080604052600436106100dd5760003560e01c806395d89b411161007f578063b5ecf91211610059578063b5ecf912146102fc578063dd62ed3e1461033c578063ed67bad414610379578063f761d00814610395576100dd565b806395d89b4114610257578063a457c2d714610282578063a9059cbb146102bf576100dd565b806323b872dd116100bb57806323b872dd14610175578063313ce567146101b257806339509351146101dd57806370a082311461021a576100dd565b806306fdde03146100e2578063095ea7b31461010d57806318160ddd1461014a575b600080fd5b3480156100ee57600080fd5b506100f76103be565b6040516101049190611610565b60405180910390f35b34801561011957600080fd5b50610134600480360381019061012f9190611383565b610450565b60405161014191906115f5565b60405180910390f35b34801561015657600080fd5b5061015f61046e565b60405161016c9190611732565b60405180910390f35b34801561018157600080fd5b5061019c60048036038101906101979190611330565b610478565b6040516101a991906115f5565b60405180910390f35b3480156101be57600080fd5b506101c7610570565b6040516101d491906117a0565b60405180910390f35b3480156101e957600080fd5b5061020460048036038101906101ff9190611383565b610579565b60405161021191906115f5565b60405180910390f35b34801561022657600080fd5b50610241600480360381019061023c91906112c3565b610625565b60405161024e9190611732565b60405180910390f35b34801561026357600080fd5b5061026c61066d565b6040516102799190611610565b60405180910390f35b34801561028e57600080fd5b506102a960048036038101906102a49190611383565b6106ff565b6040516102b691906115f5565b60405180910390f35b3480156102cb57600080fd5b506102e660048036038101906102e19190611383565b6107ea565b6040516102f391906115f5565b60405180910390f35b34801561030857600080fd5b50610323600480360381019061031e919061143b565b610808565b604051610333949392919061174d565b60405180910390f35b34801561034857600080fd5b50610363600480360381019061035e91906112f0565b610978565b6040516103709190611732565b60405180910390f35b610393600480360381019061038e919061143b565b6109ff565b005b3480156103a157600080fd5b506103bc60048036038101906103b791906113c3565b610ad4565b005b6060600380546103cd9061192c565b80601f01602080910402602001604051908101604052809291908181526020018280546103f99061192c565b80156104465780601f1061041b57610100808354040283529160200191610446565b820191906000526020600020905b81548152906001019060200180831161042957829003601f168201915b5050505050905090565b600061046461045d610bc8565b8484610bd0565b6001905092915050565b6000600254905090565b6000610485848484610d9b565b6000600160008673ffffffffffffffffffffffffffffffffffffffff1673ffffffffffffffffffffffffffffffffffffffff16815260200190815260200160002060006104d0610bc8565b73ffffffffffffffffffffffffffffffffffffffff1673ffffffffffffffffffffffffffffffffffffffff16815260200190815260200160002054905082811015610550576040517f08c379a000000000000000000000000000000000000000000000000000000000815260040161054790611692565b60405180910390fd5b6105648561055c610bc8565b858403610bd0565b60019150509392505050565b60006012905090565b600061061b610586610bc8565b848460016000610594610bc8565b73ffffffffffffffffffffffffffffffffffffffff1673ffffffffffffffffffffffffffffffffffffffff16815260200190815260200160002060008873ffffffffffffffffffffffffffffffffffffffff1673ffffffffffffffffffffffffffffffffffffffff16815260200190815260200160002054610616919061182d565b610bd0565b6001905092915050565b60008060008373ffffffffffffffffffffffffffffffffffffffff1673ffffffffffffffffffffffffffffffffffffffff168152602001908152602001600020549050919050565b60606004805461067c9061192c565b80601f01602080910402602001604051908101604052809291908181526020018280546106a89061192c565b80156106f55780601f106106ca576101008083540402835291602001916106f5565b820191906000526020600020905b8154815290600101906020018083116106d857829003601f168201915b5050505050905090565b6000806001600061070e610bc8565b73ffffffffffffffffffffffffffffffffffffffff1673ffffffffffffffffffffffffffffffffffffffff16815260200190815260200160002060008573ffffffffffffffffffffffffffffffffffffffff1673ffffffffffffffffffffffffffffffffffffffff168152602001908152602001600020549050828110156107cb576040517f08c379a00000000000000000000000000000000000000000000000000000000081526004016107c2906116f2565b60405180910390fd5b6107df6107d6610bc8565b85858403610bd0565b600191505092915050565b60006107fe6107f7610bc8565b8484610d9b565b6001905092915050565b6005818154811061081857600080fd5b90600052602060002090600402016000915090508060000154908060010180546108419061192c565b80601f016020809104026020016040519081016040528092919081815260200182805461086d9061192c565b80156108ba5780601f1061088f576101008083540402835291602001916108ba565b820191906000526020600020905b81548152906001019060200180831161089d57829003601f168201915b5050505050908060020180546108cf9061192c565b80601f01602080910402602001604051908101604052809291908181526020018280546108fb9061192c565b80156109485780601f1061091d57610100808354040283529160200191610948565b820191906000526020600020905b81548152906001019060200180831161092b57829003601f168201915b5050505050908060030160009054906101000a900473ffffffffffffffffffffffffffffffffffffffff16905084565b6000600160008473ffffffffffffffffffffffffffffffffffffffff1673ffffffffffffffffffffffffffffffffffffffff16815260200190815260200160002060008373ffffffffffffffffffffffffffffffffffffffff1673ffffffffffffffffffffffffffffffffffffffff16815260200190815260200160002054905092915050565b60058181548110610a1357610a126119ed565b5b906000526020600020906004020160030160009054906101000a900473ffffffffffffffffffffffffffffffffffffffff1673ffffffffffffffffffffffffffffffffffffffff166108fc349081150290604051600060405180830381858888f19350505050158015610a8a573d6000803e3d6000fd5b503460058281548110610aa057610a9f6119ed565b5b90600052602060002090600402016000016000828254610ac0919061182d565b92505081905550610ad1333461101c565b50565b60056040518060800160405280600081526020018481526020018381526020013373ffffffffffffffffffffffffffffffffffffffff168152509080600181540180825580915050600190039060005260206000209060040201600090919091909150600082015181600001556020820151816001019080519060200190610b5d929190611186565b506040820151816002019080519060200190610b7a929190611186565b5060608201518160030160006101000a81548173ffffffffffffffffffffffffffffffffffffffff021916908373ffffffffffffffffffffffffffffffffffffffff16021790555050505050565b600033905090565b600073ffffffffffffffffffffffffffffffffffffffff168373ffffffffffffffffffffffffffffffffffffffff161415610c40576040517f08c379a0000000000000000000000000000000000000000000000000000000008152600401610c37906116d2565b60405180910390fd5b600073ffffffffffffffffffffffffffffffffffffffff168273ffffffffffffffffffffffffffffffffffffffff161415610cb0576040517f08c379a0000000000000000000000000000000000000000000000000000000008152600401610ca790611652565b60405180910390fd5b80600160008573ffffffffffffffffffffffffffffffffffffffff1673ffffffffffffffffffffffffffffffffffffffff16815260200190815260200160002060008473ffffffffffffffffffffffffffffffffffffffff1673ffffffffffffffffffffffffffffffffffffffff168152602001908152602001600020819055508173ffffffffffffffffffffffffffffffffffffffff168373ffffffffffffffffffffffffffffffffffffffff167f8c5be1e5ebec7d5bd14f71427d1e84f3dd0314c0f7b2291e5b200ac8c7c3b92583604051610d8e9190611732565b60405180910390a3505050565b600073ffffffffffffffffffffffffffffffffffffffff168373ffffffffffffffffffffffffffffffffffffffff161415610e0b576040517f08c379a0000000000000000000000000000000000000000000000000000000008152600401610e02906116b2565b60405180910390fd5b600073ffffffffffffffffffffffffffffffffffffffff168273ffffffffffffffffffffffffffffffffffffffff161415610e7b576040517f08c379a0000000000000000000000000000000000000000000000000000000008152600401610e7290611632565b60405180910390fd5b610e8683838361117c565b60008060008573ffffffffffffffffffffffffffffffffffffffff1673ffffffffffffffffffffffffffffffffffffffff16815260200190815260200160002054905081811015610f0c576040517f08c379a0000000000000000000000000000000000000000000000000000000008152600401610f0390611672565b60405180910390fd5b8181036000808673ffffffffffffffffffffffffffffffffffffffff1673ffffffffffffffffffffffffffffffffffffffff16815260200190815260200160002081905550816000808573ffffffffffffffffffffffffffffffffffffffff1673ffffffffffffffffffffffffffffffffffffffff1681526020019081526020016000206000828254610f9f919061182d565b925050819055508273ffffffffffffffffffffffffffffffffffffffff168473ffffffffffffffffffffffffffffffffffffffff167fddf252ad1be2c89b69c2b068fc378daa952ba7f163c4a11628f55a4df523b3ef846040516110039190611732565b60405180910390a3611016848484611181565b50505050565b600073ffffffffffffffffffffffffffffffffffffffff168273ffffffffffffffffffffffffffffffffffffffff16141561108c576040517f08c379a000000000000000000000000000000000000000000000000000000000815260040161108390611712565b60405180910390fd5b6110986000838361117c565b80600260008282546110aa919061182d565b92505081905550806000808473ffffffffffffffffffffffffffffffffffffffff1673ffffffffffffffffffffffffffffffffffffffff16815260200190815260200160002060008282546110ff919061182d565b925050819055508173ffffffffffffffffffffffffffffffffffffffff16600073ffffffffffffffffffffffffffffffffffffffff167fddf252ad1be2c89b69c2b068fc378daa952ba7f163c4a11628f55a4df523b3ef836040516111649190611732565b60405180910390a361117860008383611181565b5050565b505050565b505050565b8280546111929061192c565b90600052602060002090601f0160209004810192826111b457600085556111fb565b82601f106111cd57805160ff19168380011785556111fb565b828001600101855582156111fb579182015b828111156111fa5782518255916020019190600101906111df565b5b509050611208919061120c565b5090565b5b8082111561122557600081600090555060010161120d565b5090565b600061123c611237846117e0565b6117bb565b90508281526020810184848401111561125857611257611a50565b5b6112638482856118ea565b509392505050565b60008135905061127a81611cc2565b92915050565b600082601f83011261129557611294611a4b565b5b81356112a5848260208601611229565b91505092915050565b6000813590506112bd81611cd9565b92915050565b6000602082840312156112d9576112d8611a5a565b5b60006112e78482850161126b565b91505092915050565b6000806040838503121561130757611306611a5a565b5b60006113158582860161126b565b92505060206113268582860161126b565b9150509250929050565b60008060006060848603121561134957611348611a5a565b5b60006113578682870161126b565b93505060206113688682870161126b565b9250506040611379868287016112ae565b9150509250925092565b6000806040838503121561139a57611399611a5a565b5b60006113a88582860161126b565b92505060206113b9858286016112ae565b9150509250929050565b600080604083850312156113da576113d9611a5a565b5b600083013567ffffffffffffffff8111156113f8576113f7611a55565b5b61140485828601611280565b925050602083013567ffffffffffffffff81111561142557611424611a55565b5b61143185828601611280565b9150509250929050565b60006020828403121561145157611450611a5a565b5b600061145f848285016112ae565b91505092915050565b61147181611895565b82525050565b611480816118a7565b82525050565b600061149182611811565b61149b818561181c565b93506114ab8185602086016118f9565b6114b481611a5f565b840191505092915050565b60006114cc60238361181c565b91506114d782611a70565b604082019050919050565b60006114ef60228361181c565b91506114fa82611abf565b604082019050919050565b600061151260268361181c565b915061151d82611b0e565b604082019050919050565b600061153560288361181c565b915061154082611b5d565b604082019050919050565b600061155860258361181c565b915061156382611bac565b604082019050919050565b600061157b60248361181c565b915061158682611bfb565b604082019050919050565b600061159e60258361181c565b91506115a982611c4a565b604082019050919050565b60006115c1601f8361181c565b91506115cc82611c99565b602082019050919050565b6115e0816118d3565b82525050565b6115ef816118dd565b82525050565b600060208201905061160a6000830184611477565b92915050565b6000602082019050818103600083015261162a8184611486565b905092915050565b6000602082019050818103600083015261164b816114bf565b9050919050565b6000602082019050818103600083015261166b816114e2565b9050919050565b6000602082019050818103600083015261168b81611505565b9050919050565b600060208201905081810360008301526116ab81611528565b9050919050565b600060208201905081810360008301526116cb8161154b565b9050919050565b600060208201905081810360008301526116eb8161156e565b9050919050565b6000602082019050818103600083015261170b81611591565b9050919050565b6000602082019050818103600083015261172b816115b4565b9050919050565b600060208201905061174760008301846115d7565b92915050565b600060808201905061176260008301876115d7565b81810360208301526117748186611486565b905081810360408301526117888185611486565b90506117976060830184611468565b95945050505050565b60006020820190506117b560008301846115e6565b92915050565b60006117c56117d6565b90506117d1828261195e565b919050565b6000604051905090565b600067ffffffffffffffff8211156117fb576117fa611a1c565b5b61180482611a5f565b9050602081019050919050565b600081519050919050565b600082825260208201905092915050565b6000611838826118d3565b9150611843836118d3565b9250827fffffffffffffffffffffffffffffffffffffffffffffffffffffffffffffffff038211156118785761187761198f565b5b828201905092915050565b600061188e826118b3565b9050919050565b60006118a0826118b3565b9050919050565b60008115159050919050565b600073ffffffffffffffffffffffffffffffffffffffff82169050919050565b6000819050919050565b600060ff82169050919050565b82818337600083830152505050565b60005b838110156119175780820151818401526020810190506118fc565b83811115611926576000848401525b50505050565b6000600282049050600182168061194457607f821691505b60208210811415611958576119576119be565b5b50919050565b61196782611a5f565b810181811067ffffffffffffffff8211171561198657611985611a1c565b5b80604052505050565b7f4e487b7100000000000000000000000000000000000000000000000000000000600052601160045260246000fd5b7f4e487b7100000000000000000000000000000000000000000000000000000000600052602260045260246000fd5b7f4e487b7100000000000000000000000000000000000000000000000000000000600052603260045260246000fd5b7f4e487b7100000000000000000000000000000000000000000000000000000000600052604160045260246000fd5b600080fd5b600080fd5b600080fd5b600080fd5b6000601f19601f8301169050919050565b7f45524332303a207472616e7366657220746f20746865207a65726f206164647260008201527f6573730000000000000000000000000000000000000000000000000000000000602082015250565b7f45524332303a20617070726f766520746f20746865207a65726f20616464726560008201527f7373000000000000000000000000000000000000000000000000000000000000602082015250565b7f45524332303a207472616e7366657220616d6f756e742065786365656473206260008201527f616c616e63650000000000000000000000000000000000000000000000000000602082015250565b7f45524332303a207472616e7366657220616d6f756e742065786365656473206160008201527f6c6c6f77616e6365000000000000000000000000000000000000000000000000602082015250565b7f45524332303a207472616e736665722066726f6d20746865207a65726f20616460008201527f6472657373000000000000000000000000000000000000000000000000000000602082015250565b7f45524332303a20617070726f76652066726f6d20746865207a65726f2061646460008201527f7265737300000000000000000000000000000000000000000000000000000000602082015250565b7f45524332303a2064656372656173656420616c6c6f77616e63652062656c6f7760008201527f207a65726f000000000000000000000000000000000000000000000000000000602082015250565b7f45524332303a206d696e7420746f20746865207a65726f206164647265737300600082015250565b611ccb81611883565b8114611cd657600080fd5b50565b611ce2816118d3565b8114611ced57600080fd5b5056fea2646970667358221220ab7f5eb8ede18523b28976bdeff82ac1c493c2a92c1acde619e3503de830b80564736f6c63430008070033",
  "immutableReferences": {},
  "source": "// SPDX-License-Identifier: MIT\r\npragma solidity >=0.4.22 <0.9.0;\r\nimport \"@openzeppelin/contracts/token/ERC20/ERC20.sol\";\r\n\r\ncontract AnbeShivamMain is ERC20{\r\n\r\n    constructor() ERC20(\"AnbeShivam Coin\",\"GODS\"){\r\n    }\r\n\r\n    struct Content {\r\n        uint recfunds;\r\n        string name;\r\n        string fileURL;\r\n        address payable creator;\r\n    }\r\n\r\n    Content[] public contents;\r\n\r\n    function addContent(string memory _name, string memory _fileURL) external {\r\n        contents.push(Content(0,_name, _fileURL, payable(msg.sender)));\r\n    } \r\n    \r\n    function investedFunds(uint contentid) external payable{\r\n        contents[contentid].creator.transfer(msg.value);\r\n        contents[contentid].recfunds += msg.value;\r\n        _mint(msg.sender,msg.value);\r\n\r\n    }\r\n}\r\n",
  "sourcePath": "D:\\procjects\\AnbeShivam\\contracts\\AnbeShivamMain.sol",
  "compiler": {
    "name": "solc",
    "version": "0.8.7+commit.e28d00a7.Emscripten.clang"
  },
  "schemaVersion": "3.4.3",
  "updatedAt": "2021-09-17T11:58:35.523Z",
  "networkType": "ethereum",
  "devdoc": {
    "kind": "dev",
    "methods": {
      "allowance(address,address)": {
        "details": "See {IERC20-allowance}."
      },
      "approve(address,uint256)": {
        "details": "See {IERC20-approve}. Requirements: - `spender` cannot be the zero address."
      },
      "balanceOf(address)": {
        "details": "See {IERC20-balanceOf}."
      },
      "decimals()": {
        "details": "Returns the number of decimals used to get its user representation. For example, if `decimals` equals `2`, a balance of `505` tokens should be displayed to a user as `5.05` (`505 / 10 ** 2`). Tokens usually opt for a value of 18, imitating the relationship between Ether and Wei. This is the value {ERC20} uses, unless this function is overridden; NOTE: This information is only used for _display_ purposes: it in no way affects any of the arithmetic of the contract, including {IERC20-balanceOf} and {IERC20-transfer}."
      },
      "decreaseAllowance(address,uint256)": {
        "details": "Atomically decreases the allowance granted to `spender` by the caller. This is an alternative to {approve} that can be used as a mitigation for problems described in {IERC20-approve}. Emits an {Approval} event indicating the updated allowance. Requirements: - `spender` cannot be the zero address. - `spender` must have allowance for the caller of at least `subtractedValue`."
      },
      "increaseAllowance(address,uint256)": {
        "details": "Atomically increases the allowance granted to `spender` by the caller. This is an alternative to {approve} that can be used as a mitigation for problems described in {IERC20-approve}. Emits an {Approval} event indicating the updated allowance. Requirements: - `spender` cannot be the zero address."
      },
      "name()": {
        "details": "Returns the name of the token."
      },
      "symbol()": {
        "details": "Returns the symbol of the token, usually a shorter version of the name."
      },
      "totalSupply()": {
        "details": "See {IERC20-totalSupply}."
      },
      "transfer(address,uint256)": {
        "details": "See {IERC20-transfer}. Requirements: - `recipient` cannot be the zero address. - the caller must have a balance of at least `amount`."
      },
      "transferFrom(address,address,uint256)": {
        "details": "See {IERC20-transferFrom}. Emits an {Approval} event indicating the updated allowance. This is not required by the EIP. See the note at the beginning of {ERC20}. Requirements: - `sender` and `recipient` cannot be the zero address. - `sender` must have a balance of at least `amount`. - the caller must have allowance for ``sender``'s tokens of at least `amount`."
      }
    },
    "version": 1
  },
  "userdoc": {
    "kind": "user",
    "methods": {},
    "version": 1
  }
}