{
  "contractName": "AnbeShivamMain",
  "abi": [
    {
      "inputs": [],
      "stateMutability": "nonpayable",
      "type": "constructor"
    },
    {
      "anonymous": false,
      "inputs": [
        {
          "indexed": true,
          "internalType": "address",
          "name": "owner",
          "type": "address"
        },
        {
          "indexed": true,
          "internalType": "address",
          "name": "spender",
          "type": "address"
        },
        {
          "indexed": false,
          "internalType": "uint256",
          "name": "value",
          "type": "uint256"
        }
      ],
      "name": "Approval",
      "type": "event"
    },
    {
      "anonymous": false,
      "inputs": [
        {
          "indexed": true,
          "internalType": "address",
          "name": "from",
          "type": "address"
        },
        {
          "indexed": true,
          "internalType": "address",
          "name": "to",
          "type": "address"
        },
        {
          "indexed": false,
          "internalType": "uint256",
          "name": "value",
          "type": "uint256"
        }
      ],
      "name": "Transfer",
      "type": "event"
    },
    {
      "anonymous": false,
      "inputs": [
        {
          "indexed": false,
          "internalType": "string",
          "name": "name",
          "type": "string"
        },
        {
          "indexed": false,
          "internalType": "string",
          "name": "fileURL",
          "type": "string"
        }
      ],
      "name": "contentadded",
      "type": "event"
    },
    {
      "inputs": [
        {
          "internalType": "address",
          "name": "owner",
          "type": "address"
        },
        {
          "internalType": "address",
          "name": "spender",
          "type": "address"
        }
      ],
      "name": "allowance",
      "outputs": [
        {
          "internalType": "uint256",
          "name": "",
          "type": "uint256"
        }
      ],
      "stateMutability": "view",
      "type": "function"
    },
    {
      "inputs": [
        {
          "internalType": "address",
          "name": "spender",
          "type": "address"
        },
        {
          "internalType": "uint256",
          "name": "amount",
          "type": "uint256"
        }
      ],
      "name": "approve",
      "outputs": [
        {
          "internalType": "bool",
          "name": "",
          "type": "bool"
        }
      ],
      "stateMutability": "nonpayable",
      "type": "function"
    },
    {
      "inputs": [
        {
          "internalType": "address",
          "name": "account",
          "type": "address"
        }
      ],
      "name": "balanceOf",
      "outputs": [
        {
          "internalType": "uint256",
          "name": "",
          "type": "uint256"
        }
      ],
      "stateMutability": "view",
      "type": "function"
    },
    {
      "inputs": [
        {
          "internalType": "uint256",
          "name": "",
          "type": "uint256"
        }
      ],
      "name": "contents",
      "outputs": [
        {
          "internalType": "uint256",
          "name": "recfunds",
          "type": "uint256"
        },
        {
          "internalType": "string",
          "name": "name",
          "type": "string"
        },
        {
          "internalType": "string",
          "name": "fileURL",
          "type": "string"
        },
        {
          "internalType": "address payable",
          "name": "creator",
          "type": "address"
        }
      ],
      "stateMutability": "view",
      "type": "function"
    },
    {
      "inputs": [],
      "name": "decimals",
      "outputs": [
        {
          "internalType": "uint8",
          "name": "",
          "type": "uint8"
        }
      ],
      "stateMutability": "view",
      "type": "function"
    },
    {
      "inputs": [
        {
          "internalType": "address",
          "name": "spender",
          "type": "address"
        },
        {
          "internalType": "uint256",
          "name": "subtractedValue",
          "type": "uint256"
        }
      ],
      "name": "decreaseAllowance",
      "outputs": [
        {
          "internalType": "bool",
          "name": "",
          "type": "bool"
        }
      ],
      "stateMutability": "nonpayable",
      "type": "function"
    },
    {
      "inputs": [
        {
          "internalType": "address",
          "name": "spender",
          "type": "address"
        },
        {
          "internalType": "uint256",
          "name": "addedValue",
          "type": "uint256"
        }
      ],
      "name": "increaseAllowance",
      "outputs": [
        {
          "internalType": "bool",
          "name": "",
          "type": "bool"
        }
      ],
      "stateMutability": "nonpayable",
      "type": "function"
    },
    {
      "inputs": [],
      "name": "name",
      "outputs": [
        {
          "internalType": "string",
          "name": "",
          "type": "string"
        }
      ],
      "stateMutability": "view",
      "type": "function"
    },
    {
      "inputs": [],
      "name": "symbol",
      "outputs": [
        {
          "internalType": "string",
          "name": "",
          "type": "string"
        }
      ],
      "stateMutability": "view",
      "type": "function"
    },
    {
      "inputs": [],
      "name": "totalSupply",
      "outputs": [
        {
          "internalType": "uint256",
          "name": "",
          "type": "uint256"
        }
      ],
      "stateMutability": "view",
      "type": "function"
    },
    {
      "inputs": [
        {
          "internalType": "address",
          "name": "recipient",
          "type": "address"
        },
        {
          "internalType": "uint256",
          "name": "amount",
          "type": "uint256"
        }
      ],
      "name": "transfer",
      "outputs": [
        {
          "internalType": "bool",
          "name": "",
          "type": "bool"
        }
      ],
      "stateMutability": "nonpayable",
      "type": "function"
    },
    {
      "inputs": [
        {
          "internalType": "address",
          "name": "sender",
          "type": "address"
        },
        {
          "internalType": "address",
          "name": "recipient",
          "type": "address"
        },
        {
          "internalType": "uint256",
          "name": "amount",
          "type": "uint256"
        }
      ],
      "name": "transferFrom",
      "outputs": [
        {
          "internalType": "bool",
          "name": "",
          "type": "bool"
        }
      ],
      "stateMutability": "nonpayable",
      "type": "function"
    },
    {
      "inputs": [],
      "name": "returncount",
      "outputs": [
        {
          "internalType": "uint256",
          "name": "",
          "type": "uint256"
        }
      ],
      "stateMutability": "view",
      "type": "function"
    },
    {
      "inputs": [
        {
          "internalType": "string",
          "name": "_name",
          "type": "string"
        },
        {
          "internalType": "string",
          "name": "_fileURL",
          "type": "string"
        }
      ],
      "name": "addContent",
      "outputs": [],
      "stateMutability": "nonpayable",
      "type": "function"
    },
    {
      "inputs": [
        {
          "internalType": "uint256",
          "name": "contentid",
          "type": "uint256"
        }
      ],
      "name": "investedFunds",
      "outputs": [],
      "stateMutability": "payable",
      "type": "function"
    }
  ],
  "bytecode": "0x60806040523480156200001157600080fd5b506040518060400160405280600f81526020017f416e626553686976616d20436f696e00000000000000000000000000000000008152506040518060400160405280600481526020017f474f445300000000000000000000000000000000000000000000000000000000815250816003908051906020019062000096929190620000b8565b508060049080519060200190620000af929190620000b8565b505050620001cd565b828054620000c69062000168565b90600052602060002090601f016020900481019282620000ea576000855562000136565b82601f106200010557805160ff191683800117855562000136565b8280016001018555821562000136579182015b828111156200013557825182559160200191906001019062000118565b5b50905062000145919062000149565b5090565b5b80821115620001645760008160009055506001016200014a565b5090565b600060028204905060018216806200018157607f821691505b602082108114156200019857620001976200019e565b5b50919050565b7f4e487b7100000000000000000000000000000000000000000000000000000000600052602260045260246000fd5b611f0c80620001dd6000396000f3fe6080604052600436106100e85760003560e01c806370a082311161008a578063b5ecf91211610059578063b5ecf91214610332578063dd62ed3e14610372578063ed67bad4146103af578063f761d008146103cb576100e8565b806370a082311461025057806395d89b411461028d578063a457c2d7146102b8578063a9059cbb146102f5576100e8565b806319996363116100c6578063199963631461018057806323b872dd146101ab578063313ce567146101e85780633950935114610213576100e8565b806306fdde03146100ed578063095ea7b31461011857806318160ddd14610155575b600080fd5b3480156100f957600080fd5b506101026103f4565b60405161010f9190611776565b60405180910390f35b34801561012457600080fd5b5061013f600480360381019061013a9190611469565b610486565b60405161014c919061175b565b60405180910390f35b34801561016157600080fd5b5061016a6104a4565b60405161017791906118cf565b60405180910390f35b34801561018c57600080fd5b506101956104ae565b6040516101a291906118cf565b60405180910390f35b3480156101b757600080fd5b506101d260048036038101906101cd9190611416565b6104bb565b6040516101df919061175b565b60405180910390f35b3480156101f457600080fd5b506101fd6105b3565b60405161020a919061193d565b60405180910390f35b34801561021f57600080fd5b5061023a60048036038101906102359190611469565b6105bc565b604051610247919061175b565b60405180910390f35b34801561025c57600080fd5b50610277600480360381019061027291906113a9565b610668565b60405161028491906118cf565b60405180910390f35b34801561029957600080fd5b506102a26106b0565b6040516102af9190611776565b60405180910390f35b3480156102c457600080fd5b506102df60048036038101906102da9190611469565b610742565b6040516102ec919061175b565b60405180910390f35b34801561030157600080fd5b5061031c60048036038101906103179190611469565b61082d565b604051610329919061175b565b60405180910390f35b34801561033e57600080fd5b5061035960048036038101906103549190611521565b61084b565b60405161036994939291906118ea565b60405180910390f35b34801561037e57600080fd5b50610399600480360381019061039491906113d6565b6109bb565b6040516103a691906118cf565b60405180910390f35b6103c960048036038101906103c49190611521565b610a42565b005b3480156103d757600080fd5b506103f260048036038101906103ed91906114a9565b610b17565b005b60606003805461040390611b12565b80601f016020809104026020016040519081016040528092919081815260200182805461042f90611b12565b801561047c5780601f106104515761010080835404028352916020019161047c565b820191906000526020600020905b81548152906001019060200180831161045f57829003601f168201915b5050505050905090565b600061049a610493610cae565b8484610cb6565b6001905092915050565b6000600254905090565b6000600580549050905090565b60006104c8848484610e81565b6000600160008673ffffffffffffffffffffffffffffffffffffffff1673ffffffffffffffffffffffffffffffffffffffff1681526020019081526020016000206000610513610cae565b73ffffffffffffffffffffffffffffffffffffffff1673ffffffffffffffffffffffffffffffffffffffff16815260200190815260200160002054905082811015610593576040517f08c379a000000000000000000000000000000000000000000000000000000000815260040161058a9061182f565b60405180910390fd5b6105a78561059f610cae565b858403610cb6565b60019150509392505050565b60006012905090565b600061065e6105c9610cae565b8484600160006105d7610cae565b73ffffffffffffffffffffffffffffffffffffffff1673ffffffffffffffffffffffffffffffffffffffff16815260200190815260200160002060008873ffffffffffffffffffffffffffffffffffffffff1673ffffffffffffffffffffffffffffffffffffffff1681526020019081526020016000205461065991906119df565b610cb6565b6001905092915050565b60008060008373ffffffffffffffffffffffffffffffffffffffff1673ffffffffffffffffffffffffffffffffffffffff168152602001908152602001600020549050919050565b6060600480546106bf90611b12565b80601f01602080910402602001604051908101604052809291908181526020018280546106eb90611b12565b80156107385780601f1061070d57610100808354040283529160200191610738565b820191906000526020600020905b81548152906001019060200180831161071b57829003601f168201915b5050505050905090565b60008060016000610751610cae565b73ffffffffffffffffffffffffffffffffffffffff1673ffffffffffffffffffffffffffffffffffffffff16815260200190815260200160002060008573ffffffffffffffffffffffffffffffffffffffff1673ffffffffffffffffffffffffffffffffffffffff1681526020019081526020016000205490508281101561080e576040517f08c379a00000000000000000000000000000000000000000000000000000000081526004016108059061188f565b60405180910390fd5b610822610819610cae565b85858403610cb6565b600191505092915050565b600061084161083a610cae565b8484610e81565b6001905092915050565b6005818154811061085b57600080fd5b906000526020600020906004020160009150905080600001549080600101805461088490611b12565b80601f01602080910402602001604051908101604052809291908181526020018280546108b090611b12565b80156108fd5780601f106108d2576101008083540402835291602001916108fd565b820191906000526020600020905b8154815290600101906020018083116108e057829003601f168201915b50505050509080600201805461091290611b12565b80601f016020809104026020016040519081016040528092919081815260200182805461093e90611b12565b801561098b5780601f106109605761010080835404028352916020019161098b565b820191906000526020600020905b81548152906001019060200180831161096e57829003601f168201915b5050505050908060030160009054906101000a900473ffffffffffffffffffffffffffffffffffffffff16905084565b6000600160008473ffffffffffffffffffffffffffffffffffffffff1673ffffffffffffffffffffffffffffffffffffffff16815260200190815260200160002060008373ffffffffffffffffffffffffffffffffffffffff1673ffffffffffffffffffffffffffffffffffffffff16815260200190815260200160002054905092915050565b60058181548110610a5657610a55611bd3565b5b906000526020600020906004020160030160009054906101000a900473ffffffffffffffffffffffffffffffffffffffff1673ffffffffffffffffffffffffffffffffffffffff166108fc349081150290604051600060405180830381858888f19350505050158015610acd573d6000803e3d6000fd5b503460058281548110610ae357610ae2611bd3565b5b90600052602060002090600402016000016000828254610b0391906119df565b92505081905550610b143334611102565b50565b60056040518060800160405280600081526020018481526020018381526020013373ffffffffffffffffffffffffffffffffffffffff168152509080600181540180825580915050600190039060005260206000209060040201600090919091909150600082015181600001556020820151816001019080519060200190610ba092919061126c565b506040820151816002019080519060200190610bbd92919061126c565b5060608201518160030160006101000a81548173ffffffffffffffffffffffffffffffffffffffff021916908373ffffffffffffffffffffffffffffffffffffffff16021790555050507faec6ba6fa5c7e574dfcf7636625272a41336befcc13927c81acc067ca73cae3160056001600580549050610c3c9190611a35565b81548110610c4d57610c4c611bd3565b5b906000526020600020906004020160010160056001600580549050610c729190611a35565b81548110610c8357610c82611bd3565b5b9060005260206000209060040201600201604051610ca2929190611798565b60405180910390a15050565b600033905090565b600073ffffffffffffffffffffffffffffffffffffffff168373ffffffffffffffffffffffffffffffffffffffff161415610d26576040517f08c379a0000000000000000000000000000000000000000000000000000000008152600401610d1d9061186f565b60405180910390fd5b600073ffffffffffffffffffffffffffffffffffffffff168273ffffffffffffffffffffffffffffffffffffffff161415610d96576040517f08c379a0000000000000000000000000000000000000000000000000000000008152600401610d8d906117ef565b60405180910390fd5b80600160008573ffffffffffffffffffffffffffffffffffffffff1673ffffffffffffffffffffffffffffffffffffffff16815260200190815260200160002060008473ffffffffffffffffffffffffffffffffffffffff1673ffffffffffffffffffffffffffffffffffffffff168152602001908152602001600020819055508173ffffffffffffffffffffffffffffffffffffffff168373ffffffffffffffffffffffffffffffffffffffff167f8c5be1e5ebec7d5bd14f71427d1e84f3dd0314c0f7b2291e5b200ac8c7c3b92583604051610e7491906118cf565b60405180910390a3505050565b600073ffffffffffffffffffffffffffffffffffffffff168373ffffffffffffffffffffffffffffffffffffffff161415610ef1576040517f08c379a0000000000000000000000000000000000000000000000000000000008152600401610ee89061184f565b60405180910390fd5b600073ffffffffffffffffffffffffffffffffffffffff168273ffffffffffffffffffffffffffffffffffffffff161415610f61576040517f08c379a0000000000000000000000000000000000000000000000000000000008152600401610f58906117cf565b60405180910390fd5b610f6c838383611262565b60008060008573ffffffffffffffffffffffffffffffffffffffff1673ffffffffffffffffffffffffffffffffffffffff16815260200190815260200160002054905081811015610ff2576040517f08c379a0000000000000000000000000000000000000000000000000000000008152600401610fe99061180f565b60405180910390fd5b8181036000808673ffffffffffffffffffffffffffffffffffffffff1673ffffffffffffffffffffffffffffffffffffffff16815260200190815260200160002081905550816000808573ffffffffffffffffffffffffffffffffffffffff1673ffffffffffffffffffffffffffffffffffffffff168152602001908152602001600020600082825461108591906119df565b925050819055508273ffffffffffffffffffffffffffffffffffffffff168473ffffffffffffffffffffffffffffffffffffffff167fddf252ad1be2c89b69c2b068fc378daa952ba7f163c4a11628f55a4df523b3ef846040516110e991906118cf565b60405180910390a36110fc848484611267565b50505050565b600073ffffffffffffffffffffffffffffffffffffffff168273ffffffffffffffffffffffffffffffffffffffff161415611172576040517f08c379a0000000000000000000000000000000000000000000000000000000008152600401611169906118af565b60405180910390fd5b61117e60008383611262565b806002600082825461119091906119df565b92505081905550806000808473ffffffffffffffffffffffffffffffffffffffff1673ffffffffffffffffffffffffffffffffffffffff16815260200190815260200160002060008282546111e591906119df565b925050819055508173ffffffffffffffffffffffffffffffffffffffff16600073ffffffffffffffffffffffffffffffffffffffff167fddf252ad1be2c89b69c2b068fc378daa952ba7f163c4a11628f55a4df523b3ef8360405161124a91906118cf565b60405180910390a361125e60008383611267565b5050565b505050565b505050565b82805461127890611b12565b90600052602060002090601f01602090048101928261129a57600085556112e1565b82601f106112b357805160ff19168380011785556112e1565b828001600101855582156112e1579182015b828111156112e05782518255916020019190600101906112c5565b5b5090506112ee91906112f2565b5090565b5b8082111561130b5760008160009055506001016112f3565b5090565b600061132261131d8461197d565b611958565b90508281526020810184848401111561133e5761133d611c36565b5b611349848285611ad0565b509392505050565b60008135905061136081611ea8565b92915050565b600082601f83011261137b5761137a611c31565b5b813561138b84826020860161130f565b91505092915050565b6000813590506113a381611ebf565b92915050565b6000602082840312156113bf576113be611c40565b5b60006113cd84828501611351565b91505092915050565b600080604083850312156113ed576113ec611c40565b5b60006113fb85828601611351565b925050602061140c85828601611351565b9150509250929050565b60008060006060848603121561142f5761142e611c40565b5b600061143d86828701611351565b935050602061144e86828701611351565b925050604061145f86828701611394565b9150509250925092565b600080604083850312156114805761147f611c40565b5b600061148e85828601611351565b925050602061149f85828601611394565b9150509250929050565b600080604083850312156114c0576114bf611c40565b5b600083013567ffffffffffffffff8111156114de576114dd611c3b565b5b6114ea85828601611366565b925050602083013567ffffffffffffffff81111561150b5761150a611c3b565b5b61151785828601611366565b9150509250929050565b60006020828403121561153757611536611c40565b5b600061154584828501611394565b91505092915050565b61155781611a7b565b82525050565b61156681611a8d565b82525050565b6000611577826119c3565b61158181856119ce565b9350611591818560208601611adf565b61159a81611c45565b840191505092915050565b600081546115b281611b12565b6115bc81866119ce565b945060018216600081146115d757600181146115e95761161c565b60ff198316865260208601935061161c565b6115f2856119ae565b60005b83811015611614578154818901526001820191506020810190506115f5565b808801955050505b50505092915050565b60006116326023836119ce565b915061163d82611c56565b604082019050919050565b60006116556022836119ce565b915061166082611ca5565b604082019050919050565b60006116786026836119ce565b915061168382611cf4565b604082019050919050565b600061169b6028836119ce565b91506116a682611d43565b604082019050919050565b60006116be6025836119ce565b91506116c982611d92565b604082019050919050565b60006116e16024836119ce565b91506116ec82611de1565b604082019050919050565b60006117046025836119ce565b915061170f82611e30565b604082019050919050565b6000611727601f836119ce565b915061173282611e7f565b602082019050919050565b61174681611ab9565b82525050565b61175581611ac3565b82525050565b6000602082019050611770600083018461155d565b92915050565b60006020820190508181036000830152611790818461156c565b905092915050565b600060408201905081810360008301526117b281856115a5565b905081810360208301526117c681846115a5565b90509392505050565b600060208201905081810360008301526117e881611625565b9050919050565b6000602082019050818103600083015261180881611648565b9050919050565b600060208201905081810360008301526118288161166b565b9050919050565b600060208201905081810360008301526118488161168e565b9050919050565b60006020820190508181036000830152611868816116b1565b9050919050565b60006020820190508181036000830152611888816116d4565b9050919050565b600060208201905081810360008301526118a8816116f7565b9050919050565b600060208201905081810360008301526118c88161171a565b9050919050565b60006020820190506118e4600083018461173d565b92915050565b60006080820190506118ff600083018761173d565b8181036020830152611911818661156c565b90508181036040830152611925818561156c565b9050611934606083018461154e565b95945050505050565b6000602082019050611952600083018461174c565b92915050565b6000611962611973565b905061196e8282611b44565b919050565b6000604051905090565b600067ffffffffffffffff82111561199857611997611c02565b5b6119a182611c45565b9050602081019050919050565b60008190508160005260206000209050919050565b600081519050919050565b600082825260208201905092915050565b60006119ea82611ab9565b91506119f583611ab9565b9250827fffffffffffffffffffffffffffffffffffffffffffffffffffffffffffffffff03821115611a2a57611a29611b75565b5b828201905092915050565b6000611a4082611ab9565b9150611a4b83611ab9565b925082821015611a5e57611a5d611b75565b5b828203905092915050565b6000611a7482611a99565b9050919050565b6000611a8682611a99565b9050919050565b60008115159050919050565b600073ffffffffffffffffffffffffffffffffffffffff82169050919050565b6000819050919050565b600060ff82169050919050565b82818337600083830152505050565b60005b83811015611afd578082015181840152602081019050611ae2565b83811115611b0c576000848401525b50505050565b60006002820490506001821680611b2a57607f821691505b60208210811415611b3e57611b3d611ba4565b5b50919050565b611b4d82611c45565b810181811067ffffffffffffffff82111715611b6c57611b6b611c02565b5b80604052505050565b7f4e487b7100000000000000000000000000000000000000000000000000000000600052601160045260246000fd5b7f4e487b7100000000000000000000000000000000000000000000000000000000600052602260045260246000fd5b7f4e487b7100000000000000000000000000000000000000000000000000000000600052603260045260246000fd5b7f4e487b7100000000000000000000000000000000000000000000000000000000600052604160045260246000fd5b600080fd5b600080fd5b600080fd5b600080fd5b6000601f19601f8301169050919050565b7f45524332303a207472616e7366657220746f20746865207a65726f206164647260008201527f6573730000000000000000000000000000000000000000000000000000000000602082015250565b7f45524332303a20617070726f766520746f20746865207a65726f20616464726560008201527f7373000000000000000000000000000000000000000000000000000000000000602082015250565b7f45524332303a207472616e7366657220616d6f756e742065786365656473206260008201527f616c616e63650000000000000000000000000000000000000000000000000000602082015250565b7f45524332303a207472616e7366657220616d6f756e742065786365656473206160008201527f6c6c6f77616e6365000000000000000000000000000000000000000000000000602082015250565b7f45524332303a207472616e736665722066726f6d20746865207a65726f20616460008201527f6472657373000000000000000000000000000000000000000000000000000000602082015250565b7f45524332303a20617070726f76652066726f6d20746865207a65726f2061646460008201527f7265737300000000000000000000000000000000000000000000000000000000602082015250565b7f45524332303a2064656372656173656420616c6c6f77616e63652062656c6f7760008201527f207a65726f000000000000000000000000000000000000000000000000000000602082015250565b7f45524332303a206d696e7420746f20746865207a65726f206164647265737300600082015250565b611eb181611a69565b8114611ebc57600080fd5b50565b611ec881611ab9565b8114611ed357600080fd5b5056fea26469706673582212204249a89c18a276d2f462e0ba67ef578c8043e07449d2a229b04e9b1b01e5a72d64736f6c63430008070033",
  "immutableReferences": {},
  "source": "// SPDX-License-Identifier: MIT\npragma solidity >=0.4.22 <0.9.0;\nimport \"@openzeppelin/contracts/token/ERC20/ERC20.sol\";\n\ncontract AnbeShivamMain is ERC20{\n\n    constructor() ERC20(\"AnbeShivam Coin\",\"GODS\"){\n    }\n\n    struct Content {\n        uint recfunds;\n        string name;\n        string fileURL;\n        address payable creator;\n    }\n\n    Content[] public contents;\n    event contentadded(string name,string fileURL);\n    function returncount() public  view returns(uint) {\n        return contents.length;\n\n    }\n\n    function addContent(string memory _name, string memory _fileURL) external {\n        contents.push(Content(0,_name, _fileURL, payable(msg.sender)));\n        emit contentadded(contents[contents.length-1].name, contents[contents.length-1].fileURL);\n    } \n    \n    function investedFunds(uint contentid) external payable{\n        contents[contentid].creator.transfer(msg.value);\n        contents[contentid].recfunds += msg.value;\n        _mint(msg.sender,msg.value);\n\n    }\n}\n",
  "sourcePath": "/Users/hishamrs/Desktop/nft1/AnbeShivam/contracts/AnbeShivamMain.sol",
  "compiler": {
    "name": "solc",
    "version": "0.8.7+commit.e28d00a7.Emscripten.clang"
  },
  "schemaVersion": "3.4.3",
  "updatedAt": "2021-09-18T12:33:05.300Z",
  "devdoc": {
    "kind": "dev",
    "methods": {
      "allowance(address,address)": {
        "details": "See {IERC20-allowance}."
      },
      "approve(address,uint256)": {
        "details": "See {IERC20-approve}. Requirements: - `spender` cannot be the zero address."
      },
      "balanceOf(address)": {
        "details": "See {IERC20-balanceOf}."
      },
      "decimals()": {
        "details": "Returns the number of decimals used to get its user representation. For example, if `decimals` equals `2`, a balance of `505` tokens should be displayed to a user as `5.05` (`505 / 10 ** 2`). Tokens usually opt for a value of 18, imitating the relationship between Ether and Wei. This is the value {ERC20} uses, unless this function is overridden; NOTE: This information is only used for _display_ purposes: it in no way affects any of the arithmetic of the contract, including {IERC20-balanceOf} and {IERC20-transfer}."
      },
      "decreaseAllowance(address,uint256)": {
        "details": "Atomically decreases the allowance granted to `spender` by the caller. This is an alternative to {approve} that can be used as a mitigation for problems described in {IERC20-approve}. Emits an {Approval} event indicating the updated allowance. Requirements: - `spender` cannot be the zero address. - `spender` must have allowance for the caller of at least `subtractedValue`."
      },
      "increaseAllowance(address,uint256)": {
        "details": "Atomically increases the allowance granted to `spender` by the caller. This is an alternative to {approve} that can be used as a mitigation for problems described in {IERC20-approve}. Emits an {Approval} event indicating the updated allowance. Requirements: - `spender` cannot be the zero address."
      },
      "name()": {
        "details": "Returns the name of the token."
      },
      "symbol()": {
        "details": "Returns the symbol of the token, usually a shorter version of the name."
      },
      "totalSupply()": {
        "details": "See {IERC20-totalSupply}."
      },
      "transfer(address,uint256)": {
        "details": "See {IERC20-transfer}. Requirements: - `recipient` cannot be the zero address. - the caller must have a balance of at least `amount`."
      },
      "transferFrom(address,address,uint256)": {
        "details": "See {IERC20-transferFrom}. Emits an {Approval} event indicating the updated allowance. This is not required by the EIP. See the note at the beginning of {ERC20}. Requirements: - `sender` and `recipient` cannot be the zero address. - `sender` must have a balance of at least `amount`. - the caller must have allowance for ``sender``'s tokens of at least `amount`."
      }
    },
    "version": 1
  },
  "userdoc": {
    "kind": "user",
    "methods": {},
    "version": 1
  }
}