{
  "contractName": "AnbeShivamNFT",
  "abi": [
    {
      "inputs": [],
      "stateMutability": "nonpayable",
      "type": "constructor"
    },
    {
      "anonymous": false,
      "inputs": [
        {
          "indexed": true,
          "internalType": "address",
          "name": "owner",
          "type": "address"
        },
        {
          "indexed": true,
          "internalType": "address",
          "name": "approved",
          "type": "address"
        },
        {
          "indexed": true,
          "internalType": "uint256",
          "name": "tokenId",
          "type": "uint256"
        }
      ],
      "name": "Approval",
      "type": "event"
    },
    {
      "anonymous": false,
      "inputs": [
        {
          "indexed": true,
          "internalType": "address",
          "name": "owner",
          "type": "address"
        },
        {
          "indexed": true,
          "internalType": "address",
          "name": "operator",
          "type": "address"
        },
        {
          "indexed": false,
          "internalType": "bool",
          "name": "approved",
          "type": "bool"
        }
      ],
      "name": "ApprovalForAll",
      "type": "event"
    },
    {
      "anonymous": false,
      "inputs": [
        {
          "indexed": true,
          "internalType": "bytes32",
          "name": "role",
          "type": "bytes32"
        },
        {
          "indexed": true,
          "internalType": "bytes32",
          "name": "previousAdminRole",
          "type": "bytes32"
        },
        {
          "indexed": true,
          "internalType": "bytes32",
          "name": "newAdminRole",
          "type": "bytes32"
        }
      ],
      "name": "RoleAdminChanged",
      "type": "event"
    },
    {
      "anonymous": false,
      "inputs": [
        {
          "indexed": true,
          "internalType": "bytes32",
          "name": "role",
          "type": "bytes32"
        },
        {
          "indexed": true,
          "internalType": "address",
          "name": "account",
          "type": "address"
        },
        {
          "indexed": true,
          "internalType": "address",
          "name": "sender",
          "type": "address"
        }
      ],
      "name": "RoleGranted",
      "type": "event"
    },
    {
      "anonymous": false,
      "inputs": [
        {
          "indexed": true,
          "internalType": "bytes32",
          "name": "role",
          "type": "bytes32"
        },
        {
          "indexed": true,
          "internalType": "address",
          "name": "account",
          "type": "address"
        },
        {
          "indexed": true,
          "internalType": "address",
          "name": "sender",
          "type": "address"
        }
      ],
      "name": "RoleRevoked",
      "type": "event"
    },
    {
      "anonymous": false,
      "inputs": [
        {
          "indexed": true,
          "internalType": "address",
          "name": "from",
          "type": "address"
        },
        {
          "indexed": true,
          "internalType": "address",
          "name": "to",
          "type": "address"
        },
        {
          "indexed": true,
          "internalType": "uint256",
          "name": "tokenId",
          "type": "uint256"
        }
      ],
      "name": "Transfer",
      "type": "event"
    },
    {
      "inputs": [],
      "name": "DEFAULT_ADMIN_ROLE",
      "outputs": [
        {
          "internalType": "bytes32",
          "name": "",
          "type": "bytes32"
        }
      ],
      "stateMutability": "view",
      "type": "function",
      "constant": true
    },
    {
      "inputs": [],
      "name": "MINTER_ROLE",
      "outputs": [
        {
          "internalType": "bytes32",
          "name": "",
          "type": "bytes32"
        }
      ],
      "stateMutability": "view",
      "type": "function",
      "constant": true
    },
    {
      "inputs": [
        {
          "internalType": "address",
          "name": "to",
          "type": "address"
        },
        {
          "internalType": "uint256",
          "name": "tokenId",
          "type": "uint256"
        }
      ],
      "name": "approve",
      "outputs": [],
      "stateMutability": "nonpayable",
      "type": "function"
    },
    {
      "inputs": [
        {
          "internalType": "address",
          "name": "owner",
          "type": "address"
        }
      ],
      "name": "balanceOf",
      "outputs": [
        {
          "internalType": "uint256",
          "name": "",
          "type": "uint256"
        }
      ],
      "stateMutability": "view",
      "type": "function",
      "constant": true
    },
    {
      "inputs": [
        {
          "internalType": "uint256",
          "name": "tokenId",
          "type": "uint256"
        }
      ],
      "name": "getApproved",
      "outputs": [
        {
          "internalType": "address",
          "name": "",
          "type": "address"
        }
      ],
      "stateMutability": "view",
      "type": "function",
      "constant": true
    },
    {
      "inputs": [
        {
          "internalType": "bytes32",
          "name": "role",
          "type": "bytes32"
        }
      ],
      "name": "getRoleAdmin",
      "outputs": [
        {
          "internalType": "bytes32",
          "name": "",
          "type": "bytes32"
        }
      ],
      "stateMutability": "view",
      "type": "function",
      "constant": true
    },
    {
      "inputs": [
        {
          "internalType": "bytes32",
          "name": "role",
          "type": "bytes32"
        },
        {
          "internalType": "address",
          "name": "account",
          "type": "address"
        }
      ],
      "name": "grantRole",
      "outputs": [],
      "stateMutability": "nonpayable",
      "type": "function"
    },
    {
      "inputs": [
        {
          "internalType": "bytes32",
          "name": "role",
          "type": "bytes32"
        },
        {
          "internalType": "address",
          "name": "account",
          "type": "address"
        }
      ],
      "name": "hasRole",
      "outputs": [
        {
          "internalType": "bool",
          "name": "",
          "type": "bool"
        }
      ],
      "stateMutability": "view",
      "type": "function",
      "constant": true
    },
    {
      "inputs": [
        {
          "internalType": "address",
          "name": "owner",
          "type": "address"
        },
        {
          "internalType": "address",
          "name": "operator",
          "type": "address"
        }
      ],
      "name": "isApprovedForAll",
      "outputs": [
        {
          "internalType": "bool",
          "name": "",
          "type": "bool"
        }
      ],
      "stateMutability": "view",
      "type": "function",
      "constant": true
    },
    {
      "inputs": [],
      "name": "name",
      "outputs": [
        {
          "internalType": "string",
          "name": "",
          "type": "string"
        }
      ],
      "stateMutability": "view",
      "type": "function",
      "constant": true
    },
    {
      "inputs": [
        {
          "internalType": "uint256",
          "name": "tokenId",
          "type": "uint256"
        }
      ],
      "name": "ownerOf",
      "outputs": [
        {
          "internalType": "address",
          "name": "",
          "type": "address"
        }
      ],
      "stateMutability": "view",
      "type": "function",
      "constant": true
    },
    {
      "inputs": [
        {
          "internalType": "bytes32",
          "name": "role",
          "type": "bytes32"
        },
        {
          "internalType": "address",
          "name": "account",
          "type": "address"
        }
      ],
      "name": "renounceRole",
      "outputs": [],
      "stateMutability": "nonpayable",
      "type": "function"
    },
    {
      "inputs": [
        {
          "internalType": "bytes32",
          "name": "role",
          "type": "bytes32"
        },
        {
          "internalType": "address",
          "name": "account",
          "type": "address"
        }
      ],
      "name": "revokeRole",
      "outputs": [],
      "stateMutability": "nonpayable",
      "type": "function"
    },
    {
      "inputs": [
        {
          "internalType": "address",
          "name": "from",
          "type": "address"
        },
        {
          "internalType": "address",
          "name": "to",
          "type": "address"
        },
        {
          "internalType": "uint256",
          "name": "tokenId",
          "type": "uint256"
        }
      ],
      "name": "safeTransferFrom",
      "outputs": [],
      "stateMutability": "nonpayable",
      "type": "function"
    },
    {
      "inputs": [
        {
          "internalType": "address",
          "name": "from",
          "type": "address"
        },
        {
          "internalType": "address",
          "name": "to",
          "type": "address"
        },
        {
          "internalType": "uint256",
          "name": "tokenId",
          "type": "uint256"
        },
        {
          "internalType": "bytes",
          "name": "_data",
          "type": "bytes"
        }
      ],
      "name": "safeTransferFrom",
      "outputs": [],
      "stateMutability": "nonpayable",
      "type": "function"
    },
    {
      "inputs": [
        {
          "internalType": "address",
          "name": "operator",
          "type": "address"
        },
        {
          "internalType": "bool",
          "name": "approved",
          "type": "bool"
        }
      ],
      "name": "setApprovalForAll",
      "outputs": [],
      "stateMutability": "nonpayable",
      "type": "function"
    },
    {
      "inputs": [],
      "name": "symbol",
      "outputs": [
        {
          "internalType": "string",
          "name": "",
          "type": "string"
        }
      ],
      "stateMutability": "view",
      "type": "function",
      "constant": true
    },
    {
      "inputs": [
        {
          "internalType": "address",
          "name": "from",
          "type": "address"
        },
        {
          "internalType": "address",
          "name": "to",
          "type": "address"
        },
        {
          "internalType": "uint256",
          "name": "tokenId",
          "type": "uint256"
        }
      ],
      "name": "transferFrom",
      "outputs": [],
      "stateMutability": "nonpayable",
      "type": "function"
    },
    {
      "inputs": [
        {
          "internalType": "address",
          "name": "to",
          "type": "address"
        }
      ],
      "name": "safeMint",
      "outputs": [],
      "stateMutability": "nonpayable",
      "type": "function"
    },
    {
      "inputs": [
        {
          "internalType": "uint256",
          "name": "tokenId",
          "type": "uint256"
        }
      ],
      "name": "tokenURI",
      "outputs": [
        {
          "internalType": "string",
          "name": "",
          "type": "string"
        }
      ],
      "stateMutability": "view",
      "type": "function",
      "constant": true
    },
    {
      "inputs": [
        {
          "internalType": "bytes4",
          "name": "interfaceId",
          "type": "bytes4"
        }
      ],
      "name": "supportsInterface",
      "outputs": [
        {
          "internalType": "bool",
          "name": "",
          "type": "bool"
        }
      ],
      "stateMutability": "view",
      "type": "function",
      "constant": true
    }
  ],
  "bytecode": "0x60806040523480156200001157600080fd5b506040518060400160405280600d81526020017f416e626553686976616d4e4654000000000000000000000000000000000000008152506040518060400160405280600481526020017f414e4245000000000000000000000000000000000000000000000000000000008152508160009080519060200190620000969291906200027a565b508060019080519060200190620000af9291906200027a565b505050620000c76000801b33620000ff60201b60201c565b620000f97f9f2df0fed2c77648de5860a4cc508cd0818c85b8b8a1ab4ceeef8d981c8956a633620000ff60201b60201c565b6200038f565b6200011182826200011560201b60201c565b5050565b6200012782826200020760201b60201c565b620002035760016007600084815260200190815260200160002060000160008373ffffffffffffffffffffffffffffffffffffffff1673ffffffffffffffffffffffffffffffffffffffff16815260200190815260200160002060006101000a81548160ff021916908315150217905550620001a86200027260201b60201c565b73ffffffffffffffffffffffffffffffffffffffff168173ffffffffffffffffffffffffffffffffffffffff16837f2f8788117e7eff1d82e926ec794901d17c78024a50270940304540a733656f0d60405160405180910390a45b5050565b60006007600084815260200190815260200160002060000160008373ffffffffffffffffffffffffffffffffffffffff1673ffffffffffffffffffffffffffffffffffffffff16815260200190815260200160002060009054906101000a900460ff16905092915050565b600033905090565b82805462000288906200032a565b90600052602060002090601f016020900481019282620002ac5760008555620002f8565b82601f10620002c757805160ff1916838001178555620002f8565b82800160010185558215620002f8579182015b82811115620002f7578251825591602001919060010190620002da565b5b5090506200030791906200030b565b5090565b5b80821115620003265760008160009055506001016200030c565b5090565b600060028204905060018216806200034357607f821691505b602082108114156200035a576200035962000360565b5b50919050565b7f4e487b7100000000000000000000000000000000000000000000000000000000600052602260045260246000fd5b6134a0806200039f6000396000f3fe608060405234801561001057600080fd5b50600436106101375760003560e01c80636352211e116100b8578063a22cb4651161007c578063a22cb4651461035e578063b88d4fde1461037a578063c87b56dd14610396578063d5391393146103c6578063d547741f146103e4578063e985e9c51461040057610137565b80636352211e1461029257806370a08231146102c257806391d14854146102f257806395d89b4114610322578063a217fddf1461034057610137565b8063248a9ca3116100ff578063248a9ca3146101f25780632f2ff15d1461022257806336568abe1461023e57806340d097c31461025a57806342842e0e1461027657610137565b806301ffc9a71461013c57806306fdde031461016c578063081812fc1461018a578063095ea7b3146101ba57806323b872dd146101d6575b600080fd5b61015660048036038101906101519190612322565b610430565b60405161016391906127e6565b60405180910390f35b610174610442565b604051610181919061281c565b60405180910390f35b6101a4600480360381019061019f919061237c565b6104d4565b6040516101b1919061277f565b60405180910390f35b6101d460048036038101906101cf9190612275565b610559565b005b6101f060048036038101906101eb919061215f565b610671565b005b61020c600480360381019061020791906122b5565b6106d1565b6040516102199190612801565b60405180910390f35b61023c600480360381019061023791906122e2565b6106f1565b005b610258600480360381019061025391906122e2565b61071a565b005b610274600480360381019061026f91906120f2565b61079d565b005b610290600480360381019061028b919061215f565b6107f0565b005b6102ac60048036038101906102a7919061237c565b610810565b6040516102b9919061277f565b60405180910390f35b6102dc60048036038101906102d791906120f2565b6108c2565b6040516102e99190612a5e565b60405180910390f35b61030c600480360381019061030791906122e2565b61097a565b60405161031991906127e6565b60405180910390f35b61032a6109e5565b604051610337919061281c565b60405180910390f35b610348610a77565b6040516103559190612801565b60405180910390f35b61037860048036038101906103739190612235565b610a7e565b005b610394600480360381019061038f91906121b2565b610bff565b005b6103b060048036038101906103ab919061237c565b610c61565b6040516103bd919061281c565b60405180910390f35b6103ce610c73565b6040516103db9190612801565b60405180910390f35b6103fe60048036038101906103f991906122e2565b610c97565b005b61041a6004803603810190610415919061211f565b610cc0565b60405161042791906127e6565b60405180910390f35b600061043b82610d54565b9050919050565b60606000805461045190612d11565b80601f016020809104026020016040519081016040528092919081815260200182805461047d90612d11565b80156104ca5780601f1061049f576101008083540402835291602001916104ca565b820191906000526020600020905b8154815290600101906020018083116104ad57829003601f168201915b5050505050905090565b60006104df82610dce565b61051e576040517f08c379a00000000000000000000000000000000000000000000000000000000081526004016105159061299e565b60405180910390fd5b6004600083815260200190815260200160002060009054906101000a900473ffffffffffffffffffffffffffffffffffffffff169050919050565b600061056482610810565b90508073ffffffffffffffffffffffffffffffffffffffff168373ffffffffffffffffffffffffffffffffffffffff1614156105d5576040517f08c379a00000000000000000000000000000000000000000000000000000000081526004016105cc906129fe565b60405180910390fd5b8073ffffffffffffffffffffffffffffffffffffffff166105f4610e3a565b73ffffffffffffffffffffffffffffffffffffffff16148061062357506106228161061d610e3a565b610cc0565b5b610662576040517f08c379a0000000000000000000000000000000000000000000000000000000008152600401610659906128fe565b60405180910390fd5b61066c8383610e42565b505050565b61068261067c610e3a565b82610efb565b6106c1576040517f08c379a00000000000000000000000000000000000000000000000000000000081526004016106b890612a1e565b60405180910390fd5b6106cc838383610fd9565b505050565b600060076000838152602001908152602001600020600101549050919050565b6106fa826106d1565b61070b81610706610e3a565b611235565b61071583836112d2565b505050565b610722610e3a565b73ffffffffffffffffffffffffffffffffffffffff168173ffffffffffffffffffffffffffffffffffffffff161461078f576040517f08c379a000000000000000000000000000000000000000000000000000000000815260040161078690612a3e565b60405180910390fd5b61079982826113b3565b5050565b7f9f2df0fed2c77648de5860a4cc508cd0818c85b8b8a1ab4ceeef8d981c8956a66107cf816107ca610e3a565b611235565b6107e2826107dd6008611495565b6114a3565b6107ec60086114c1565b5050565b61080b83838360405180602001604052806000815250610bff565b505050565b6000806002600084815260200190815260200160002060009054906101000a900473ffffffffffffffffffffffffffffffffffffffff169050600073ffffffffffffffffffffffffffffffffffffffff168173ffffffffffffffffffffffffffffffffffffffff1614156108b9576040517f08c379a00000000000000000000000000000000000000000000000000000000081526004016108b09061293e565b60405180910390fd5b80915050919050565b60008073ffffffffffffffffffffffffffffffffffffffff168273ffffffffffffffffffffffffffffffffffffffff161415610933576040517f08c379a000000000000000000000000000000000000000000000000000000000815260040161092a9061291e565b60405180910390fd5b600360008373ffffffffffffffffffffffffffffffffffffffff1673ffffffffffffffffffffffffffffffffffffffff168152602001908152602001600020549050919050565b60006007600084815260200190815260200160002060000160008373ffffffffffffffffffffffffffffffffffffffff1673ffffffffffffffffffffffffffffffffffffffff16815260200190815260200160002060009054906101000a900460ff16905092915050565b6060600180546109f490612d11565b80601f0160208091040260200160405190810160405280929190818152602001828054610a2090612d11565b8015610a6d5780601f10610a4257610100808354040283529160200191610a6d565b820191906000526020600020905b815481529060010190602001808311610a5057829003601f168201915b5050505050905090565b6000801b81565b610a86610e3a565b73ffffffffffffffffffffffffffffffffffffffff168273ffffffffffffffffffffffffffffffffffffffff161415610af4576040517f08c379a0000000000000000000000000000000000000000000000000000000008152600401610aeb906128be565b60405180910390fd5b8060056000610b01610e3a565b73ffffffffffffffffffffffffffffffffffffffff1673ffffffffffffffffffffffffffffffffffffffff16815260200190815260200160002060008473ffffffffffffffffffffffffffffffffffffffff1673ffffffffffffffffffffffffffffffffffffffff16815260200190815260200160002060006101000a81548160ff0219169083151502179055508173ffffffffffffffffffffffffffffffffffffffff16610bae610e3a565b73ffffffffffffffffffffffffffffffffffffffff167f17307eab39ab6107e8899845ad3d59bd9653f200f220920489ca2b5937696c3183604051610bf391906127e6565b60405180910390a35050565b610c10610c0a610e3a565b83610efb565b610c4f576040517f08c379a0000000000000000000000000000000000000000000000000000000008152600401610c4690612a1e565b60405180910390fd5b610c5b848484846114d7565b50505050565b6060610c6c82611533565b9050919050565b7f9f2df0fed2c77648de5860a4cc508cd0818c85b8b8a1ab4ceeef8d981c8956a681565b610ca0826106d1565b610cb181610cac610e3a565b611235565b610cbb83836113b3565b505050565b6000600560008473ffffffffffffffffffffffffffffffffffffffff1673ffffffffffffffffffffffffffffffffffffffff16815260200190815260200160002060008373ffffffffffffffffffffffffffffffffffffffff1673ffffffffffffffffffffffffffffffffffffffff16815260200190815260200160002060009054906101000a900460ff16905092915050565b60007f7965db0b000000000000000000000000000000000000000000000000000000007bffffffffffffffffffffffffffffffffffffffffffffffffffffffff1916827bffffffffffffffffffffffffffffffffffffffffffffffffffffffff19161480610dc75750610dc682611685565b5b9050919050565b60008073ffffffffffffffffffffffffffffffffffffffff166002600084815260200190815260200160002060009054906101000a900473ffffffffffffffffffffffffffffffffffffffff1673ffffffffffffffffffffffffffffffffffffffff1614159050919050565b600033905090565b816004600083815260200190815260200160002060006101000a81548173ffffffffffffffffffffffffffffffffffffffff021916908373ffffffffffffffffffffffffffffffffffffffff160217905550808273ffffffffffffffffffffffffffffffffffffffff16610eb583610810565b73ffffffffffffffffffffffffffffffffffffffff167f8c5be1e5ebec7d5bd14f71427d1e84f3dd0314c0f7b2291e5b200ac8c7c3b92560405160405180910390a45050565b6000610f0682610dce565b610f45576040517f08c379a0000000000000000000000000000000000000000000000000000000008152600401610f3c906128de565b60405180910390fd5b6000610f5083610810565b90508073ffffffffffffffffffffffffffffffffffffffff168473ffffffffffffffffffffffffffffffffffffffff161480610fbf57508373ffffffffffffffffffffffffffffffffffffffff16610fa7846104d4565b73ffffffffffffffffffffffffffffffffffffffff16145b80610fd05750610fcf8185610cc0565b5b91505092915050565b8273ffffffffffffffffffffffffffffffffffffffff16610ff982610810565b73ffffffffffffffffffffffffffffffffffffffff161461104f576040517f08c379a0000000000000000000000000000000000000000000000000000000008152600401611046906129be565b60405180910390fd5b600073ffffffffffffffffffffffffffffffffffffffff168273ffffffffffffffffffffffffffffffffffffffff1614156110bf576040517f08c379a00000000000000000000000000000000000000000000000000000000081526004016110b69061289e565b60405180910390fd5b6110ca838383611767565b6110d5600082610e42565b6001600360008573ffffffffffffffffffffffffffffffffffffffff1673ffffffffffffffffffffffffffffffffffffffff16815260200190815260200160002060008282546111259190612bf3565b925050819055506001600360008473ffffffffffffffffffffffffffffffffffffffff1673ffffffffffffffffffffffffffffffffffffffff168152602001908152602001600020600082825461117c9190612b12565b92505081905550816002600083815260200190815260200160002060006101000a81548173ffffffffffffffffffffffffffffffffffffffff021916908373ffffffffffffffffffffffffffffffffffffffff160217905550808273ffffffffffffffffffffffffffffffffffffffff168473ffffffffffffffffffffffffffffffffffffffff167fddf252ad1be2c89b69c2b068fc378daa952ba7f163c4a11628f55a4df523b3ef60405160405180910390a4505050565b61123f828261097a565b6112ce576112648173ffffffffffffffffffffffffffffffffffffffff16601461176c565b6112728360001c602061176c565b604051602001611283929190612745565b6040516020818303038152906040526040517f08c379a00000000000000000000000000000000000000000000000000000000081526004016112c5919061281c565b60405180910390fd5b5050565b6112dc828261097a565b6113af5760016007600084815260200190815260200160002060000160008373ffffffffffffffffffffffffffffffffffffffff1673ffffffffffffffffffffffffffffffffffffffff16815260200190815260200160002060006101000a81548160ff021916908315150217905550611354610e3a565b73ffffffffffffffffffffffffffffffffffffffff168173ffffffffffffffffffffffffffffffffffffffff16837f2f8788117e7eff1d82e926ec794901d17c78024a50270940304540a733656f0d60405160405180910390a45b5050565b6113bd828261097a565b156114915760006007600084815260200190815260200160002060000160008373ffffffffffffffffffffffffffffffffffffffff1673ffffffffffffffffffffffffffffffffffffffff16815260200190815260200160002060006101000a81548160ff021916908315150217905550611436610e3a565b73ffffffffffffffffffffffffffffffffffffffff168173ffffffffffffffffffffffffffffffffffffffff16837ff6391f5c32d9c69d2a47ea670b442974b53935d1edc7fd64eb21e047a839171b60405160405180910390a45b5050565b600081600001549050919050565b6114bd8282604051806020016040528060008152506119a8565b5050565b6001816000016000828254019250508190555050565b6114e2848484610fd9565b6114ee84848484611a03565b61152d576040517f08c379a00000000000000000000000000000000000000000000000000000000081526004016115249061285e565b60405180910390fd5b50505050565b606061153e82610dce565b61157d576040517f08c379a00000000000000000000000000000000000000000000000000000000081526004016115749061297e565b60405180910390fd5b600060066000848152602001908152602001600020805461159d90612d11565b80601f01602080910402602001604051908101604052809291908181526020018280546115c990612d11565b80156116165780601f106115eb57610100808354040283529160200191611616565b820191906000526020600020905b8154815290600101906020018083116115f957829003601f168201915b505050505090506000611627611b9a565b905060008151141561163d578192505050611680565b60008251111561167257808260405160200161165a929190612721565b60405160208183030381529060405292505050611680565b61167b84611bb1565b925050505b919050565b60007f80ac58cd000000000000000000000000000000000000000000000000000000007bffffffffffffffffffffffffffffffffffffffffffffffffffffffff1916827bffffffffffffffffffffffffffffffffffffffffffffffffffffffff1916148061175057507f5b5e139f000000000000000000000000000000000000000000000000000000007bffffffffffffffffffffffffffffffffffffffffffffffffffffffff1916827bffffffffffffffffffffffffffffffffffffffffffffffffffffffff1916145b80611760575061175f82611c58565b5b9050919050565b505050565b60606000600283600261177f9190612b99565b6117899190612b12565b67ffffffffffffffff8111156117a2576117a1612eaa565b5b6040519080825280601f01601f1916602001820160405280156117d45781602001600182028036833780820191505090505b5090507f30000000000000000000000000000000000000000000000000000000000000008160008151811061180c5761180b612e7b565b5b60200101907effffffffffffffffffffffffffffffffffffffffffffffffffffffffffffff1916908160001a9053507f7800000000000000000000000000000000000000000000000000000000000000816001815181106118705761186f612e7b565b5b60200101907effffffffffffffffffffffffffffffffffffffffffffffffffffffffffffff1916908160001a905350600060018460026118b09190612b99565b6118ba9190612b12565b90505b600181111561195a577f3031323334353637383961626364656600000000000000000000000000000000600f8616601081106118fc576118fb612e7b565b5b1a60f81b82828151811061191357611912612e7b565b5b60200101907effffffffffffffffffffffffffffffffffffffffffffffffffffffffffffff1916908160001a905350600485901c94508061195390612ce7565b90506118bd565b506000841461199e576040517f08c379a00000000000000000000000000000000000000000000000000000000081526004016119959061283e565b60405180910390fd5b8091505092915050565b6119b28383611cc2565b6119bf6000848484611a03565b6119fe576040517f08c379a00000000000000000000000000000000000000000000000000000000081526004016119f59061285e565b60405180910390fd5b505050565b6000611a248473ffffffffffffffffffffffffffffffffffffffff16611e90565b15611b8d578373ffffffffffffffffffffffffffffffffffffffff1663150b7a02611a4d610e3a565b8786866040518563ffffffff1660e01b8152600401611a6f949392919061279a565b602060405180830381600087803b158015611a8957600080fd5b505af1925050508015611aba57506040513d601f19601f82011682018060405250810190611ab7919061234f565b60015b611b3d573d8060008114611aea576040519150601f19603f3d011682016040523d82523d6000602084013e611aef565b606091505b50600081511415611b35576040517f08c379a0000000000000000000000000000000000000000000000000000000008152600401611b2c9061285e565b60405180910390fd5b805181602001fd5b63150b7a0260e01b7bffffffffffffffffffffffffffffffffffffffffffffffffffffffff1916817bffffffffffffffffffffffffffffffffffffffffffffffffffffffff191614915050611b92565b600190505b949350505050565b606060405180602001604052806000815250905090565b6060611bbc82610dce565b611bfb576040517f08c379a0000000000000000000000000000000000000000000000000000000008152600401611bf2906129de565b60405180910390fd5b6000611c05611b9a565b90506000815111611c255760405180602001604052806000815250611c50565b80611c2f84611ea3565b604051602001611c40929190612721565b6040516020818303038152906040525b915050919050565b60007f01ffc9a7000000000000000000000000000000000000000000000000000000007bffffffffffffffffffffffffffffffffffffffffffffffffffffffff1916827bffffffffffffffffffffffffffffffffffffffffffffffffffffffff1916149050919050565b600073ffffffffffffffffffffffffffffffffffffffff168273ffffffffffffffffffffffffffffffffffffffff161415611d32576040517f08c379a0000000000000000000000000000000000000000000000000000000008152600401611d299061295e565b60405180910390fd5b611d3b81610dce565b15611d7b576040517f08c379a0000000000000000000000000000000000000000000000000000000008152600401611d729061287e565b60405180910390fd5b611d8760008383611767565b6001600360008473ffffffffffffffffffffffffffffffffffffffff1673ffffffffffffffffffffffffffffffffffffffff1681526020019081526020016000206000828254611dd79190612b12565b92505081905550816002600083815260200190815260200160002060006101000a81548173ffffffffffffffffffffffffffffffffffffffff021916908373ffffffffffffffffffffffffffffffffffffffff160217905550808273ffffffffffffffffffffffffffffffffffffffff16600073ffffffffffffffffffffffffffffffffffffffff167fddf252ad1be2c89b69c2b068fc378daa952ba7f163c4a11628f55a4df523b3ef60405160405180910390a45050565b600080823b905060008111915050919050565b60606000821415611eeb576040518060400160405280600181526020017f30000000000000000000000000000000000000000000000000000000000000008152509050611fff565b600082905060005b60008214611f1d578080611f0690612d74565b915050600a82611f169190612b68565b9150611ef3565b60008167ffffffffffffffff811115611f3957611f38612eaa565b5b6040519080825280601f01601f191660200182016040528015611f6b5781602001600182028036833780820191505090505b5090505b60008514611ff857600182611f849190612bf3565b9150600a85611f939190612dbd565b6030611f9f9190612b12565b60f81b818381518110611fb557611fb4612e7b565b5b60200101907effffffffffffffffffffffffffffffffffffffffffffffffffffffffffffff1916908160001a905350600a85611ff19190612b68565b9450611f6f565b8093505050505b919050565b600061201761201284612a9e565b612a79565b90508281526020810184848401111561203357612032612ede565b5b61203e848285612ca5565b509392505050565b600081359050612055816133f7565b92915050565b60008135905061206a8161340e565b92915050565b60008135905061207f81613425565b92915050565b6000813590506120948161343c565b92915050565b6000815190506120a98161343c565b92915050565b600082601f8301126120c4576120c3612ed9565b5b81356120d4848260208601612004565b91505092915050565b6000813590506120ec81613453565b92915050565b60006020828403121561210857612107612ee8565b5b600061211684828501612046565b91505092915050565b6000806040838503121561213657612135612ee8565b5b600061214485828601612046565b925050602061215585828601612046565b9150509250929050565b60008060006060848603121561217857612177612ee8565b5b600061218686828701612046565b935050602061219786828701612046565b92505060406121a8868287016120dd565b9150509250925092565b600080600080608085870312156121cc576121cb612ee8565b5b60006121da87828801612046565b94505060206121eb87828801612046565b93505060406121fc878288016120dd565b925050606085013567ffffffffffffffff81111561221d5761221c612ee3565b5b612229878288016120af565b91505092959194509250565b6000806040838503121561224c5761224b612ee8565b5b600061225a85828601612046565b925050602061226b8582860161205b565b9150509250929050565b6000806040838503121561228c5761228b612ee8565b5b600061229a85828601612046565b92505060206122ab858286016120dd565b9150509250929050565b6000602082840312156122cb576122ca612ee8565b5b60006122d984828501612070565b91505092915050565b600080604083850312156122f9576122f8612ee8565b5b600061230785828601612070565b925050602061231885828601612046565b9150509250929050565b60006020828403121561233857612337612ee8565b5b600061234684828501612085565b91505092915050565b60006020828403121561236557612364612ee8565b5b60006123738482850161209a565b91505092915050565b60006020828403121561239257612391612ee8565b5b60006123a0848285016120dd565b91505092915050565b6123b281612c27565b82525050565b6123c181612c39565b82525050565b6123d081612c45565b82525050565b60006123e182612acf565b6123eb8185612ae5565b93506123fb818560208601612cb4565b61240481612eed565b840191505092915050565b600061241a82612ada565b6124248185612af6565b9350612434818560208601612cb4565b61243d81612eed565b840191505092915050565b600061245382612ada565b61245d8185612b07565b935061246d818560208601612cb4565b80840191505092915050565b6000612486602083612af6565b915061249182612efe565b602082019050919050565b60006124a9603283612af6565b91506124b482612f27565b604082019050919050565b60006124cc601c83612af6565b91506124d782612f76565b602082019050919050565b60006124ef602483612af6565b91506124fa82612f9f565b604082019050919050565b6000612512601983612af6565b915061251d82612fee565b602082019050919050565b6000612535602c83612af6565b915061254082613017565b604082019050919050565b6000612558603883612af6565b915061256382613066565b604082019050919050565b600061257b602a83612af6565b9150612586826130b5565b604082019050919050565b600061259e602983612af6565b91506125a982613104565b604082019050919050565b60006125c1602083612af6565b91506125cc82613153565b602082019050919050565b60006125e4603183612af6565b91506125ef8261317c565b604082019050919050565b6000612607602c83612af6565b9150612612826131cb565b604082019050919050565b600061262a602983612af6565b91506126358261321a565b604082019050919050565b600061264d602f83612af6565b915061265882613269565b604082019050919050565b6000612670602183612af6565b915061267b826132b8565b604082019050919050565b6000612693603183612af6565b915061269e82613307565b604082019050919050565b60006126b6601783612b07565b91506126c182613356565b601782019050919050565b60006126d9601183612b07565b91506126e48261337f565b601182019050919050565b60006126fc602f83612af6565b9150612707826133a8565b604082019050919050565b61271b81612c9b565b82525050565b600061272d8285612448565b91506127398284612448565b91508190509392505050565b6000612750826126a9565b915061275c8285612448565b9150612767826126cc565b91506127738284612448565b91508190509392505050565b600060208201905061279460008301846123a9565b92915050565b60006080820190506127af60008301876123a9565b6127bc60208301866123a9565b6127c96040830185612712565b81810360608301526127db81846123d6565b905095945050505050565b60006020820190506127fb60008301846123b8565b92915050565b600060208201905061281660008301846123c7565b92915050565b60006020820190508181036000830152612836818461240f565b905092915050565b6000602082019050818103600083015261285781612479565b9050919050565b600060208201905081810360008301526128778161249c565b9050919050565b60006020820190508181036000830152612897816124bf565b9050919050565b600060208201905081810360008301526128b7816124e2565b9050919050565b600060208201905081810360008301526128d781612505565b9050919050565b600060208201905081810360008301526128f781612528565b9050919050565b600060208201905081810360008301526129178161254b565b9050919050565b600060208201905081810360008301526129378161256e565b9050919050565b6000602082019050818103600083015261295781612591565b9050919050565b60006020820190508181036000830152612977816125b4565b9050919050565b60006020820190508181036000830152612997816125d7565b9050919050565b600060208201905081810360008301526129b7816125fa565b9050919050565b600060208201905081810360008301526129d78161261d565b9050919050565b600060208201905081810360008301526129f781612640565b9050919050565b60006020820190508181036000830152612a1781612663565b9050919050565b60006020820190508181036000830152612a3781612686565b9050919050565b60006020820190508181036000830152612a57816126ef565b9050919050565b6000602082019050612a736000830184612712565b92915050565b6000612a83612a94565b9050612a8f8282612d43565b919050565b6000604051905090565b600067ffffffffffffffff821115612ab957612ab8612eaa565b5b612ac282612eed565b9050602081019050919050565b600081519050919050565b600081519050919050565b600082825260208201905092915050565b600082825260208201905092915050565b600081905092915050565b6000612b1d82612c9b565b9150612b2883612c9b565b9250827fffffffffffffffffffffffffffffffffffffffffffffffffffffffffffffffff03821115612b5d57612b5c612dee565b5b828201905092915050565b6000612b7382612c9b565b9150612b7e83612c9b565b925082612b8e57612b8d612e1d565b5b828204905092915050565b6000612ba482612c9b565b9150612baf83612c9b565b9250817fffffffffffffffffffffffffffffffffffffffffffffffffffffffffffffffff0483118215151615612be857612be7612dee565b5b828202905092915050565b6000612bfe82612c9b565b9150612c0983612c9b565b925082821015612c1c57612c1b612dee565b5b828203905092915050565b6000612c3282612c7b565b9050919050565b60008115159050919050565b6000819050919050565b60007fffffffff0000000000000000000000000000000000000000000000000000000082169050919050565b600073ffffffffffffffffffffffffffffffffffffffff82169050919050565b6000819050919050565b82818337600083830152505050565b60005b83811015612cd2578082015181840152602081019050612cb7565b83811115612ce1576000848401525b50505050565b6000612cf282612c9b565b91506000821415612d0657612d05612dee565b5b600182039050919050565b60006002820490506001821680612d2957607f821691505b60208210811415612d3d57612d3c612e4c565b5b50919050565b612d4c82612eed565b810181811067ffffffffffffffff82111715612d6b57612d6a612eaa565b5b80604052505050565b6000612d7f82612c9b565b91507fffffffffffffffffffffffffffffffffffffffffffffffffffffffffffffffff821415612db257612db1612dee565b5b600182019050919050565b6000612dc882612c9b565b9150612dd383612c9b565b925082612de357612de2612e1d565b5b828206905092915050565b7f4e487b7100000000000000000000000000000000000000000000000000000000600052601160045260246000fd5b7f4e487b7100000000000000000000000000000000000000000000000000000000600052601260045260246000fd5b7f4e487b7100000000000000000000000000000000000000000000000000000000600052602260045260246000fd5b7f4e487b7100000000000000000000000000000000000000000000000000000000600052603260045260246000fd5b7f4e487b7100000000000000000000000000000000000000000000000000000000600052604160045260246000fd5b600080fd5b600080fd5b600080fd5b600080fd5b6000601f19601f8301169050919050565b7f537472696e67733a20686578206c656e67746820696e73756666696369656e74600082015250565b7f4552433732313a207472616e7366657220746f206e6f6e20455243373231526560008201527f63656976657220696d706c656d656e7465720000000000000000000000000000602082015250565b7f4552433732313a20746f6b656e20616c7265616479206d696e74656400000000600082015250565b7f4552433732313a207472616e7366657220746f20746865207a65726f2061646460008201527f7265737300000000000000000000000000000000000000000000000000000000602082015250565b7f4552433732313a20617070726f766520746f2063616c6c657200000000000000600082015250565b7f4552433732313a206f70657261746f7220717565727920666f72206e6f6e657860008201527f697374656e7420746f6b656e0000000000000000000000000000000000000000602082015250565b7f4552433732313a20617070726f76652063616c6c6572206973206e6f74206f7760008201527f6e6572206e6f7220617070726f76656420666f7220616c6c0000000000000000602082015250565b7f4552433732313a2062616c616e636520717565727920666f7220746865207a6560008201527f726f206164647265737300000000000000000000000000000000000000000000602082015250565b7f4552433732313a206f776e657220717565727920666f72206e6f6e657869737460008201527f656e7420746f6b656e0000000000000000000000000000000000000000000000602082015250565b7f4552433732313a206d696e7420746f20746865207a65726f2061646472657373600082015250565b7f45524337323155524953746f726167653a2055524920717565727920666f722060008201527f6e6f6e6578697374656e7420746f6b656e000000000000000000000000000000602082015250565b7f4552433732313a20617070726f76656420717565727920666f72206e6f6e657860008201527f697374656e7420746f6b656e0000000000000000000000000000000000000000602082015250565b7f4552433732313a207472616e73666572206f6620746f6b656e2074686174206960008201527f73206e6f74206f776e0000000000000000000000000000000000000000000000602082015250565b7f4552433732314d657461646174613a2055524920717565727920666f72206e6f60008201527f6e6578697374656e7420746f6b656e0000000000000000000000000000000000602082015250565b7f4552433732313a20617070726f76616c20746f2063757272656e74206f776e6560008201527f7200000000000000000000000000000000000000000000000000000000000000602082015250565b7f4552433732313a207472616e736665722063616c6c6572206973206e6f74206f60008201527f776e6572206e6f7220617070726f766564000000000000000000000000000000602082015250565b7f416363657373436f6e74726f6c3a206163636f756e7420000000000000000000600082015250565b7f206973206d697373696e6720726f6c6520000000000000000000000000000000600082015250565b7f416363657373436f6e74726f6c3a2063616e206f6e6c792072656e6f756e636560008201527f20726f6c657320666f722073656c660000000000000000000000000000000000602082015250565b61340081612c27565b811461340b57600080fd5b50565b61341781612c39565b811461342257600080fd5b50565b61342e81612c45565b811461343957600080fd5b50565b61344581612c4f565b811461345057600080fd5b50565b61345c81612c9b565b811461346757600080fd5b5056fea2646970667358221220aadc406230deea1b658675221798922eaa95d0c350ef77c40c7025fe24afcc8d64736f6c63430008070033",
  "immutableReferences": {},
  "source": "pragma solidity ^0.8.2;\n\nimport \"@openzeppelin/contracts/token/ERC721/ERC721.sol\";\nimport \"@openzeppelin/contracts/token/ERC721/extensions/ERC721URIStorage.sol\";\nimport \"@openzeppelin/contracts/access/AccessControl.sol\";\nimport \"@openzeppelin/contracts/utils/Counters.sol\";\n\ncontract AnbeShivamNFT is ERC721, ERC721URIStorage, AccessControl {\n    using Counters for Counters.Counter;\n\n    bytes32 public constant MINTER_ROLE = keccak256(\"MINTER_ROLE\");\n    Counters.Counter private _tokenIdCounter;\n\n    constructor() ERC721(\"AnbeShivamNFT\", \"ANBE\") {\n        _setupRole(DEFAULT_ADMIN_ROLE, msg.sender);\n        _setupRole(MINTER_ROLE, msg.sender);\n    }\n\n    function safeMint(address to) public onlyRole(MINTER_ROLE) {\n        _safeMint(to, _tokenIdCounter.current());\n        _tokenIdCounter.increment();\n    }\n\n\n    function _burn(uint256 tokenId) internal override(ERC721, ERC721URIStorage) {\n        super._burn(tokenId);\n    }\n\n    function tokenURI(uint256 tokenId)\n        public\n        view\n        override(ERC721, ERC721URIStorage)\n        returns (string memory)\n    {\n        return super.tokenURI(tokenId);\n    }\n\n    function supportsInterface(bytes4 interfaceId)\n        public\n        view\n        override(ERC721, AccessControl)\n        returns (bool)\n    {\n        return super.supportsInterface(interfaceId);\n    }\n}",
  "sourcePath": "/media/abhinav/Data/procjects/AnbeShivam/contracts/AnbeShivamNFT.sol",
  "compiler": {
    "name": "solc",
    "version": "0.8.7+commit.e28d00a7.Emscripten.clang"
  },
  "schemaVersion": "3.4.3",
  "updatedAt": "2021-09-26T17:05:41.337Z",
  "networkType": "ethereum",
  "devdoc": {
    "kind": "dev",
    "methods": {
      "approve(address,uint256)": {
        "details": "See {IERC721-approve}."
      },
      "balanceOf(address)": {
        "details": "See {IERC721-balanceOf}."
      },
      "getApproved(uint256)": {
        "details": "See {IERC721-getApproved}."
      },
      "getRoleAdmin(bytes32)": {
        "details": "Returns the admin role that controls `role`. See {grantRole} and {revokeRole}. To change a role's admin, use {_setRoleAdmin}."
      },
      "grantRole(bytes32,address)": {
        "details": "Grants `role` to `account`. If `account` had not been already granted `role`, emits a {RoleGranted} event. Requirements: - the caller must have ``role``'s admin role."
      },
      "hasRole(bytes32,address)": {
        "details": "Returns `true` if `account` has been granted `role`."
      },
      "isApprovedForAll(address,address)": {
        "details": "See {IERC721-isApprovedForAll}."
      },
      "name()": {
        "details": "See {IERC721Metadata-name}."
      },
      "ownerOf(uint256)": {
        "details": "See {IERC721-ownerOf}."
      },
      "renounceRole(bytes32,address)": {
        "details": "Revokes `role` from the calling account. Roles are often managed via {grantRole} and {revokeRole}: this function's purpose is to provide a mechanism for accounts to lose their privileges if they are compromised (such as when a trusted device is misplaced). If the calling account had been granted `role`, emits a {RoleRevoked} event. Requirements: - the caller must be `account`."
      },
      "revokeRole(bytes32,address)": {
        "details": "Revokes `role` from `account`. If `account` had been granted `role`, emits a {RoleRevoked} event. Requirements: - the caller must have ``role``'s admin role."
      },
      "safeTransferFrom(address,address,uint256)": {
        "details": "See {IERC721-safeTransferFrom}."
      },
      "safeTransferFrom(address,address,uint256,bytes)": {
        "details": "See {IERC721-safeTransferFrom}."
      },
      "setApprovalForAll(address,bool)": {
        "details": "See {IERC721-setApprovalForAll}."
      },
      "symbol()": {
        "details": "See {IERC721Metadata-symbol}."
      },
      "transferFrom(address,address,uint256)": {
        "details": "See {IERC721-transferFrom}."
      }
    },
    "version": 1
  },
  "userdoc": {
    "kind": "user",
    "methods": {},
    "version": 1
  }
}