{
  "contractName": "AnbeShivamMain",
  "abi": [
    {
      "inputs": [],
      "stateMutability": "nonpayable",
      "type": "constructor"
    },
    {
      "inputs": [
        {
          "internalType": "uint256",
          "name": "",
          "type": "uint256"
        }
      ],
      "name": "contents",
      "outputs": [
        {
          "internalType": "string",
          "name": "name",
          "type": "string"
        },
        {
          "internalType": "string",
          "name": "fileURL",
          "type": "string"
        },
        {
          "internalType": "address",
          "name": "creator",
          "type": "address"
        }
      ],
      "stateMutability": "view",
      "type": "function"
    },
    {
      "inputs": [
        {
          "internalType": "string",
          "name": "_name",
          "type": "string"
        },
        {
          "internalType": "string",
          "name": "_fileURL",
          "type": "string"
        }
      ],
      "name": "addContent",
      "outputs": [],
      "stateMutability": "nonpayable",
      "type": "function"
    }
  ],
  "bytecode": "0x608060405234801561001057600080fd5b50610753806100206000396000f3fe608060405234801561001057600080fd5b50600436106100365760003560e01c8063b5ecf9121461003b578063f761d0081461006d575b600080fd5b61005560048036038101906100509190610476565b610089565b604051610064939291906104eb565b60405180910390f35b610087600480360381019061008291906103fe565b6101f3565b005b6000818154811061009957600080fd5b90600052602060002090600302016000915090508060000180546100bc90610620565b80601f01602080910402602001604051908101604052809291908181526020018280546100e890610620565b80156101355780601f1061010a57610100808354040283529160200191610135565b820191906000526020600020905b81548152906001019060200180831161011857829003601f168201915b50505050509080600101805461014a90610620565b80601f016020809104026020016040519081016040528092919081815260200182805461017690610620565b80156101c35780601f10610198576101008083540402835291602001916101c3565b820191906000526020600020905b8154815290600101906020018083116101a657829003601f168201915b5050505050908060020160009054906101000a900473ffffffffffffffffffffffffffffffffffffffff16905083565b600060405180606001604052808481526020018381526020013373ffffffffffffffffffffffffffffffffffffffff168152509080600181540180825580915050600190039060005260206000209060030201600090919091909150600082015181600001908051906020019061026b9291906102d6565b5060208201518160010190805190602001906102889291906102d6565b5060408201518160020160006101000a81548173ffffffffffffffffffffffffffffffffffffffff021916908373ffffffffffffffffffffffffffffffffffffffff16021790555050505050565b8280546102e290610620565b90600052602060002090601f016020900481019282610304576000855561034b565b82601f1061031d57805160ff191683800117855561034b565b8280016001018555821561034b579182015b8281111561034a57825182559160200191906001019061032f565b5b509050610358919061035c565b5090565b5b8082111561037557600081600090555060010161035d565b5090565b600061038c61038784610555565b610530565b9050828152602081018484840111156103a8576103a76106e6565b5b6103b38482856105de565b509392505050565b600082601f8301126103d0576103cf6106e1565b5b81356103e0848260208601610379565b91505092915050565b6000813590506103f881610706565b92915050565b60008060408385031215610415576104146106f0565b5b600083013567ffffffffffffffff811115610433576104326106eb565b5b61043f858286016103bb565b925050602083013567ffffffffffffffff8111156104605761045f6106eb565b5b61046c858286016103bb565b9150509250929050565b60006020828403121561048c5761048b6106f0565b5b600061049a848285016103e9565b91505092915050565b6104ac816105a2565b82525050565b60006104bd82610586565b6104c78185610591565b93506104d78185602086016105ed565b6104e0816106f5565b840191505092915050565b6000606082019050818103600083015261050581866104b2565b9050818103602083015261051981856104b2565b905061052860408301846104a3565b949350505050565b600061053a61054b565b90506105468282610652565b919050565b6000604051905090565b600067ffffffffffffffff8211156105705761056f6106b2565b5b610579826106f5565b9050602081019050919050565b600081519050919050565b600082825260208201905092915050565b60006105ad826105b4565b9050919050565b600073ffffffffffffffffffffffffffffffffffffffff82169050919050565b6000819050919050565b82818337600083830152505050565b60005b8381101561060b5780820151818401526020810190506105f0565b8381111561061a576000848401525b50505050565b6000600282049050600182168061063857607f821691505b6020821081141561064c5761064b610683565b5b50919050565b61065b826106f5565b810181811067ffffffffffffffff8211171561067a576106796106b2565b5b80604052505050565b7f4e487b7100000000000000000000000000000000000000000000000000000000600052602260045260246000fd5b7f4e487b7100000000000000000000000000000000000000000000000000000000600052604160045260246000fd5b600080fd5b600080fd5b600080fd5b600080fd5b6000601f19601f8301169050919050565b61070f816105d4565b811461071a57600080fd5b5056fea2646970667358221220fe3a1de5c5336909ffd6f685598909f03df2f94eb79d6d5568a98d9d859f825664736f6c63430008070033",
  "immutableReferences": {},
  "source": "// SPDX-License-Identifier: MIT\r\npragma solidity >=0.4.22 <0.9.0;\r\n\r\ncontract AnbeShivamMain {\r\n\r\n    constructor() public {\r\n    }\r\n\r\n    struct Content {\r\n        string name;\r\n        string fileURL;\r\n        address creator;\r\n    }\r\n\r\n    Content[] public contents;\r\n\r\n    function addContent(string memory _name, string memory _fileURL) external {\r\n        contents.push(Content(_name, _fileURL, msg.sender));\r\n    } \r\n}\r\n",
  "sourcePath": "D:\\procjects\\AnbeShivam\\contracts\\AnbeShivamMain.sol",
  "compiler": {
    "name": "solc",
    "version": "0.8.7+commit.e28d00a7.Emscripten.clang"
  },
  "schemaVersion": "3.4.3",
  "updatedAt": "2021-09-17T10:31:23.149Z",
  "devdoc": {
    "kind": "dev",
    "methods": {},
    "version": 1
  },
  "userdoc": {
    "kind": "user",
    "methods": {},
    "version": 1
  }
}