{
  "contractName": "AnbeShivamMain",
  "abi": [
    {
      "inputs": [],
      "stateMutability": "nonpayable",
      "type": "constructor"
    },
    {
      "inputs": [
        {
          "internalType": "uint256",
          "name": "",
          "type": "uint256"
        }
      ],
      "name": "contents",
      "outputs": [
        {
          "internalType": "string",
          "name": "name",
          "type": "string"
        },
        {
          "internalType": "string",
          "name": "fileURL",
          "type": "string"
        },
        {
          "internalType": "address",
          "name": "owner",
          "type": "address"
        }
      ],
      "stateMutability": "view",
      "type": "function"
    },
    {
      "inputs": [
        {
          "internalType": "string",
          "name": "_name",
          "type": "string"
        },
        {
          "internalType": "string",
          "name": "_fileURL",
          "type": "string"
        }
      ],
      "name": "createContent",
      "outputs": [],
      "stateMutability": "nonpayable",
      "type": "function"
    }
  ],
  "bytecode": "0x608060405234801561001057600080fd5b5061080b806100206000396000f3fe608060405234801561001057600080fd5b50600436106100365760003560e01c8063a3f5fafd1461003b578063b5ecf91214610057575b600080fd5b6100556004803603810190610050919061040f565b610089565b005b610071600480360381019061006c9190610487565b61017d565b604051610080939291906104fc565b60405180910390f35b60008081548092919061009b90610694565b919050555060405180606001604052808381526020018281526020013373ffffffffffffffffffffffffffffffffffffffff168152506001600054815481106100e7576100e661073b565b5b906000526020600020906003020160008201518160000190805190602001906101119291906102e7565b50602082015181600101908051906020019061012e9291906102e7565b5060408201518160020160006101000a81548173ffffffffffffffffffffffffffffffffffffffff021916908373ffffffffffffffffffffffffffffffffffffffff1602179055509050505050565b6001818154811061018d57600080fd5b90600052602060002090600302016000915090508060000180546101b090610631565b80601f01602080910402602001604051908101604052809291908181526020018280546101dc90610631565b80156102295780601f106101fe57610100808354040283529160200191610229565b820191906000526020600020905b81548152906001019060200180831161020c57829003601f168201915b50505050509080600101805461023e90610631565b80601f016020809104026020016040519081016040528092919081815260200182805461026a90610631565b80156102b75780601f1061028c576101008083540402835291602001916102b7565b820191906000526020600020905b81548152906001019060200180831161029a57829003601f168201915b5050505050908060020160009054906101000a900473ffffffffffffffffffffffffffffffffffffffff16905083565b8280546102f390610631565b90600052602060002090601f016020900481019282610315576000855561035c565b82601f1061032e57805160ff191683800117855561035c565b8280016001018555821561035c579182015b8281111561035b578251825591602001919060010190610340565b5b509050610369919061036d565b5090565b5b8082111561038657600081600090555060010161036e565b5090565b600061039d61039884610566565b610541565b9050828152602081018484840111156103b9576103b861079e565b5b6103c48482856105ef565b509392505050565b600082601f8301126103e1576103e0610799565b5b81356103f184826020860161038a565b91505092915050565b600081359050610409816107be565b92915050565b60008060408385031215610426576104256107a8565b5b600083013567ffffffffffffffff811115610444576104436107a3565b5b610450858286016103cc565b925050602083013567ffffffffffffffff811115610471576104706107a3565b5b61047d858286016103cc565b9150509250929050565b60006020828403121561049d5761049c6107a8565b5b60006104ab848285016103fa565b91505092915050565b6104bd816105b3565b82525050565b60006104ce82610597565b6104d881856105a2565b93506104e88185602086016105fe565b6104f1816107ad565b840191505092915050565b6000606082019050818103600083015261051681866104c3565b9050818103602083015261052a81856104c3565b905061053960408301846104b4565b949350505050565b600061054b61055c565b90506105578282610663565b919050565b6000604051905090565b600067ffffffffffffffff8211156105815761058061076a565b5b61058a826107ad565b9050602081019050919050565b600081519050919050565b600082825260208201905092915050565b60006105be826105c5565b9050919050565b600073ffffffffffffffffffffffffffffffffffffffff82169050919050565b6000819050919050565b82818337600083830152505050565b60005b8381101561061c578082015181840152602081019050610601565b8381111561062b576000848401525b50505050565b6000600282049050600182168061064957607f821691505b6020821081141561065d5761065c61070c565b5b50919050565b61066c826107ad565b810181811067ffffffffffffffff8211171561068b5761068a61076a565b5b80604052505050565b600061069f826105e5565b91507fffffffffffffffffffffffffffffffffffffffffffffffffffffffffffffffff8214156106d2576106d16106dd565b5b600182019050919050565b7f4e487b7100000000000000000000000000000000000000000000000000000000600052601160045260246000fd5b7f4e487b7100000000000000000000000000000000000000000000000000000000600052602260045260246000fd5b7f4e487b7100000000000000000000000000000000000000000000000000000000600052603260045260246000fd5b7f4e487b7100000000000000000000000000000000000000000000000000000000600052604160045260246000fd5b600080fd5b600080fd5b600080fd5b600080fd5b6000601f19601f8301169050919050565b6107c7816105e5565b81146107d257600080fd5b5056fea264697066735822122032eb7cf2ccbb6203255e86832ac6ad9fdbd39daabd203469b892ed31676166b864736f6c63430008070033",
  "immutableReferences": {},
  "source": "// SPDX-License-Identifier: MIT\r\npragma solidity >=0.4.22 <0.9.0;\r\n\r\ncontract AnbeShivamMain {\r\n  constructor() public {\r\n  }\r\n\r\n  struct Content {\r\n    string name;\r\n    string fileURL;\r\n    address owner;\r\n  }\r\n\r\n  uint contentCount;\r\n  Content[] public contents;\r\n\r\n  function createContent(string memory _name, string memory _fileURL) external {\r\n    contentCount++;\r\n    contents[contentCount] = Content(_name, _fileURL, msg.sender);\r\n  } \r\n}\r\n",
  "sourcePath": "C:\\Users\\asus\\Desktop\\AnbeShivam\\contracts\\AnbeShivamMain.sol",
  "compiler": {
    "name": "solc",
    "version": "0.8.7+commit.e28d00a7.Emscripten.clang"
  },
  "schemaVersion": "3.4.3",
  "updatedAt": "2021-09-11T14:20:56.618Z",
  "devdoc": {
    "kind": "dev",
    "methods": {},
    "version": 1
  },
  "userdoc": {
    "kind": "user",
    "methods": {},
    "version": 1
  }
}