{
  "contractName": "AnbeShivamMain",
  "abi": [
    {
      "inputs": [],
      "stateMutability": "nonpayable",
      "type": "constructor"
    },
    {
      "inputs": [
        {
          "internalType": "uint256",
          "name": "",
          "type": "uint256"
        }
      ],
      "name": "contents",
      "outputs": [
        {
          "internalType": "string",
          "name": "name",
          "type": "string"
        },
        {
          "internalType": "string",
          "name": "fileURL",
          "type": "string"
        },
        {
          "internalType": "address",
          "name": "owner",
          "type": "address"
        }
      ],
      "stateMutability": "view",
      "type": "function"
    }
  ],
  "bytecode": "0x608060405234801561001057600080fd5b506103ea806100206000396000f3fe608060405234801561001057600080fd5b506004361061002b5760003560e01c8063b5ecf91214610030575b600080fd5b61004a600480360381019061004591906101e1565b610062565b60405161005993929190610256565b60405180910390f35b6000818154811061007257600080fd5b906000526020600020906003020160009150905080600001805461009590610326565b80601f01602080910402602001604051908101604052809291908181526020018280546100c190610326565b801561010e5780601f106100e35761010080835404028352916020019161010e565b820191906000526020600020905b8154815290600101906020018083116100f157829003601f168201915b50505050509080600101805461012390610326565b80601f016020809104026020016040519081016040528092919081815260200182805461014f90610326565b801561019c5780601f106101715761010080835404028352916020019161019c565b820191906000526020600020905b81548152906001019060200180831161017f57829003601f168201915b5050505050908060020160009054906101000a900473ffffffffffffffffffffffffffffffffffffffff16905083565b6000813590506101db8161039d565b92915050565b6000602082840312156101f7576101f6610387565b5b6000610205848285016101cc565b91505092915050565b610217816102b7565b82525050565b60006102288261029b565b61023281856102a6565b93506102428185602086016102f3565b61024b8161038c565b840191505092915050565b60006060820190508181036000830152610270818661021d565b90508181036020830152610284818561021d565b9050610293604083018461020e565b949350505050565b600081519050919050565b600082825260208201905092915050565b60006102c2826102c9565b9050919050565b600073ffffffffffffffffffffffffffffffffffffffff82169050919050565b6000819050919050565b60005b838110156103115780820151818401526020810190506102f6565b83811115610320576000848401525b50505050565b6000600282049050600182168061033e57607f821691505b6020821081141561035257610351610358565b5b50919050565b7f4e487b7100000000000000000000000000000000000000000000000000000000600052602260045260246000fd5b600080fd5b6000601f19601f8301169050919050565b6103a6816102e9565b81146103b157600080fd5b5056fea26469706673582212205f939c17351375a87da031c08fb0669390b01d76317dc95ff4800427c08ae11364736f6c63430008070033",
  "immutableReferences": {},
  "source": "// SPDX-License-Identifier: MIT\npragma solidity >=0.4.22 <0.9.0;\n\ncontract AnbeShivamMain {\n  constructor() public {\n  }\n\n  struct Content {\n    string name;\n    string fileURL;\n    address owner;\n  }\n\n  Content[] public contents;\n}\n",
  "sourcePath": "E:/CS/Online Courses/Blockchain course - cusat/mini-project/AnbeShivam/contracts/AnbeShivamMain.sol",
  "compiler": {
    "name": "solc",
    "version": "0.8.7+commit.e28d00a7.Emscripten.clang"
  },
  "schemaVersion": "3.4.1",
  "updatedAt": "2021-09-11T13:54:53.447Z",
  "devdoc": {
    "kind": "dev",
    "methods": {},
    "version": 1
  },
  "userdoc": {
    "kind": "user",
    "methods": {},
    "version": 1
  }
}