{
  "contractName": "AnbeShivamMain",
  "abi": [
    {
      "anonymous": false,
      "inputs": [
        {
          "indexed": true,
          "internalType": "address",
          "name": "previousOwner",
          "type": "address"
        },
        {
          "indexed": true,
          "internalType": "address",
          "name": "newOwner",
          "type": "address"
        }
      ],
      "name": "OwnershipTransferred",
      "type": "event"
    },
    {
      "anonymous": false,
      "inputs": [
        {
          "indexed": false,
          "internalType": "uint256",
          "name": "",
          "type": "uint256"
        },
        {
          "indexed": false,
          "internalType": "string",
          "name": "",
          "type": "string"
        },
        {
          "indexed": false,
          "internalType": "string",
          "name": "",
          "type": "string"
        }
      ],
      "name": "newContentAdded",
      "type": "event"
    },
    {
      "anonymous": false,
      "inputs": [
        {
          "indexed": false,
          "internalType": "uint256",
          "name": "",
          "type": "uint256"
        },
        {
          "indexed": false,
          "internalType": "uint256",
          "name": "",
          "type": "uint256"
        },
        {
          "indexed": false,
          "internalType": "address",
          "name": "",
          "type": "address"
        }
      ],
      "name": "projectFunded",
      "type": "event"
    },
    {
      "anonymous": false,
      "inputs": [
        {
          "components": [
            {
              "internalType": "uint256",
              "name": "id",
              "type": "uint256"
            },
            {
              "internalType": "uint256",
              "name": "receivedFunds",
              "type": "uint256"
            },
            {
              "internalType": "string",
              "name": "name",
              "type": "string"
            },
            {
              "internalType": "string",
              "name": "fileURL",
              "type": "string"
            },
            {
              "internalType": "address payable",
              "name": "creator",
              "type": "address"
            }
          ],
          "indexed": false,
          "internalType": "struct AnbeShivamMain.Content",
          "name": "",
          "type": "tuple"
        },
        {
          "indexed": false,
          "internalType": "address",
          "name": "",
          "type": "address"
        }
      ],
      "name": "viewedContent",
      "type": "event"
    },
    {
      "inputs": [],
      "name": "owner",
      "outputs": [
        {
          "internalType": "address",
          "name": "",
          "type": "address"
        }
      ],
      "stateMutability": "view",
      "type": "function"
    },
    {
      "inputs": [
        {
          "internalType": "uint256",
          "name": "",
          "type": "uint256"
        }
      ],
      "name": "projects",
      "outputs": [
        {
          "internalType": "string",
          "name": "",
          "type": "string"
        }
      ],
      "stateMutability": "view",
      "type": "function"
    },
    {
      "inputs": [],
      "name": "renounceOwnership",
      "outputs": [],
      "stateMutability": "nonpayable",
      "type": "function"
    },
    {
      "inputs": [
        {
          "internalType": "address",
          "name": "newOwner",
          "type": "address"
        }
      ],
      "name": "transferOwnership",
      "outputs": [],
      "stateMutability": "nonpayable",
      "type": "function"
    },
    {
      "inputs": [
        {
          "internalType": "address",
          "name": "_GODSContract",
          "type": "address"
        },
        {
          "internalType": "address",
          "name": "_NFTContract",
          "type": "address"
        }
      ],
      "name": "setContractAddresses",
      "outputs": [],
      "stateMutability": "nonpayable",
      "type": "function"
    },
    {
      "inputs": [],
      "name": "returnContentCount",
      "outputs": [
        {
          "internalType": "uint256",
          "name": "",
          "type": "uint256"
        }
      ],
      "stateMutability": "view",
      "type": "function"
    },
    {
      "inputs": [
        {
          "internalType": "uint256",
          "name": "_contentID",
          "type": "uint256"
        }
      ],
      "name": "returnContent",
      "outputs": [],
      "stateMutability": "nonpayable",
      "type": "function"
    },
    {
      "inputs": [
        {
          "internalType": "string",
          "name": "_name",
          "type": "string"
        },
        {
          "internalType": "string",
          "name": "_fileURL",
          "type": "string"
        }
      ],
      "name": "addContent",
      "outputs": [],
      "stateMutability": "nonpayable",
      "type": "function"
    },
    {
      "inputs": [
        {
          "internalType": "uint256",
          "name": "_contentID",
          "type": "uint256"
        },
        {
          "internalType": "string",
          "name": "_metadata",
          "type": "string"
        }
      ],
      "name": "investFunds",
      "outputs": [],
      "stateMutability": "payable",
      "type": "function"
    }
  ],
  "bytecode": "0x608060405234801561001057600080fd5b5061002d61002261003260201b60201c565b61003a60201b60201c565b6100fe565b600033905090565b60008060009054906101000a900473ffffffffffffffffffffffffffffffffffffffff169050816000806101000a81548173ffffffffffffffffffffffffffffffffffffffff021916908373ffffffffffffffffffffffffffffffffffffffff1602179055508173ffffffffffffffffffffffffffffffffffffffff168173ffffffffffffffffffffffffffffffffffffffff167f8be0079c531659141344cd1fd0a4f28419497f9722a3daafe3b4186f6b6457e060405160405180910390a35050565b6116368061010d6000396000f3fe6080604052600436106100865760003560e01c80638da5cb5b116100595780638da5cb5b14610133578063cd931e401461015e578063e6a122af14610187578063f2fde38b146101a3578063f761d008146101cc57610086565b8063107046bd1461008b578063715018a6146100c857806380230f60146100df578063805f1fa11461010a575b600080fd5b34801561009757600080fd5b506100b260048036038101906100ad9190610bd9565b6101f5565b6040516100bf9190610c9f565b60405180910390f35b3480156100d457600080fd5b506100dd610295565b005b3480156100eb57600080fd5b506100f461031d565b6040516101019190610cd0565b60405180910390f35b34801561011657600080fd5b50610131600480360381019061012c9190610bd9565b61032a565b005b34801561013f57600080fd5b50610148610387565b6040516101559190610d2c565b60405180910390f35b34801561016a57600080fd5b5061018560048036038101906101809190610d73565b6103b0565b005b6101a1600480360381019061019c9190610ee8565b6104b2565b005b3480156101af57600080fd5b506101ca60048036038101906101c59190610f44565b610730565b005b3480156101d857600080fd5b506101f360048036038101906101ee9190610f71565b610828565b005b6004602052806000526040600020600091509050805461021490611018565b80601f016020809104026020016040519081016040528092919081815260200182805461024090611018565b801561028d5780601f106102625761010080835404028352916020019161028d565b820191906000526020600020905b81548152906001019060200180831161027057829003601f168201915b505050505081565b61029d610a20565b73ffffffffffffffffffffffffffffffffffffffff166102bb610387565b73ffffffffffffffffffffffffffffffffffffffff1614610311576040517f08c379a000000000000000000000000000000000000000000000000000000000815260040161030890611096565b60405180910390fd5b61031b6000610a28565b565b6000600380549050905090565b7f31735d778b219a5b27dc737584eea719b853ecffd58023637b77127b5e23a0c36003828154811061035f5761035e6110b6565b5b90600052602060002090600502013360405161037c9291906112c4565b60405180910390a150565b60008060009054906101000a900473ffffffffffffffffffffffffffffffffffffffff16905090565b6103b8610a20565b73ffffffffffffffffffffffffffffffffffffffff166103d6610387565b73ffffffffffffffffffffffffffffffffffffffff161461042c576040517f08c379a000000000000000000000000000000000000000000000000000000000815260040161042390611096565b60405180910390fd5b81600160006101000a81548173ffffffffffffffffffffffffffffffffffffffff021916908373ffffffffffffffffffffffffffffffffffffffff16021790555080600260006101000a81548173ffffffffffffffffffffffffffffffffffffffff021916908373ffffffffffffffffffffffffffffffffffffffff1602179055505050565b6000341180156104cc575069d3c21bcecceda10000003411155b61050b576040517f08c379a000000000000000000000000000000000000000000000000000000000815260040161050290611340565b60405180910390fd5b34600383815481106105205761051f6110b6565b5b90600052602060002090600502016001016000828254610540919061138f565b925050819055506003828154811061055b5761055a6110b6565b5b906000526020600020906005020160040160009054906101000a900473ffffffffffffffffffffffffffffffffffffffff1673ffffffffffffffffffffffffffffffffffffffff166108fc349081150290604051600060405180830381858888f193505050501580156105d2573d6000803e3d6000fd5b50600160009054906101000a900473ffffffffffffffffffffffffffffffffffffffff1673ffffffffffffffffffffffffffffffffffffffff166340c10f1933346040518363ffffffff1660e01b81526004016106309291906113e5565b600060405180830381600087803b15801561064a57600080fd5b505af115801561065e573d6000803e3d6000fd5b50505050600260009054906101000a900473ffffffffffffffffffffffffffffffffffffffff1673ffffffffffffffffffffffffffffffffffffffff1663d204c45e33836040518363ffffffff1660e01b81526004016106bf92919061140e565b600060405180830381600087803b1580156106d957600080fd5b505af11580156106ed573d6000803e3d6000fd5b505050507f31f78011fdaa6f4db6e053d1e5b5340b2d48b1c14cedc616a5bde37c16415cf28234336040516107249392919061143e565b60405180910390a15050565b610738610a20565b73ffffffffffffffffffffffffffffffffffffffff16610756610387565b73ffffffffffffffffffffffffffffffffffffffff16146107ac576040517f08c379a00000000000000000000000000000000000000000000000000000000081526004016107a390611096565b60405180910390fd5b600073ffffffffffffffffffffffffffffffffffffffff168173ffffffffffffffffffffffffffffffffffffffff16141561081c576040517f08c379a0000000000000000000000000000000000000000000000000000000008152600401610813906114e7565b60405180910390fd5b61082581610a28565b50565b60036040518060a001604052806003805490508152602001600081526020018481526020018381526020013373ffffffffffffffffffffffffffffffffffffffff168152509080600181540180825580915050600190039060005260206000209060050201600090919091909150600082015181600001556020820151816001015560408201518160020190805190602001906108c6929190610aec565b5060608201518160030190805190602001906108e3929190610aec565b5060808201518160040160006101000a81548173ffffffffffffffffffffffffffffffffffffffff021916908373ffffffffffffffffffffffffffffffffffffffff1602179055505050816004600060016003805490506109449190611507565b81526020019081526020016000209080519060200190610965929190610aec565b507f9d052371d5508337cb778bebe3c70018c8e5eeb5c8c0899f00cffbda54f743e060016003805490506109999190611507565b600360016003805490506109ad9190611507565b815481106109be576109bd6110b6565b5b9060005260206000209060050201600201600360016003805490506109e39190611507565b815481106109f4576109f36110b6565b5b9060005260206000209060050201600301604051610a14939291906115bb565b60405180910390a15050565b600033905090565b60008060009054906101000a900473ffffffffffffffffffffffffffffffffffffffff169050816000806101000a81548173ffffffffffffffffffffffffffffffffffffffff021916908373ffffffffffffffffffffffffffffffffffffffff1602179055508173ffffffffffffffffffffffffffffffffffffffff168173ffffffffffffffffffffffffffffffffffffffff167f8be0079c531659141344cd1fd0a4f28419497f9722a3daafe3b4186f6b6457e060405160405180910390a35050565b828054610af890611018565b90600052602060002090601f016020900481019282610b1a5760008555610b61565b82601f10610b3357805160ff1916838001178555610b61565b82800160010185558215610b61579182015b82811115610b60578251825591602001919060010190610b45565b5b509050610b6e9190610b72565b5090565b5b80821115610b8b576000816000905550600101610b73565b5090565b6000604051905090565b600080fd5b600080fd5b6000819050919050565b610bb681610ba3565b8114610bc157600080fd5b50565b600081359050610bd381610bad565b92915050565b600060208284031215610bef57610bee610b99565b5b6000610bfd84828501610bc4565b91505092915050565b600081519050919050565b600082825260208201905092915050565b60005b83811015610c40578082015181840152602081019050610c25565b83811115610c4f576000848401525b50505050565b6000601f19601f8301169050919050565b6000610c7182610c06565b610c7b8185610c11565b9350610c8b818560208601610c22565b610c9481610c55565b840191505092915050565b60006020820190508181036000830152610cb98184610c66565b905092915050565b610cca81610ba3565b82525050565b6000602082019050610ce56000830184610cc1565b92915050565b600073ffffffffffffffffffffffffffffffffffffffff82169050919050565b6000610d1682610ceb565b9050919050565b610d2681610d0b565b82525050565b6000602082019050610d416000830184610d1d565b92915050565b610d5081610d0b565b8114610d5b57600080fd5b50565b600081359050610d6d81610d47565b92915050565b60008060408385031215610d8a57610d89610b99565b5b6000610d9885828601610d5e565b9250506020610da985828601610d5e565b9150509250929050565b600080fd5b600080fd5b7f4e487b7100000000000000000000000000000000000000000000000000000000600052604160045260246000fd5b610df582610c55565b810181811067ffffffffffffffff82111715610e1457610e13610dbd565b5b80604052505050565b6000610e27610b8f565b9050610e338282610dec565b919050565b600067ffffffffffffffff821115610e5357610e52610dbd565b5b610e5c82610c55565b9050602081019050919050565b82818337600083830152505050565b6000610e8b610e8684610e38565b610e1d565b905082815260208101848484011115610ea757610ea6610db8565b5b610eb2848285610e69565b509392505050565b600082601f830112610ecf57610ece610db3565b5b8135610edf848260208601610e78565b91505092915050565b60008060408385031215610eff57610efe610b99565b5b6000610f0d85828601610bc4565b925050602083013567ffffffffffffffff811115610f2e57610f2d610b9e565b5b610f3a85828601610eba565b9150509250929050565b600060208284031215610f5a57610f59610b99565b5b6000610f6884828501610d5e565b91505092915050565b60008060408385031215610f8857610f87610b99565b5b600083013567ffffffffffffffff811115610fa657610fa5610b9e565b5b610fb285828601610eba565b925050602083013567ffffffffffffffff811115610fd357610fd2610b9e565b5b610fdf85828601610eba565b9150509250929050565b7f4e487b7100000000000000000000000000000000000000000000000000000000600052602260045260246000fd5b6000600282049050600182168061103057607f821691505b6020821081141561104457611043610fe9565b5b50919050565b7f4f776e61626c653a2063616c6c6572206973206e6f7420746865206f776e6572600082015250565b6000611080602083610c11565b915061108b8261104a565b602082019050919050565b600060208201905081810360008301526110af81611073565b9050919050565b7f4e487b7100000000000000000000000000000000000000000000000000000000600052603260045260246000fd5b60008160001c9050919050565b6000819050919050565b600061110f61110a836110e5565b6110f2565b9050919050565b61111f81610ba3565b82525050565b600082825260208201905092915050565b60008190508160005260206000209050919050565b6000815461115881611018565b6111628186611125565b9450600182166000811461117d576001811461118f576111c2565b60ff19831686526020860193506111c2565b61119885611136565b60005b838110156111ba5781548189015260018201915060208101905061119b565b808801955050505b50505092915050565b600073ffffffffffffffffffffffffffffffffffffffff82169050919050565b60006111fe6111f9836110e5565b6111cb565b9050919050565b600061121082610ceb565b9050919050565b61122081611205565b82525050565b600060a08301600080840154905061123d816110fc565b61124a6000870182611116565b506001840154905061125b816110fc565b6112686020870182611116565b5060028401858303604087015261127f838261114b565b925050600384018583036060870152611298838261114b565b925050600484015490506112ab816111eb565b6112b86080870182611217565b50819250505092915050565b600060408201905081810360008301526112de8185611226565b90506112ed6020830184610d1d565b9392505050565b7f496e76616c696420616d6f756e74000000000000000000000000000000000000600082015250565b600061132a600e83610c11565b9150611335826112f4565b602082019050919050565b600060208201905081810360008301526113598161131d565b9050919050565b7f4e487b7100000000000000000000000000000000000000000000000000000000600052601160045260246000fd5b600061139a82610ba3565b91506113a583610ba3565b9250827fffffffffffffffffffffffffffffffffffffffffffffffffffffffffffffffff038211156113da576113d9611360565b5b828201905092915050565b60006040820190506113fa6000830185610d1d565b6114076020830184610cc1565b9392505050565b60006040820190506114236000830185610d1d565b81810360208301526114358184610c66565b90509392505050565b60006060820190506114536000830186610cc1565b6114606020830185610cc1565b61146d6040830184610d1d565b949350505050565b7f4f776e61626c653a206e6577206f776e657220697320746865207a65726f206160008201527f6464726573730000000000000000000000000000000000000000000000000000602082015250565b60006114d1602683610c11565b91506114dc82611475565b604082019050919050565b60006020820190508181036000830152611500816114c4565b9050919050565b600061151282610ba3565b915061151d83610ba3565b9250828210156115305761152f611360565b5b828203905092915050565b6000815461154881611018565b6115528186610c11565b9450600182166000811461156d576001811461157f576115b2565b60ff19831686526020860193506115b2565b61158885611136565b60005b838110156115aa5781548189015260018201915060208101905061158b565b808801955050505b50505092915050565b60006060820190506115d06000830186610cc1565b81810360208301526115e2818561153b565b905081810360408301526115f6818461153b565b905094935050505056fea2646970667358221220cfce8a7c44ab43421960a3034adf592ca23e8dd9c1a2b41f1d98e5941e19c6a064736f6c63430008090033",
  "immutableReferences": {},
  "source": "// SPDX-License-Identifier: MIT\r\npragma solidity >=0.4.22 <0.9.0;\r\n\r\nimport \"./AnbeShivamNFT.sol\";\r\nimport \"./AnbeShivamInvestorToken.sol\";\r\nimport \"@openzeppelin/contracts/access/Ownable.sol\";\r\n\r\ncontract AnbeShivamMain is Ownable {\r\n    address GODSContract;\r\n    address NFTContract;\r\n\r\n    struct Content {\r\n        uint id;\r\n        uint receivedFunds;\r\n        string name;\r\n        string fileURL;\r\n        address payable creator;\r\n    }\r\n\r\n    Content[] contents;\r\n\r\n    mapping(uint => string) public projects;\r\n\r\n    event newContentAdded(uint, string, string);\r\n    event viewedContent(Content, address);\r\n    event projectFunded(uint, uint, address);\r\n\r\n    function setContractAddresses(\r\n        address _GODSContract, \r\n        address _NFTContract\r\n    ) \r\n        external \r\n        onlyOwner \r\n    {\r\n        GODSContract = _GODSContract;\r\n        NFTContract = _NFTContract;\r\n    }\r\n\r\n    function returnContentCount() external view returns (uint) {\r\n        return contents.length;\r\n    }\r\n\r\n    function returnContent(uint _contentID) external {\r\n        emit viewedContent(contents[_contentID], msg.sender);\r\n    } \r\n\r\n    function addContent(string memory _name, string memory _fileURL) external {\r\n        contents.push(Content(contents.length, 0, _name, _fileURL, payable(msg.sender)));\r\n        projects[contents.length - 1] = _name;\r\n        emit newContentAdded(\r\n            contents.length - 1,\r\n            contents[contents.length - 1].name,\r\n            contents[contents.length - 1].fileURL\r\n        );\r\n    }\r\n\r\n    function investFunds(uint _contentID, string memory _metadata) external payable {\r\n        require(msg.value > 0 && msg.value <= 1000000 ether, \"Invalid amount\");\r\n        contents[_contentID].receivedFunds += msg.value;\r\n        contents[_contentID].creator.transfer(msg.value);\r\n        AnbeShivamInvestorToken(GODSContract).mint(msg.sender, msg.value);\r\n        AnbeShivamNFT(NFTContract).safeMint(msg.sender, _metadata);\r\n        emit projectFunded(_contentID, msg.value, msg.sender);\r\n    }\r\n}",
  "sourcePath": "D:\\Projects\\AnbeShivam\\contracts\\AnbeShivamMain.sol",
  "compiler": {
    "name": "solc",
    "version": "0.8.9+commit.e5eed63a.Emscripten.clang"
  },
  "schemaVersion": "3.4.3",
  "updatedAt": "2021-10-21T11:44:16.504Z",
  "devdoc": {
    "kind": "dev",
    "methods": {
      "owner()": {
        "details": "Returns the address of the current owner."
      },
      "renounceOwnership()": {
        "details": "Leaves the contract without owner. It will not be possible to call `onlyOwner` functions anymore. Can only be called by the current owner. NOTE: Renouncing ownership will leave the contract without an owner, thereby removing any functionality that is only available to the owner."
      },
      "transferOwnership(address)": {
        "details": "Transfers ownership of the contract to a new account (`newOwner`). Can only be called by the current owner."
      }
    },
    "version": 1
  },
  "userdoc": {
    "kind": "user",
    "methods": {},
    "version": 1
  }
}