{
  "contractName": "AnbeShivamMain",
  "abi": [
    {
      "anonymous": false,
      "inputs": [
        {
          "indexed": true,
          "internalType": "address",
          "name": "previousOwner",
          "type": "address"
        },
        {
          "indexed": true,
          "internalType": "address",
          "name": "newOwner",
          "type": "address"
        }
      ],
      "name": "OwnershipTransferred",
      "type": "event"
    },
    {
      "anonymous": false,
      "inputs": [
        {
          "indexed": false,
          "internalType": "uint256",
          "name": "",
          "type": "uint256"
        },
        {
          "indexed": false,
          "internalType": "string",
          "name": "",
          "type": "string"
        },
        {
          "indexed": false,
          "internalType": "string",
          "name": "",
          "type": "string"
        }
      ],
      "name": "newContentAdded",
      "type": "event"
    },
    {
      "anonymous": false,
      "inputs": [
        {
          "components": [
            {
              "internalType": "uint256",
              "name": "receivedFunds",
              "type": "uint256"
            },
            {
              "internalType": "string",
              "name": "name",
              "type": "string"
            },
            {
              "internalType": "string",
              "name": "fileURL",
              "type": "string"
            },
            {
              "internalType": "address payable",
              "name": "creator",
              "type": "address"
            }
          ],
          "indexed": false,
          "internalType": "struct AnbeShivamMain.Content",
          "name": "",
          "type": "tuple"
        },
        {
          "indexed": false,
          "internalType": "address",
          "name": "",
          "type": "address"
        }
      ],
      "name": "viewedContent",
      "type": "event"
    },
    {
      "inputs": [],
      "name": "owner",
      "outputs": [
        {
          "internalType": "address",
          "name": "",
          "type": "address"
        }
      ],
      "stateMutability": "view",
      "type": "function"
    },
    {
      "inputs": [],
      "name": "renounceOwnership",
      "outputs": [],
      "stateMutability": "nonpayable",
      "type": "function"
    },
    {
      "inputs": [
        {
          "internalType": "address",
          "name": "newOwner",
          "type": "address"
        }
      ],
      "name": "transferOwnership",
      "outputs": [],
      "stateMutability": "nonpayable",
      "type": "function"
    },
    {
      "inputs": [
        {
          "internalType": "address",
          "name": "_GODSContract",
          "type": "address"
        },
        {
          "internalType": "address",
          "name": "_NFTContract",
          "type": "address"
        }
      ],
      "name": "setContractAddresses",
      "outputs": [],
      "stateMutability": "nonpayable",
      "type": "function"
    },
    {
      "inputs": [],
      "name": "returnContentCount",
      "outputs": [
        {
          "internalType": "uint256",
          "name": "",
          "type": "uint256"
        }
      ],
      "stateMutability": "view",
      "type": "function"
    },
    {
      "inputs": [
        {
          "internalType": "uint256",
          "name": "_contentID",
          "type": "uint256"
        }
      ],
      "name": "returnContent",
      "outputs": [],
      "stateMutability": "nonpayable",
      "type": "function"
    },
    {
      "inputs": [
        {
          "internalType": "string",
          "name": "_name",
          "type": "string"
        },
        {
          "internalType": "string",
          "name": "_fileURL",
          "type": "string"
        }
      ],
      "name": "addContent",
      "outputs": [],
      "stateMutability": "nonpayable",
      "type": "function"
    },
    {
      "inputs": [
        {
          "internalType": "uint256",
          "name": "_contentID",
          "type": "uint256"
        },
        {
          "internalType": "string",
          "name": "_metadata",
          "type": "string"
        }
      ],
      "name": "investFunds",
      "outputs": [],
      "stateMutability": "payable",
      "type": "function"
    }
  ],
  "bytecode": "0x608060405234801561001057600080fd5b5061002d61002261003260201b60201c565b61003a60201b60201c565b6100fe565b600033905090565b60008060009054906101000a900473ffffffffffffffffffffffffffffffffffffffff169050816000806101000a81548173ffffffffffffffffffffffffffffffffffffffff021916908373ffffffffffffffffffffffffffffffffffffffff1602179055508173ffffffffffffffffffffffffffffffffffffffff168173ffffffffffffffffffffffffffffffffffffffff167f8be0079c531659141344cd1fd0a4f28419497f9722a3daafe3b4186f6b6457e060405160405180910390a35050565b6113898061010d6000396000f3fe60806040526004361061007b5760003560e01c8063cd931e401161004e578063cd931e4014610116578063e6a122af1461013f578063f2fde38b1461015b578063f761d008146101845761007b565b8063715018a61461008057806380230f6014610097578063805f1fa1146100c25780638da5cb5b146100eb575b600080fd5b34801561008c57600080fd5b506100956101ad565b005b3480156100a357600080fd5b506100ac610235565b6040516100b991906109de565b60405180910390f35b3480156100ce57600080fd5b506100e960048036038101906100e49190610a39565b610242565b005b3480156100f757600080fd5b5061010061029f565b60405161010d9190610aa7565b60405180910390f35b34801561012257600080fd5b5061013d60048036038101906101389190610aee565b6102c8565b005b61015960048036038101906101549190610c74565b6103ca565b005b34801561016757600080fd5b50610182600480360381019061017d9190610cd0565b6105b4565b005b34801561019057600080fd5b506101ab60048036038101906101a69190610cfd565b6106ac565b005b6101b5610856565b73ffffffffffffffffffffffffffffffffffffffff166101d361029f565b73ffffffffffffffffffffffffffffffffffffffff1614610229576040517f08c379a000000000000000000000000000000000000000000000000000000000815260040161022090610dd2565b60405180910390fd5b610233600061085e565b565b6000600380549050905090565b7f9752dd1a001f376248988b5c2a006a4cb28c6a813d30e59a98b454fb6c1caab06003828154811061027757610276610df2565b5b906000526020600020906004020133604051610294929190611043565b60405180910390a150565b60008060009054906101000a900473ffffffffffffffffffffffffffffffffffffffff16905090565b6102d0610856565b73ffffffffffffffffffffffffffffffffffffffff166102ee61029f565b73ffffffffffffffffffffffffffffffffffffffff1614610344576040517f08c379a000000000000000000000000000000000000000000000000000000000815260040161033b90610dd2565b60405180910390fd5b81600160006101000a81548173ffffffffffffffffffffffffffffffffffffffff021916908373ffffffffffffffffffffffffffffffffffffffff16021790555080600260006101000a81548173ffffffffffffffffffffffffffffffffffffffff021916908373ffffffffffffffffffffffffffffffffffffffff1602179055505050565b34600383815481106103df576103de610df2565b5b906000526020600020906004020160000160008282546103ff91906110a2565b925050819055506003828154811061041a57610419610df2565b5b906000526020600020906004020160030160009054906101000a900473ffffffffffffffffffffffffffffffffffffffff1673ffffffffffffffffffffffffffffffffffffffff166108fc349081150290604051600060405180830381858888f19350505050158015610491573d6000803e3d6000fd5b50600160009054906101000a900473ffffffffffffffffffffffffffffffffffffffff1673ffffffffffffffffffffffffffffffffffffffff166340c10f1933346040518363ffffffff1660e01b81526004016104ef9291906110f8565b600060405180830381600087803b15801561050957600080fd5b505af115801561051d573d6000803e3d6000fd5b50505050600260009054906101000a900473ffffffffffffffffffffffffffffffffffffffff1673ffffffffffffffffffffffffffffffffffffffff1663d204c45e33836040518363ffffffff1660e01b815260040161057e929190611198565b600060405180830381600087803b15801561059857600080fd5b505af11580156105ac573d6000803e3d6000fd5b505050505050565b6105bc610856565b73ffffffffffffffffffffffffffffffffffffffff166105da61029f565b73ffffffffffffffffffffffffffffffffffffffff1614610630576040517f08c379a000000000000000000000000000000000000000000000000000000000815260040161062790610dd2565b60405180910390fd5b600073ffffffffffffffffffffffffffffffffffffffff168173ffffffffffffffffffffffffffffffffffffffff1614156106a0576040517f08c379a00000000000000000000000000000000000000000000000000000000081526004016106979061123a565b60405180910390fd5b6106a98161085e565b50565b60036040518060800160405280600081526020018481526020018381526020013373ffffffffffffffffffffffffffffffffffffffff168152509080600181540180825580915050600190039060005260206000209060040201600090919091909150600082015181600001556020820151816001019080519060200190610735929190610922565b506040820151816002019080519060200190610752929190610922565b5060608201518160030160006101000a81548173ffffffffffffffffffffffffffffffffffffffff021916908373ffffffffffffffffffffffffffffffffffffffff16021790555050507f9d052371d5508337cb778bebe3c70018c8e5eeb5c8c0899f00cffbda54f743e060016003805490506107cf919061125a565b600360016003805490506107e3919061125a565b815481106107f4576107f3610df2565b5b906000526020600020906004020160010160036001600380549050610819919061125a565b8154811061082a57610829610df2565b5b906000526020600020906004020160020160405161084a9392919061130e565b60405180910390a15050565b600033905090565b60008060009054906101000a900473ffffffffffffffffffffffffffffffffffffffff169050816000806101000a81548173ffffffffffffffffffffffffffffffffffffffff021916908373ffffffffffffffffffffffffffffffffffffffff1602179055508173ffffffffffffffffffffffffffffffffffffffff168173ffffffffffffffffffffffffffffffffffffffff167f8be0079c531659141344cd1fd0a4f28419497f9722a3daafe3b4186f6b6457e060405160405180910390a35050565b82805461092e90610e90565b90600052602060002090601f0160209004810192826109505760008555610997565b82601f1061096957805160ff1916838001178555610997565b82800160010185558215610997579182015b8281111561099657825182559160200191906001019061097b565b5b5090506109a491906109a8565b5090565b5b808211156109c15760008160009055506001016109a9565b5090565b6000819050919050565b6109d8816109c5565b82525050565b60006020820190506109f360008301846109cf565b92915050565b6000604051905090565b600080fd5b600080fd5b610a16816109c5565b8114610a2157600080fd5b50565b600081359050610a3381610a0d565b92915050565b600060208284031215610a4f57610a4e610a03565b5b6000610a5d84828501610a24565b91505092915050565b600073ffffffffffffffffffffffffffffffffffffffff82169050919050565b6000610a9182610a66565b9050919050565b610aa181610a86565b82525050565b6000602082019050610abc6000830184610a98565b92915050565b610acb81610a86565b8114610ad657600080fd5b50565b600081359050610ae881610ac2565b92915050565b60008060408385031215610b0557610b04610a03565b5b6000610b1385828601610ad9565b9250506020610b2485828601610ad9565b9150509250929050565b600080fd5b600080fd5b6000601f19601f8301169050919050565b7f4e487b7100000000000000000000000000000000000000000000000000000000600052604160045260246000fd5b610b8182610b38565b810181811067ffffffffffffffff82111715610ba057610b9f610b49565b5b80604052505050565b6000610bb36109f9565b9050610bbf8282610b78565b919050565b600067ffffffffffffffff821115610bdf57610bde610b49565b5b610be882610b38565b9050602081019050919050565b82818337600083830152505050565b6000610c17610c1284610bc4565b610ba9565b905082815260208101848484011115610c3357610c32610b33565b5b610c3e848285610bf5565b509392505050565b600082601f830112610c5b57610c5a610b2e565b5b8135610c6b848260208601610c04565b91505092915050565b60008060408385031215610c8b57610c8a610a03565b5b6000610c9985828601610a24565b925050602083013567ffffffffffffffff811115610cba57610cb9610a08565b5b610cc685828601610c46565b9150509250929050565b600060208284031215610ce657610ce5610a03565b5b6000610cf484828501610ad9565b91505092915050565b60008060408385031215610d1457610d13610a03565b5b600083013567ffffffffffffffff811115610d3257610d31610a08565b5b610d3e85828601610c46565b925050602083013567ffffffffffffffff811115610d5f57610d5e610a08565b5b610d6b85828601610c46565b9150509250929050565b600082825260208201905092915050565b7f4f776e61626c653a2063616c6c6572206973206e6f7420746865206f776e6572600082015250565b6000610dbc602083610d75565b9150610dc782610d86565b602082019050919050565b60006020820190508181036000830152610deb81610daf565b9050919050565b7f4e487b7100000000000000000000000000000000000000000000000000000000600052603260045260246000fd5b60008160001c9050919050565b6000819050919050565b6000610e4b610e4683610e21565b610e2e565b9050919050565b610e5b816109c5565b82525050565b7f4e487b7100000000000000000000000000000000000000000000000000000000600052602260045260246000fd5b60006002820490506001821680610ea857607f821691505b60208210811415610ebc57610ebb610e61565b5b50919050565b600082825260208201905092915050565b60008190508160005260206000209050919050565b60008154610ef581610e90565b610eff8186610ec2565b94506001821660008114610f1a5760018114610f2c57610f5f565b60ff1983168652602086019350610f5f565b610f3585610ed3565b60005b83811015610f5757815481890152600182019150602081019050610f38565b808801955050505b50505092915050565b600073ffffffffffffffffffffffffffffffffffffffff82169050919050565b6000610f9b610f9683610e21565b610f68565b9050919050565b6000610fad82610a66565b9050919050565b610fbd81610fa2565b82525050565b6000608083016000808401549050610fda81610e38565b610fe76000870182610e52565b50600184018583036020870152610ffe8382610ee8565b9250506002840185830360408701526110178382610ee8565b9250506003840154905061102a81610f88565b6110376060870182610fb4565b50819250505092915050565b6000604082019050818103600083015261105d8185610fc3565b905061106c6020830184610a98565b9392505050565b7f4e487b7100000000000000000000000000000000000000000000000000000000600052601160045260246000fd5b60006110ad826109c5565b91506110b8836109c5565b9250827fffffffffffffffffffffffffffffffffffffffffffffffffffffffffffffffff038211156110ed576110ec611073565b5b828201905092915050565b600060408201905061110d6000830185610a98565b61111a60208301846109cf565b9392505050565b600081519050919050565b60005b8381101561114a57808201518184015260208101905061112f565b83811115611159576000848401525b50505050565b600061116a82611121565b6111748185610d75565b935061118481856020860161112c565b61118d81610b38565b840191505092915050565b60006040820190506111ad6000830185610a98565b81810360208301526111bf818461115f565b90509392505050565b7f4f776e61626c653a206e6577206f776e657220697320746865207a65726f206160008201527f6464726573730000000000000000000000000000000000000000000000000000602082015250565b6000611224602683610d75565b915061122f826111c8565b604082019050919050565b6000602082019050818103600083015261125381611217565b9050919050565b6000611265826109c5565b9150611270836109c5565b92508282101561128357611282611073565b5b828203905092915050565b6000815461129b81610e90565b6112a58186610d75565b945060018216600081146112c057600181146112d257611305565b60ff1983168652602086019350611305565b6112db85610ed3565b60005b838110156112fd578154818901526001820191506020810190506112de565b808801955050505b50505092915050565b600060608201905061132360008301866109cf565b8181036020830152611335818561128e565b90508181036040830152611349818461128e565b905094935050505056fea2646970667358221220f8fa44f03d5548b1728221e7fdbc31c070238211299864a7b0b41023786061fb64736f6c63430008090033",
  "immutableReferences": {},
  "source": "// SPDX-License-Identifier: MIT\npragma solidity >=0.4.22 <0.9.0;\n\nimport \"./AnbeShivamNFT.sol\";\nimport \"./AnbeShivamInvestorToken.sol\";\nimport \"@openzeppelin/contracts/access/Ownable.sol\";\n\ncontract AnbeShivamMain is Ownable {\n    address GODSContract;\n    address NFTContract;\n\n    struct Content {\n        uint receivedFunds;\n        string name;\n        string fileURL;\n        address payable creator;\n    }\n\n    Content[] contents;\n\n    event newContentAdded(uint, string, string);\n    event viewedContent(Content, address);\n\n    function setContractAddresses(\n        address _GODSContract, \n        address _NFTContract\n    ) \n        external \n        onlyOwner \n    {\n        GODSContract = _GODSContract;\n        NFTContract = _NFTContract;\n    }\n\n    function returnContentCount() external view returns (uint) {\n        return contents.length;\n    }\n\n    function returnContent(uint _contentID) external {\n        emit viewedContent(contents[_contentID], msg.sender);\n    } \n\n    function addContent(string memory _name, string memory _fileURL) external {\n        contents.push(Content(0, _name, _fileURL, payable(msg.sender)));\n        emit newContentAdded(\n            contents.length - 1,\n            contents[contents.length - 1].name,\n            contents[contents.length - 1].fileURL\n        );\n    }\n\n    function investFunds(uint _contentID, string memory _metadata) external payable {\n        contents[_contentID].receivedFunds += msg.value;\n        contents[_contentID].creator.transfer(msg.value);\n        AnbeShivamInvestorToken(GODSContract).mint(msg.sender, msg.value);\n        AnbeShivamNFT(NFTContract).safeMint(msg.sender, _metadata);\n    }\n}",
  "sourcePath": "/media/abhinav/Data/procjects/AnbeShivam/contracts/AnbeShivamMain.sol",
  "compiler": {
    "name": "solc",
    "version": "0.8.9+commit.e5eed63a.Emscripten.clang"
  },
  "schemaVersion": "3.4.3",
  "updatedAt": "2021-10-01T14:48:35.891Z",
  "devdoc": {
    "kind": "dev",
    "methods": {
      "owner()": {
        "details": "Returns the address of the current owner."
      },
      "renounceOwnership()": {
        "details": "Leaves the contract without owner. It will not be possible to call `onlyOwner` functions anymore. Can only be called by the current owner. NOTE: Renouncing ownership will leave the contract without an owner, thereby removing any functionality that is only available to the owner."
      },
      "transferOwnership(address)": {
        "details": "Transfers ownership of the contract to a new account (`newOwner`). Can only be called by the current owner."
      }
    },
    "version": 1
  },
  "userdoc": {
    "kind": "user",
    "methods": {},
    "version": 1
  }
}