{
  "contractName": "AnbeShivamNFT",
  "abi": [
    {
      "inputs": [],
      "stateMutability": "nonpayable",
      "type": "constructor"
    },
    {
      "anonymous": false,
      "inputs": [
        {
          "indexed": true,
          "internalType": "address",
          "name": "owner",
          "type": "address"
        },
        {
          "indexed": true,
          "internalType": "address",
          "name": "approved",
          "type": "address"
        },
        {
          "indexed": true,
          "internalType": "uint256",
          "name": "tokenId",
          "type": "uint256"
        }
      ],
      "name": "Approval",
      "type": "event"
    },
    {
      "anonymous": false,
      "inputs": [
        {
          "indexed": true,
          "internalType": "address",
          "name": "owner",
          "type": "address"
        },
        {
          "indexed": true,
          "internalType": "address",
          "name": "operator",
          "type": "address"
        },
        {
          "indexed": false,
          "internalType": "bool",
          "name": "approved",
          "type": "bool"
        }
      ],
      "name": "ApprovalForAll",
      "type": "event"
    },
    {
      "anonymous": false,
      "inputs": [
        {
          "indexed": true,
          "internalType": "bytes32",
          "name": "role",
          "type": "bytes32"
        },
        {
          "indexed": true,
          "internalType": "bytes32",
          "name": "previousAdminRole",
          "type": "bytes32"
        },
        {
          "indexed": true,
          "internalType": "bytes32",
          "name": "newAdminRole",
          "type": "bytes32"
        }
      ],
      "name": "RoleAdminChanged",
      "type": "event"
    },
    {
      "anonymous": false,
      "inputs": [
        {
          "indexed": true,
          "internalType": "bytes32",
          "name": "role",
          "type": "bytes32"
        },
        {
          "indexed": true,
          "internalType": "address",
          "name": "account",
          "type": "address"
        },
        {
          "indexed": true,
          "internalType": "address",
          "name": "sender",
          "type": "address"
        }
      ],
      "name": "RoleGranted",
      "type": "event"
    },
    {
      "anonymous": false,
      "inputs": [
        {
          "indexed": true,
          "internalType": "bytes32",
          "name": "role",
          "type": "bytes32"
        },
        {
          "indexed": true,
          "internalType": "address",
          "name": "account",
          "type": "address"
        },
        {
          "indexed": true,
          "internalType": "address",
          "name": "sender",
          "type": "address"
        }
      ],
      "name": "RoleRevoked",
      "type": "event"
    },
    {
      "anonymous": false,
      "inputs": [
        {
          "indexed": true,
          "internalType": "address",
          "name": "from",
          "type": "address"
        },
        {
          "indexed": true,
          "internalType": "address",
          "name": "to",
          "type": "address"
        },
        {
          "indexed": true,
          "internalType": "uint256",
          "name": "tokenId",
          "type": "uint256"
        }
      ],
      "name": "Transfer",
      "type": "event"
    },
    {
      "inputs": [],
      "name": "DEFAULT_ADMIN_ROLE",
      "outputs": [
        {
          "internalType": "bytes32",
          "name": "",
          "type": "bytes32"
        }
      ],
      "stateMutability": "view",
      "type": "function",
      "constant": true
    },
    {
      "inputs": [],
      "name": "MINTER_ROLE",
      "outputs": [
        {
          "internalType": "bytes32",
          "name": "",
          "type": "bytes32"
        }
      ],
      "stateMutability": "view",
      "type": "function",
      "constant": true
    },
    {
      "inputs": [
        {
          "internalType": "address",
          "name": "to",
          "type": "address"
        },
        {
          "internalType": "uint256",
          "name": "tokenId",
          "type": "uint256"
        }
      ],
      "name": "approve",
      "outputs": [],
      "stateMutability": "nonpayable",
      "type": "function"
    },
    {
      "inputs": [
        {
          "internalType": "uint256",
          "name": "",
          "type": "uint256"
        }
      ],
      "name": "badges",
      "outputs": [
        {
          "internalType": "uint256",
          "name": "tokenID",
          "type": "uint256"
        },
        {
          "internalType": "address",
          "name": "owner",
          "type": "address"
        }
      ],
      "stateMutability": "view",
      "type": "function",
      "constant": true
    },
    {
      "inputs": [
        {
          "internalType": "address",
          "name": "owner",
          "type": "address"
        }
      ],
      "name": "balanceOf",
      "outputs": [
        {
          "internalType": "uint256",
          "name": "",
          "type": "uint256"
        }
      ],
      "stateMutability": "view",
      "type": "function",
      "constant": true
    },
    {
      "inputs": [
        {
          "internalType": "uint256",
          "name": "tokenId",
          "type": "uint256"
        }
      ],
      "name": "getApproved",
      "outputs": [
        {
          "internalType": "address",
          "name": "",
          "type": "address"
        }
      ],
      "stateMutability": "view",
      "type": "function",
      "constant": true
    },
    {
      "inputs": [
        {
          "internalType": "bytes32",
          "name": "role",
          "type": "bytes32"
        }
      ],
      "name": "getRoleAdmin",
      "outputs": [
        {
          "internalType": "bytes32",
          "name": "",
          "type": "bytes32"
        }
      ],
      "stateMutability": "view",
      "type": "function",
      "constant": true
    },
    {
      "inputs": [
        {
          "internalType": "bytes32",
          "name": "role",
          "type": "bytes32"
        },
        {
          "internalType": "address",
          "name": "account",
          "type": "address"
        }
      ],
      "name": "grantRole",
      "outputs": [],
      "stateMutability": "nonpayable",
      "type": "function"
    },
    {
      "inputs": [
        {
          "internalType": "bytes32",
          "name": "role",
          "type": "bytes32"
        },
        {
          "internalType": "address",
          "name": "account",
          "type": "address"
        }
      ],
      "name": "hasRole",
      "outputs": [
        {
          "internalType": "bool",
          "name": "",
          "type": "bool"
        }
      ],
      "stateMutability": "view",
      "type": "function",
      "constant": true
    },
    {
      "inputs": [
        {
          "internalType": "address",
          "name": "owner",
          "type": "address"
        },
        {
          "internalType": "address",
          "name": "operator",
          "type": "address"
        }
      ],
      "name": "isApprovedForAll",
      "outputs": [
        {
          "internalType": "bool",
          "name": "",
          "type": "bool"
        }
      ],
      "stateMutability": "view",
      "type": "function",
      "constant": true
    },
    {
      "inputs": [],
      "name": "name",
      "outputs": [
        {
          "internalType": "string",
          "name": "",
          "type": "string"
        }
      ],
      "stateMutability": "view",
      "type": "function",
      "constant": true
    },
    {
      "inputs": [
        {
          "internalType": "uint256",
          "name": "tokenId",
          "type": "uint256"
        }
      ],
      "name": "ownerOf",
      "outputs": [
        {
          "internalType": "address",
          "name": "",
          "type": "address"
        }
      ],
      "stateMutability": "view",
      "type": "function",
      "constant": true
    },
    {
      "inputs": [
        {
          "internalType": "bytes32",
          "name": "role",
          "type": "bytes32"
        },
        {
          "internalType": "address",
          "name": "account",
          "type": "address"
        }
      ],
      "name": "renounceRole",
      "outputs": [],
      "stateMutability": "nonpayable",
      "type": "function"
    },
    {
      "inputs": [
        {
          "internalType": "bytes32",
          "name": "role",
          "type": "bytes32"
        },
        {
          "internalType": "address",
          "name": "account",
          "type": "address"
        }
      ],
      "name": "revokeRole",
      "outputs": [],
      "stateMutability": "nonpayable",
      "type": "function"
    },
    {
      "inputs": [
        {
          "internalType": "address",
          "name": "from",
          "type": "address"
        },
        {
          "internalType": "address",
          "name": "to",
          "type": "address"
        },
        {
          "internalType": "uint256",
          "name": "tokenId",
          "type": "uint256"
        }
      ],
      "name": "safeTransferFrom",
      "outputs": [],
      "stateMutability": "nonpayable",
      "type": "function"
    },
    {
      "inputs": [
        {
          "internalType": "address",
          "name": "from",
          "type": "address"
        },
        {
          "internalType": "address",
          "name": "to",
          "type": "address"
        },
        {
          "internalType": "uint256",
          "name": "tokenId",
          "type": "uint256"
        },
        {
          "internalType": "bytes",
          "name": "_data",
          "type": "bytes"
        }
      ],
      "name": "safeTransferFrom",
      "outputs": [],
      "stateMutability": "nonpayable",
      "type": "function"
    },
    {
      "inputs": [
        {
          "internalType": "address",
          "name": "operator",
          "type": "address"
        },
        {
          "internalType": "bool",
          "name": "approved",
          "type": "bool"
        }
      ],
      "name": "setApprovalForAll",
      "outputs": [],
      "stateMutability": "nonpayable",
      "type": "function"
    },
    {
      "inputs": [],
      "name": "symbol",
      "outputs": [
        {
          "internalType": "string",
          "name": "",
          "type": "string"
        }
      ],
      "stateMutability": "view",
      "type": "function",
      "constant": true
    },
    {
      "inputs": [
        {
          "internalType": "address",
          "name": "from",
          "type": "address"
        },
        {
          "internalType": "address",
          "name": "to",
          "type": "address"
        },
        {
          "internalType": "uint256",
          "name": "tokenId",
          "type": "uint256"
        }
      ],
      "name": "transferFrom",
      "outputs": [],
      "stateMutability": "nonpayable",
      "type": "function"
    },
    {
      "inputs": [],
      "name": "returnNFTCount",
      "outputs": [
        {
          "internalType": "uint256",
          "name": "",
          "type": "uint256"
        }
      ],
      "stateMutability": "view",
      "type": "function",
      "constant": true
    },
    {
      "inputs": [
        {
          "internalType": "address",
          "name": "_to",
          "type": "address"
        },
        {
          "internalType": "string",
          "name": "_tokenURI",
          "type": "string"
        }
      ],
      "name": "safeMint",
      "outputs": [],
      "stateMutability": "nonpayable",
      "type": "function"
    },
    {
      "inputs": [
        {
          "internalType": "uint256",
          "name": "tokenId",
          "type": "uint256"
        }
      ],
      "name": "tokenURI",
      "outputs": [
        {
          "internalType": "string",
          "name": "",
          "type": "string"
        }
      ],
      "stateMutability": "view",
      "type": "function",
      "constant": true
    },
    {
      "inputs": [
        {
          "internalType": "bytes4",
          "name": "interfaceId",
          "type": "bytes4"
        }
      ],
      "name": "supportsInterface",
      "outputs": [
        {
          "internalType": "bool",
          "name": "",
          "type": "bool"
        }
      ],
      "stateMutability": "view",
      "type": "function",
      "constant": true
    }
  ],
  "bytecode": "0x60806040523480156200001157600080fd5b506040518060400160405280600d81526020017f416e626553686976616d4e4654000000000000000000000000000000000000008152506040518060400160405280600481526020017f414e42450000000000000000000000000000000000000000000000000000000081525081600090805190602001906200009692919062000248565b508060019080519060200190620000af92919062000248565b505050620000c76000801b33620000cd60201b60201c565b6200035d565b620000df8282620000e360201b60201c565b5050565b620000f58282620001d560201b60201c565b620001d15760016007600084815260200190815260200160002060000160008373ffffffffffffffffffffffffffffffffffffffff1673ffffffffffffffffffffffffffffffffffffffff16815260200190815260200160002060006101000a81548160ff021916908315150217905550620001766200024060201b60201c565b73ffffffffffffffffffffffffffffffffffffffff168173ffffffffffffffffffffffffffffffffffffffff16837f2f8788117e7eff1d82e926ec794901d17c78024a50270940304540a733656f0d60405160405180910390a45b5050565b60006007600084815260200190815260200160002060000160008373ffffffffffffffffffffffffffffffffffffffff1673ffffffffffffffffffffffffffffffffffffffff16815260200190815260200160002060009054906101000a900460ff16905092915050565b600033905090565b828054620002569062000327565b90600052602060002090601f0160209004810192826200027a5760008555620002c6565b82601f106200029557805160ff1916838001178555620002c6565b82800160010185558215620002c6579182015b82811115620002c5578251825591602001919060010190620002a8565b5b509050620002d59190620002d9565b5090565b5b80821115620002f4576000816000905550600101620002da565b5090565b7f4e487b7100000000000000000000000000000000000000000000000000000000600052602260045260246000fd5b600060028204905060018216806200034057607f821691505b60208210811415620003575762000356620002f8565b5b50919050565b6138ff806200036d6000396000f3fe608060405234801561001057600080fd5b506004361061014d5760003560e01c806370a08231116100c3578063b88d4fde1161007c578063b88d4fde146103c3578063c87b56dd146103df578063d204c45e1461040f578063d53913931461042b578063d547741f14610449578063e985e9c5146104655761014d565b806370a08231146102da57806391d148541461030a57806395d89b411461033a57806398e36d8b14610358578063a217fddf14610389578063a22cb465146103a75761014d565b8063248a9ca311610115578063248a9ca3146102085780632f2ff15d1461023857806336568abe146102545780633ed6c81a1461027057806342842e0e1461028e5780636352211e146102aa5761014d565b806301ffc9a71461015257806306fdde0314610182578063081812fc146101a0578063095ea7b3146101d057806323b872dd146101ec575b600080fd5b61016c60048036038101906101679190612317565b610495565b604051610179919061235f565b60405180910390f35b61018a6104a7565b6040516101979190612413565b60405180910390f35b6101ba60048036038101906101b5919061246b565b610539565b6040516101c791906124d9565b60405180910390f35b6101ea60048036038101906101e59190612520565b6105be565b005b61020660048036038101906102019190612560565b6106d6565b005b610222600480360381019061021d91906125e9565b610736565b60405161022f9190612625565b60405180910390f35b610252600480360381019061024d9190612640565b610756565b005b61026e60048036038101906102699190612640565b61077f565b005b610278610802565b604051610285919061268f565b60405180910390f35b6102a860048036038101906102a39190612560565b610813565b005b6102c460048036038101906102bf919061246b565b610833565b6040516102d191906124d9565b60405180910390f35b6102f460048036038101906102ef91906126aa565b6108e5565b604051610301919061268f565b60405180910390f35b610324600480360381019061031f9190612640565b61099d565b604051610331919061235f565b60405180910390f35b610342610a08565b60405161034f9190612413565b60405180910390f35b610372600480360381019061036d919061246b565b610a9a565b6040516103809291906126d7565b60405180910390f35b610391610aee565b60405161039e9190612625565b60405180910390f35b6103c160048036038101906103bc919061272c565b610af5565b005b6103dd60048036038101906103d891906128a1565b610c76565b005b6103f960048036038101906103f4919061246b565b610cd8565b6040516104069190612413565b60405180910390f35b610429600480360381019061042491906129c5565b610cea565b005b610433610e03565b6040516104409190612625565b60405180910390f35b610463600480360381019061045e9190612640565b610e27565b005b61047f600480360381019061047a9190612a21565b610e50565b60405161048c919061235f565b60405180910390f35b60006104a082610ee4565b9050919050565b6060600080546104b690612a90565b80601f01602080910402602001604051908101604052809291908181526020018280546104e290612a90565b801561052f5780601f106105045761010080835404028352916020019161052f565b820191906000526020600020905b81548152906001019060200180831161051257829003601f168201915b5050505050905090565b600061054482610f5e565b610583576040517f08c379a000000000000000000000000000000000000000000000000000000000815260040161057a90612b34565b60405180910390fd5b6004600083815260200190815260200160002060009054906101000a900473ffffffffffffffffffffffffffffffffffffffff169050919050565b60006105c982610833565b90508073ffffffffffffffffffffffffffffffffffffffff168373ffffffffffffffffffffffffffffffffffffffff16141561063a576040517f08c379a000000000000000000000000000000000000000000000000000000000815260040161063190612bc6565b60405180910390fd5b8073ffffffffffffffffffffffffffffffffffffffff16610659610fca565b73ffffffffffffffffffffffffffffffffffffffff161480610688575061068781610682610fca565b610e50565b5b6106c7576040517f08c379a00000000000000000000000000000000000000000000000000000000081526004016106be90612c58565b60405180910390fd5b6106d18383610fd2565b505050565b6106e76106e1610fca565b8261108b565b610726576040517f08c379a000000000000000000000000000000000000000000000000000000000815260040161071d90612cea565b60405180910390fd5b610731838383611169565b505050565b600060076000838152602001908152602001600020600101549050919050565b61075f82610736565b6107708161076b610fca565b6113c5565b61077a8383611462565b505050565b610787610fca565b73ffffffffffffffffffffffffffffffffffffffff168173ffffffffffffffffffffffffffffffffffffffff16146107f4576040517f08c379a00000000000000000000000000000000000000000000000000000000081526004016107eb90612d7c565b60405180910390fd5b6107fe8282611543565b5050565b600061080e6008611625565b905090565b61082e83838360405180602001604052806000815250610c76565b505050565b6000806002600084815260200190815260200160002060009054906101000a900473ffffffffffffffffffffffffffffffffffffffff169050600073ffffffffffffffffffffffffffffffffffffffff168173ffffffffffffffffffffffffffffffffffffffff1614156108dc576040517f08c379a00000000000000000000000000000000000000000000000000000000081526004016108d390612e0e565b60405180910390fd5b80915050919050565b60008073ffffffffffffffffffffffffffffffffffffffff168273ffffffffffffffffffffffffffffffffffffffff161415610956576040517f08c379a000000000000000000000000000000000000000000000000000000000815260040161094d90612ea0565b60405180910390fd5b600360008373ffffffffffffffffffffffffffffffffffffffff1673ffffffffffffffffffffffffffffffffffffffff168152602001908152602001600020549050919050565b60006007600084815260200190815260200160002060000160008373ffffffffffffffffffffffffffffffffffffffff1673ffffffffffffffffffffffffffffffffffffffff16815260200190815260200160002060009054906101000a900460ff16905092915050565b606060018054610a1790612a90565b80601f0160208091040260200160405190810160405280929190818152602001828054610a4390612a90565b8015610a905780601f10610a6557610100808354040283529160200191610a90565b820191906000526020600020905b815481529060010190602001808311610a7357829003601f168201915b5050505050905090565b60098181548110610aaa57600080fd5b90600052602060002090600202016000915090508060000154908060010160009054906101000a900473ffffffffffffffffffffffffffffffffffffffff16905082565b6000801b81565b610afd610fca565b73ffffffffffffffffffffffffffffffffffffffff168273ffffffffffffffffffffffffffffffffffffffff161415610b6b576040517f08c379a0000000000000000000000000000000000000000000000000000000008152600401610b6290612f0c565b60405180910390fd5b8060056000610b78610fca565b73ffffffffffffffffffffffffffffffffffffffff1673ffffffffffffffffffffffffffffffffffffffff16815260200190815260200160002060008473ffffffffffffffffffffffffffffffffffffffff1673ffffffffffffffffffffffffffffffffffffffff16815260200190815260200160002060006101000a81548160ff0219169083151502179055508173ffffffffffffffffffffffffffffffffffffffff16610c25610fca565b73ffffffffffffffffffffffffffffffffffffffff167f17307eab39ab6107e8899845ad3d59bd9653f200f220920489ca2b5937696c3183604051610c6a919061235f565b60405180910390a35050565b610c87610c81610fca565b8361108b565b610cc6576040517f08c379a0000000000000000000000000000000000000000000000000000000008152600401610cbd90612cea565b60405180910390fd5b610cd284848484611633565b50505050565b6060610ce38261168f565b9050919050565b7f9f2df0fed2c77648de5860a4cc508cd0818c85b8b8a1ab4ceeef8d981c8956a6610d1c81610d17610fca565b6113c5565b610d2f83610d2a6008611625565b6117e1565b610d42610d3c6008611625565b836117ff565b60096040518060400160405280610d596008611625565b81526020018573ffffffffffffffffffffffffffffffffffffffff1681525090806001815401808255809150506001900390600052602060002090600202016000909190919091506000820151816000015560208201518160010160006101000a81548173ffffffffffffffffffffffffffffffffffffffff021916908373ffffffffffffffffffffffffffffffffffffffff1602179055505050610dfe6008611873565b505050565b7f9f2df0fed2c77648de5860a4cc508cd0818c85b8b8a1ab4ceeef8d981c8956a681565b610e3082610736565b610e4181610e3c610fca565b6113c5565b610e4b8383611543565b505050565b6000600560008473ffffffffffffffffffffffffffffffffffffffff1673ffffffffffffffffffffffffffffffffffffffff16815260200190815260200160002060008373ffffffffffffffffffffffffffffffffffffffff1673ffffffffffffffffffffffffffffffffffffffff16815260200190815260200160002060009054906101000a900460ff16905092915050565b60007f7965db0b000000000000000000000000000000000000000000000000000000007bffffffffffffffffffffffffffffffffffffffffffffffffffffffff1916827bffffffffffffffffffffffffffffffffffffffffffffffffffffffff19161480610f575750610f5682611889565b5b9050919050565b60008073ffffffffffffffffffffffffffffffffffffffff166002600084815260200190815260200160002060009054906101000a900473ffffffffffffffffffffffffffffffffffffffff1673ffffffffffffffffffffffffffffffffffffffff1614159050919050565b600033905090565b816004600083815260200190815260200160002060006101000a81548173ffffffffffffffffffffffffffffffffffffffff021916908373ffffffffffffffffffffffffffffffffffffffff160217905550808273ffffffffffffffffffffffffffffffffffffffff1661104583610833565b73ffffffffffffffffffffffffffffffffffffffff167f8c5be1e5ebec7d5bd14f71427d1e84f3dd0314c0f7b2291e5b200ac8c7c3b92560405160405180910390a45050565b600061109682610f5e565b6110d5576040517f08c379a00000000000000000000000000000000000000000000000000000000081526004016110cc90612f9e565b60405180910390fd5b60006110e083610833565b90508073ffffffffffffffffffffffffffffffffffffffff168473ffffffffffffffffffffffffffffffffffffffff16148061114f57508373ffffffffffffffffffffffffffffffffffffffff1661113784610539565b73ffffffffffffffffffffffffffffffffffffffff16145b80611160575061115f8185610e50565b5b91505092915050565b8273ffffffffffffffffffffffffffffffffffffffff1661118982610833565b73ffffffffffffffffffffffffffffffffffffffff16146111df576040517f08c379a00000000000000000000000000000000000000000000000000000000081526004016111d690613030565b60405180910390fd5b600073ffffffffffffffffffffffffffffffffffffffff168273ffffffffffffffffffffffffffffffffffffffff16141561124f576040517f08c379a0000000000000000000000000000000000000000000000000000000008152600401611246906130c2565b60405180910390fd5b61125a83838361196b565b611265600082610fd2565b6001600360008573ffffffffffffffffffffffffffffffffffffffff1673ffffffffffffffffffffffffffffffffffffffff16815260200190815260200160002060008282546112b59190613111565b925050819055506001600360008473ffffffffffffffffffffffffffffffffffffffff1673ffffffffffffffffffffffffffffffffffffffff168152602001908152602001600020600082825461130c9190613145565b92505081905550816002600083815260200190815260200160002060006101000a81548173ffffffffffffffffffffffffffffffffffffffff021916908373ffffffffffffffffffffffffffffffffffffffff160217905550808273ffffffffffffffffffffffffffffffffffffffff168473ffffffffffffffffffffffffffffffffffffffff167fddf252ad1be2c89b69c2b068fc378daa952ba7f163c4a11628f55a4df523b3ef60405160405180910390a4505050565b6113cf828261099d565b61145e576113f48173ffffffffffffffffffffffffffffffffffffffff166014611970565b6114028360001c6020611970565b60405160200161141392919061326f565b6040516020818303038152906040526040517f08c379a00000000000000000000000000000000000000000000000000000000081526004016114559190612413565b60405180910390fd5b5050565b61146c828261099d565b61153f5760016007600084815260200190815260200160002060000160008373ffffffffffffffffffffffffffffffffffffffff1673ffffffffffffffffffffffffffffffffffffffff16815260200190815260200160002060006101000a81548160ff0219169083151502179055506114e4610fca565b73ffffffffffffffffffffffffffffffffffffffff168173ffffffffffffffffffffffffffffffffffffffff16837f2f8788117e7eff1d82e926ec794901d17c78024a50270940304540a733656f0d60405160405180910390a45b5050565b61154d828261099d565b156116215760006007600084815260200190815260200160002060000160008373ffffffffffffffffffffffffffffffffffffffff1673ffffffffffffffffffffffffffffffffffffffff16815260200190815260200160002060006101000a81548160ff0219169083151502179055506115c6610fca565b73ffffffffffffffffffffffffffffffffffffffff168173ffffffffffffffffffffffffffffffffffffffff16837ff6391f5c32d9c69d2a47ea670b442974b53935d1edc7fd64eb21e047a839171b60405160405180910390a45b5050565b600081600001549050919050565b61163e848484611169565b61164a84848484611bac565b611689576040517f08c379a00000000000000000000000000000000000000000000000000000000081526004016116809061331b565b60405180910390fd5b50505050565b606061169a82610f5e565b6116d9576040517f08c379a00000000000000000000000000000000000000000000000000000000081526004016116d0906133ad565b60405180910390fd5b60006006600084815260200190815260200160002080546116f990612a90565b80601f016020809104026020016040519081016040528092919081815260200182805461172590612a90565b80156117725780601f1061174757610100808354040283529160200191611772565b820191906000526020600020905b81548152906001019060200180831161175557829003601f168201915b505050505090506000611783611d43565b90506000815114156117995781925050506117dc565b6000825111156117ce5780826040516020016117b69291906133cd565b604051602081830303815290604052925050506117dc565b6117d784611d5a565b925050505b919050565b6117fb828260405180602001604052806000815250611e01565b5050565b61180882610f5e565b611847576040517f08c379a000000000000000000000000000000000000000000000000000000000815260040161183e90613463565b60405180910390fd5b8060066000848152602001908152602001600020908051906020019061186e929190612208565b505050565b6001816000016000828254019250508190555050565b60007f80ac58cd000000000000000000000000000000000000000000000000000000007bffffffffffffffffffffffffffffffffffffffffffffffffffffffff1916827bffffffffffffffffffffffffffffffffffffffffffffffffffffffff1916148061195457507f5b5e139f000000000000000000000000000000000000000000000000000000007bffffffffffffffffffffffffffffffffffffffffffffffffffffffff1916827bffffffffffffffffffffffffffffffffffffffffffffffffffffffff1916145b80611964575061196382611e5c565b5b9050919050565b505050565b6060600060028360026119839190613483565b61198d9190613145565b67ffffffffffffffff8111156119a6576119a5612776565b5b6040519080825280601f01601f1916602001820160405280156119d85781602001600182028036833780820191505090505b5090507f300000000000000000000000000000000000000000000000000000000000000081600081518110611a1057611a0f6134dd565b5b60200101907effffffffffffffffffffffffffffffffffffffffffffffffffffffffffffff1916908160001a9053507f780000000000000000000000000000000000000000000000000000000000000081600181518110611a7457611a736134dd565b5b60200101907effffffffffffffffffffffffffffffffffffffffffffffffffffffffffffff1916908160001a90535060006001846002611ab49190613483565b611abe9190613145565b90505b6001811115611b5e577f3031323334353637383961626364656600000000000000000000000000000000600f861660108110611b0057611aff6134dd565b5b1a60f81b828281518110611b1757611b166134dd565b5b60200101907effffffffffffffffffffffffffffffffffffffffffffffffffffffffffffff1916908160001a905350600485901c945080611b579061350c565b9050611ac1565b5060008414611ba2576040517f08c379a0000000000000000000000000000000000000000000000000000000008152600401611b9990613582565b60405180910390fd5b8091505092915050565b6000611bcd8473ffffffffffffffffffffffffffffffffffffffff16611ec6565b15611d36578373ffffffffffffffffffffffffffffffffffffffff1663150b7a02611bf6610fca565b8786866040518563ffffffff1660e01b8152600401611c1894939291906135f7565b602060405180830381600087803b158015611c3257600080fd5b505af1925050508015611c6357506040513d601f19601f82011682018060405250810190611c609190613658565b60015b611ce6573d8060008114611c93576040519150601f19603f3d011682016040523d82523d6000602084013e611c98565b606091505b50600081511415611cde576040517f08c379a0000000000000000000000000000000000000000000000000000000008152600401611cd59061331b565b60405180910390fd5b805181602001fd5b63150b7a0260e01b7bffffffffffffffffffffffffffffffffffffffffffffffffffffffff1916817bffffffffffffffffffffffffffffffffffffffffffffffffffffffff191614915050611d3b565b600190505b949350505050565b606060405180602001604052806000815250905090565b6060611d6582610f5e565b611da4576040517f08c379a0000000000000000000000000000000000000000000000000000000008152600401611d9b906136f7565b60405180910390fd5b6000611dae611d43565b90506000815111611dce5760405180602001604052806000815250611df9565b80611dd884611ed9565b604051602001611de99291906133cd565b6040516020818303038152906040525b915050919050565b611e0b838361203a565b611e186000848484611bac565b611e57576040517f08c379a0000000000000000000000000000000000000000000000000000000008152600401611e4e9061331b565b60405180910390fd5b505050565b60007f01ffc9a7000000000000000000000000000000000000000000000000000000007bffffffffffffffffffffffffffffffffffffffffffffffffffffffff1916827bffffffffffffffffffffffffffffffffffffffffffffffffffffffff1916149050919050565b600080823b905060008111915050919050565b60606000821415611f21576040518060400160405280600181526020017f30000000000000000000000000000000000000000000000000000000000000008152509050612035565b600082905060005b60008214611f53578080611f3c90613717565b915050600a82611f4c919061378f565b9150611f29565b60008167ffffffffffffffff811115611f6f57611f6e612776565b5b6040519080825280601f01601f191660200182016040528015611fa15781602001600182028036833780820191505090505b5090505b6000851461202e57600182611fba9190613111565b9150600a85611fc991906137c0565b6030611fd59190613145565b60f81b818381518110611feb57611fea6134dd565b5b60200101907effffffffffffffffffffffffffffffffffffffffffffffffffffffffffffff1916908160001a905350600a85612027919061378f565b9450611fa5565b8093505050505b919050565b600073ffffffffffffffffffffffffffffffffffffffff168273ffffffffffffffffffffffffffffffffffffffff1614156120aa576040517f08c379a00000000000000000000000000000000000000000000000000000000081526004016120a19061383d565b60405180910390fd5b6120b381610f5e565b156120f3576040517f08c379a00000000000000000000000000000000000000000000000000000000081526004016120ea906138a9565b60405180910390fd5b6120ff6000838361196b565b6001600360008473ffffffffffffffffffffffffffffffffffffffff1673ffffffffffffffffffffffffffffffffffffffff168152602001908152602001600020600082825461214f9190613145565b92505081905550816002600083815260200190815260200160002060006101000a81548173ffffffffffffffffffffffffffffffffffffffff021916908373ffffffffffffffffffffffffffffffffffffffff160217905550808273ffffffffffffffffffffffffffffffffffffffff16600073ffffffffffffffffffffffffffffffffffffffff167fddf252ad1be2c89b69c2b068fc378daa952ba7f163c4a11628f55a4df523b3ef60405160405180910390a45050565b82805461221490612a90565b90600052602060002090601f016020900481019282612236576000855561227d565b82601f1061224f57805160ff191683800117855561227d565b8280016001018555821561227d579182015b8281111561227c578251825591602001919060010190612261565b5b50905061228a919061228e565b5090565b5b808211156122a757600081600090555060010161228f565b5090565b6000604051905090565b600080fd5b600080fd5b60007fffffffff0000000000000000000000000000000000000000000000000000000082169050919050565b6122f4816122bf565b81146122ff57600080fd5b50565b600081359050612311816122eb565b92915050565b60006020828403121561232d5761232c6122b5565b5b600061233b84828501612302565b91505092915050565b60008115159050919050565b61235981612344565b82525050565b60006020820190506123746000830184612350565b92915050565b600081519050919050565b600082825260208201905092915050565b60005b838110156123b4578082015181840152602081019050612399565b838111156123c3576000848401525b50505050565b6000601f19601f8301169050919050565b60006123e58261237a565b6123ef8185612385565b93506123ff818560208601612396565b612408816123c9565b840191505092915050565b6000602082019050818103600083015261242d81846123da565b905092915050565b6000819050919050565b61244881612435565b811461245357600080fd5b50565b6000813590506124658161243f565b92915050565b600060208284031215612481576124806122b5565b5b600061248f84828501612456565b91505092915050565b600073ffffffffffffffffffffffffffffffffffffffff82169050919050565b60006124c382612498565b9050919050565b6124d3816124b8565b82525050565b60006020820190506124ee60008301846124ca565b92915050565b6124fd816124b8565b811461250857600080fd5b50565b60008135905061251a816124f4565b92915050565b60008060408385031215612537576125366122b5565b5b60006125458582860161250b565b925050602061255685828601612456565b9150509250929050565b600080600060608486031215612579576125786122b5565b5b60006125878682870161250b565b93505060206125988682870161250b565b92505060406125a986828701612456565b9150509250925092565b6000819050919050565b6125c6816125b3565b81146125d157600080fd5b50565b6000813590506125e3816125bd565b92915050565b6000602082840312156125ff576125fe6122b5565b5b600061260d848285016125d4565b91505092915050565b61261f816125b3565b82525050565b600060208201905061263a6000830184612616565b92915050565b60008060408385031215612657576126566122b5565b5b6000612665858286016125d4565b92505060206126768582860161250b565b9150509250929050565b61268981612435565b82525050565b60006020820190506126a46000830184612680565b92915050565b6000602082840312156126c0576126bf6122b5565b5b60006126ce8482850161250b565b91505092915050565b60006040820190506126ec6000830185612680565b6126f960208301846124ca565b9392505050565b61270981612344565b811461271457600080fd5b50565b60008135905061272681612700565b92915050565b60008060408385031215612743576127426122b5565b5b60006127518582860161250b565b925050602061276285828601612717565b9150509250929050565b600080fd5b600080fd5b7f4e487b7100000000000000000000000000000000000000000000000000000000600052604160045260246000fd5b6127ae826123c9565b810181811067ffffffffffffffff821117156127cd576127cc612776565b5b80604052505050565b60006127e06122ab565b90506127ec82826127a5565b919050565b600067ffffffffffffffff82111561280c5761280b612776565b5b612815826123c9565b9050602081019050919050565b82818337600083830152505050565b600061284461283f846127f1565b6127d6565b9050828152602081018484840111156128605761285f612771565b5b61286b848285612822565b509392505050565b600082601f8301126128885761288761276c565b5b8135612898848260208601612831565b91505092915050565b600080600080608085870312156128bb576128ba6122b5565b5b60006128c98782880161250b565b94505060206128da8782880161250b565b93505060406128eb87828801612456565b925050606085013567ffffffffffffffff81111561290c5761290b6122ba565b5b61291887828801612873565b91505092959194509250565b600067ffffffffffffffff82111561293f5761293e612776565b5b612948826123c9565b9050602081019050919050565b600061296861296384612924565b6127d6565b90508281526020810184848401111561298457612983612771565b5b61298f848285612822565b509392505050565b600082601f8301126129ac576129ab61276c565b5b81356129bc848260208601612955565b91505092915050565b600080604083850312156129dc576129db6122b5565b5b60006129ea8582860161250b565b925050602083013567ffffffffffffffff811115612a0b57612a0a6122ba565b5b612a1785828601612997565b9150509250929050565b60008060408385031215612a3857612a376122b5565b5b6000612a468582860161250b565b9250506020612a578582860161250b565b9150509250929050565b7f4e487b7100000000000000000000000000000000000000000000000000000000600052602260045260246000fd5b60006002820490506001821680612aa857607f821691505b60208210811415612abc57612abb612a61565b5b50919050565b7f4552433732313a20617070726f76656420717565727920666f72206e6f6e657860008201527f697374656e7420746f6b656e0000000000000000000000000000000000000000602082015250565b6000612b1e602c83612385565b9150612b2982612ac2565b604082019050919050565b60006020820190508181036000830152612b4d81612b11565b9050919050565b7f4552433732313a20617070726f76616c20746f2063757272656e74206f776e6560008201527f7200000000000000000000000000000000000000000000000000000000000000602082015250565b6000612bb0602183612385565b9150612bbb82612b54565b604082019050919050565b60006020820190508181036000830152612bdf81612ba3565b9050919050565b7f4552433732313a20617070726f76652063616c6c6572206973206e6f74206f7760008201527f6e6572206e6f7220617070726f76656420666f7220616c6c0000000000000000602082015250565b6000612c42603883612385565b9150612c4d82612be6565b604082019050919050565b60006020820190508181036000830152612c7181612c35565b9050919050565b7f4552433732313a207472616e736665722063616c6c6572206973206e6f74206f60008201527f776e6572206e6f7220617070726f766564000000000000000000000000000000602082015250565b6000612cd4603183612385565b9150612cdf82612c78565b604082019050919050565b60006020820190508181036000830152612d0381612cc7565b9050919050565b7f416363657373436f6e74726f6c3a2063616e206f6e6c792072656e6f756e636560008201527f20726f6c657320666f722073656c660000000000000000000000000000000000602082015250565b6000612d66602f83612385565b9150612d7182612d0a565b604082019050919050565b60006020820190508181036000830152612d9581612d59565b9050919050565b7f4552433732313a206f776e657220717565727920666f72206e6f6e657869737460008201527f656e7420746f6b656e0000000000000000000000000000000000000000000000602082015250565b6000612df8602983612385565b9150612e0382612d9c565b604082019050919050565b60006020820190508181036000830152612e2781612deb565b9050919050565b7f4552433732313a2062616c616e636520717565727920666f7220746865207a6560008201527f726f206164647265737300000000000000000000000000000000000000000000602082015250565b6000612e8a602a83612385565b9150612e9582612e2e565b604082019050919050565b60006020820190508181036000830152612eb981612e7d565b9050919050565b7f4552433732313a20617070726f766520746f2063616c6c657200000000000000600082015250565b6000612ef6601983612385565b9150612f0182612ec0565b602082019050919050565b60006020820190508181036000830152612f2581612ee9565b9050919050565b7f4552433732313a206f70657261746f7220717565727920666f72206e6f6e657860008201527f697374656e7420746f6b656e0000000000000000000000000000000000000000602082015250565b6000612f88602c83612385565b9150612f9382612f2c565b604082019050919050565b60006020820190508181036000830152612fb781612f7b565b9050919050565b7f4552433732313a207472616e73666572206f6620746f6b656e2074686174206960008201527f73206e6f74206f776e0000000000000000000000000000000000000000000000602082015250565b600061301a602983612385565b915061302582612fbe565b604082019050919050565b600060208201905081810360008301526130498161300d565b9050919050565b7f4552433732313a207472616e7366657220746f20746865207a65726f2061646460008201527f7265737300000000000000000000000000000000000000000000000000000000602082015250565b60006130ac602483612385565b91506130b782613050565b604082019050919050565b600060208201905081810360008301526130db8161309f565b9050919050565b7f4e487b7100000000000000000000000000000000000000000000000000000000600052601160045260246000fd5b600061311c82612435565b915061312783612435565b92508282101561313a576131396130e2565b5b828203905092915050565b600061315082612435565b915061315b83612435565b9250827fffffffffffffffffffffffffffffffffffffffffffffffffffffffffffffffff038211156131905761318f6130e2565b5b828201905092915050565b600081905092915050565b7f416363657373436f6e74726f6c3a206163636f756e7420000000000000000000600082015250565b60006131dc60178361319b565b91506131e7826131a6565b601782019050919050565b60006131fd8261237a565b613207818561319b565b9350613217818560208601612396565b80840191505092915050565b7f206973206d697373696e6720726f6c6520000000000000000000000000000000600082015250565b600061325960118361319b565b915061326482613223565b601182019050919050565b600061327a826131cf565b915061328682856131f2565b91506132918261324c565b915061329d82846131f2565b91508190509392505050565b7f4552433732313a207472616e7366657220746f206e6f6e20455243373231526560008201527f63656976657220696d706c656d656e7465720000000000000000000000000000602082015250565b6000613305603283612385565b9150613310826132a9565b604082019050919050565b60006020820190508181036000830152613334816132f8565b9050919050565b7f45524337323155524953746f726167653a2055524920717565727920666f722060008201527f6e6f6e6578697374656e7420746f6b656e000000000000000000000000000000602082015250565b6000613397603183612385565b91506133a28261333b565b604082019050919050565b600060208201905081810360008301526133c68161338a565b9050919050565b60006133d982856131f2565b91506133e582846131f2565b91508190509392505050565b7f45524337323155524953746f726167653a2055524920736574206f66206e6f6e60008201527f6578697374656e7420746f6b656e000000000000000000000000000000000000602082015250565b600061344d602e83612385565b9150613458826133f1565b604082019050919050565b6000602082019050818103600083015261347c81613440565b9050919050565b600061348e82612435565b915061349983612435565b9250817fffffffffffffffffffffffffffffffffffffffffffffffffffffffffffffffff04831182151516156134d2576134d16130e2565b5b828202905092915050565b7f4e487b7100000000000000000000000000000000000000000000000000000000600052603260045260246000fd5b600061351782612435565b9150600082141561352b5761352a6130e2565b5b600182039050919050565b7f537472696e67733a20686578206c656e67746820696e73756666696369656e74600082015250565b600061356c602083612385565b915061357782613536565b602082019050919050565b6000602082019050818103600083015261359b8161355f565b9050919050565b600081519050919050565b600082825260208201905092915050565b60006135c9826135a2565b6135d381856135ad565b93506135e3818560208601612396565b6135ec816123c9565b840191505092915050565b600060808201905061360c60008301876124ca565b61361960208301866124ca565b6136266040830185612680565b818103606083015261363881846135be565b905095945050505050565b600081519050613652816122eb565b92915050565b60006020828403121561366e5761366d6122b5565b5b600061367c84828501613643565b91505092915050565b7f4552433732314d657461646174613a2055524920717565727920666f72206e6f60008201527f6e6578697374656e7420746f6b656e0000000000000000000000000000000000602082015250565b60006136e1602f83612385565b91506136ec82613685565b604082019050919050565b60006020820190508181036000830152613710816136d4565b9050919050565b600061372282612435565b91507fffffffffffffffffffffffffffffffffffffffffffffffffffffffffffffffff821415613755576137546130e2565b5b600182019050919050565b7f4e487b7100000000000000000000000000000000000000000000000000000000600052601260045260246000fd5b600061379a82612435565b91506137a583612435565b9250826137b5576137b4613760565b5b828204905092915050565b60006137cb82612435565b91506137d683612435565b9250826137e6576137e5613760565b5b828206905092915050565b7f4552433732313a206d696e7420746f20746865207a65726f2061646472657373600082015250565b6000613827602083612385565b9150613832826137f1565b602082019050919050565b600060208201905081810360008301526138568161381a565b9050919050565b7f4552433732313a20746f6b656e20616c7265616479206d696e74656400000000600082015250565b6000613893601c83612385565b915061389e8261385d565b602082019050919050565b600060208201905081810360008301526138c281613886565b905091905056fea264697066735822122062287d5d0baab418fe41706eeae2a598a59099a75289ae271613a9e2c12b44ac64736f6c63430008090033",
  "immutableReferences": {},
  "source": "pragma solidity ^0.8.2;\r\n\r\nimport \"@openzeppelin/contracts/token/ERC721/ERC721.sol\";\r\nimport \"@openzeppelin/contracts/token/ERC721/extensions/ERC721URIStorage.sol\";\r\nimport \"@openzeppelin/contracts/access/AccessControl.sol\";\r\nimport \"@openzeppelin/contracts/utils/Counters.sol\";\r\n\r\ncontract AnbeShivamNFT is ERC721, ERC721URIStorage, AccessControl {\r\n    using Counters for Counters.Counter;\r\n\r\n    bytes32 public constant MINTER_ROLE = keccak256(\"MINTER_ROLE\");\r\n    Counters.Counter private _tokenIdCounter;\r\n\r\n    constructor() ERC721(\"AnbeShivamNFT\", \"ANBE\") {\r\n        _setupRole(DEFAULT_ADMIN_ROLE, msg.sender);\r\n    }\r\n\r\n    struct Badge {\r\n        uint tokenID;\r\n        address owner;\r\n    }\r\n\r\n    Badge[] public badges;\r\n\r\n    function returnNFTCount() public view returns(uint) {\r\n        return _tokenIdCounter.current();\r\n    }\r\n\r\n    function safeMint(address _to, string memory _tokenURI) public onlyRole(MINTER_ROLE) {\r\n        _safeMint(_to, _tokenIdCounter.current());\r\n        _setTokenURI(_tokenIdCounter.current(), _tokenURI);\r\n        badges.push(Badge(_tokenIdCounter.current(), _to));\r\n        _tokenIdCounter.increment();\r\n    }\r\n\r\n    function _burn(uint256 tokenId) internal override(ERC721, ERC721URIStorage) {\r\n        super._burn(tokenId);\r\n    }\r\n\r\n    function tokenURI(uint256 tokenId)\r\n        public\r\n        view\r\n        override(ERC721, ERC721URIStorage)\r\n        returns (string memory)\r\n    {\r\n        return super.tokenURI(tokenId);\r\n    }\r\n\r\n    function supportsInterface(bytes4 interfaceId)\r\n        public\r\n        view\r\n        override(ERC721, AccessControl)\r\n        returns (bool)\r\n    {\r\n        return super.supportsInterface(interfaceId);\r\n    }\r\n}",
  "sourcePath": "D:\\Projects\\AnbeShivam\\contracts\\AnbeShivamNFT.sol",
  "compiler": {
    "name": "solc",
    "version": "0.8.9+commit.e5eed63a.Emscripten.clang"
  },
  "schemaVersion": "3.4.3",
  "updatedAt": "2021-10-22T10:23:51.719Z",
  "networkType": "ethereum",
  "devdoc": {
    "kind": "dev",
    "methods": {
      "approve(address,uint256)": {
        "details": "See {IERC721-approve}."
      },
      "balanceOf(address)": {
        "details": "See {IERC721-balanceOf}."
      },
      "getApproved(uint256)": {
        "details": "See {IERC721-getApproved}."
      },
      "getRoleAdmin(bytes32)": {
        "details": "Returns the admin role that controls `role`. See {grantRole} and {revokeRole}. To change a role's admin, use {_setRoleAdmin}."
      },
      "grantRole(bytes32,address)": {
        "details": "Grants `role` to `account`. If `account` had not been already granted `role`, emits a {RoleGranted} event. Requirements: - the caller must have ``role``'s admin role."
      },
      "hasRole(bytes32,address)": {
        "details": "Returns `true` if `account` has been granted `role`."
      },
      "isApprovedForAll(address,address)": {
        "details": "See {IERC721-isApprovedForAll}."
      },
      "name()": {
        "details": "See {IERC721Metadata-name}."
      },
      "ownerOf(uint256)": {
        "details": "See {IERC721-ownerOf}."
      },
      "renounceRole(bytes32,address)": {
        "details": "Revokes `role` from the calling account. Roles are often managed via {grantRole} and {revokeRole}: this function's purpose is to provide a mechanism for accounts to lose their privileges if they are compromised (such as when a trusted device is misplaced). If the calling account had been granted `role`, emits a {RoleRevoked} event. Requirements: - the caller must be `account`."
      },
      "revokeRole(bytes32,address)": {
        "details": "Revokes `role` from `account`. If `account` had been granted `role`, emits a {RoleRevoked} event. Requirements: - the caller must have ``role``'s admin role."
      },
      "safeTransferFrom(address,address,uint256)": {
        "details": "See {IERC721-safeTransferFrom}."
      },
      "safeTransferFrom(address,address,uint256,bytes)": {
        "details": "See {IERC721-safeTransferFrom}."
      },
      "setApprovalForAll(address,bool)": {
        "details": "See {IERC721-setApprovalForAll}."
      },
      "symbol()": {
        "details": "See {IERC721Metadata-symbol}."
      },
      "transferFrom(address,address,uint256)": {
        "details": "See {IERC721-transferFrom}."
      }
    },
    "version": 1
  },
  "userdoc": {
    "kind": "user",
    "methods": {},
    "version": 1
  }
}