{
  "contractName": "AnbeShivamMain",
  "abi": [
    {
      "anonymous": false,
      "inputs": [
        {
          "indexed": true,
          "internalType": "address",
          "name": "previousOwner",
          "type": "address"
        },
        {
          "indexed": true,
          "internalType": "address",
          "name": "newOwner",
          "type": "address"
        }
      ],
      "name": "OwnershipTransferred",
      "type": "event"
    },
    {
      "anonymous": false,
      "inputs": [
        {
          "indexed": false,
          "internalType": "uint256",
          "name": "",
          "type": "uint256"
        },
        {
          "indexed": false,
          "internalType": "string",
          "name": "",
          "type": "string"
        },
        {
          "indexed": false,
          "internalType": "string",
          "name": "",
          "type": "string"
        }
      ],
      "name": "newContentAdded",
      "type": "event"
    },
    {
      "anonymous": false,
      "inputs": [
        {
          "components": [
            {
              "internalType": "uint256",
              "name": "receivedFunds",
              "type": "uint256"
            },
            {
              "internalType": "string",
              "name": "name",
              "type": "string"
            },
            {
              "internalType": "string",
              "name": "fileURL",
              "type": "string"
            },
            {
              "internalType": "address payable",
              "name": "creator",
              "type": "address"
            }
          ],
          "indexed": false,
          "internalType": "struct AnbeShivamMain.Content",
          "name": "",
          "type": "tuple"
        },
        {
          "indexed": false,
          "internalType": "address",
          "name": "",
          "type": "address"
        }
      ],
      "name": "viewedContent",
      "type": "event"
    },
    {
      "inputs": [],
      "name": "owner",
      "outputs": [
        {
          "internalType": "address",
          "name": "",
          "type": "address"
        }
      ],
      "stateMutability": "view",
      "type": "function"
    },
    {
      "inputs": [],
      "name": "renounceOwnership",
      "outputs": [],
      "stateMutability": "nonpayable",
      "type": "function"
    },
    {
      "inputs": [
        {
          "internalType": "address",
          "name": "newOwner",
          "type": "address"
        }
      ],
      "name": "transferOwnership",
      "outputs": [],
      "stateMutability": "nonpayable",
      "type": "function"
    },
    {
      "inputs": [
        {
          "internalType": "address",
          "name": "_GODSContract",
          "type": "address"
        },
        {
          "internalType": "address",
          "name": "_NFTContract",
          "type": "address"
        }
      ],
      "name": "setContractAddresses",
      "outputs": [],
      "stateMutability": "nonpayable",
      "type": "function"
    },
    {
      "inputs": [],
      "name": "returnContentCount",
      "outputs": [
        {
          "internalType": "uint256",
          "name": "",
          "type": "uint256"
        }
      ],
      "stateMutability": "view",
      "type": "function"
    },
    {
      "inputs": [
        {
          "internalType": "uint256",
          "name": "_contentID",
          "type": "uint256"
        }
      ],
      "name": "returnContent",
      "outputs": [],
      "stateMutability": "nonpayable",
      "type": "function"
    },
    {
      "inputs": [
        {
          "internalType": "string",
          "name": "_name",
          "type": "string"
        },
        {
          "internalType": "string",
          "name": "_fileURL",
          "type": "string"
        }
      ],
      "name": "addContent",
      "outputs": [],
      "stateMutability": "nonpayable",
      "type": "function"
    },
    {
      "inputs": [
        {
          "internalType": "uint256",
          "name": "_contentID",
          "type": "uint256"
        },
        {
          "internalType": "string",
          "name": "_metadata",
          "type": "string"
        }
      ],
      "name": "investFunds",
      "outputs": [],
      "stateMutability": "payable",
      "type": "function"
    }
  ],
  "bytecode": "0x608060405234801561001057600080fd5b5061002d61002261003260201b60201c565b61003a60201b60201c565b6100fe565b600033905090565b60008060009054906101000a900473ffffffffffffffffffffffffffffffffffffffff169050816000806101000a81548173ffffffffffffffffffffffffffffffffffffffff021916908373ffffffffffffffffffffffffffffffffffffffff1602179055508173ffffffffffffffffffffffffffffffffffffffff168173ffffffffffffffffffffffffffffffffffffffff167f8be0079c531659141344cd1fd0a4f28419497f9722a3daafe3b4186f6b6457e060405160405180910390a35050565b61144d8061010d6000396000f3fe60806040526004361061007b5760003560e01c8063cd931e401161004e578063cd931e4014610116578063e6a122af1461013f578063f2fde38b1461015b578063f761d008146101845761007b565b8063715018a61461008057806380230f6014610097578063805f1fa1146100c25780638da5cb5b146100eb575b600080fd5b34801561008c57600080fd5b506100956101ad565b005b3480156100a357600080fd5b506100ac610235565b6040516100b99190610a36565b60405180910390f35b3480156100ce57600080fd5b506100e960048036038101906100e49190610a91565b610242565b005b3480156100f757600080fd5b5061010061029f565b60405161010d9190610aff565b60405180910390f35b34801561012257600080fd5b5061013d60048036038101906101389190610b46565b6102c8565b005b61015960048036038101906101549190610ccc565b6103ca565b005b34801561016757600080fd5b50610182600480360381019061017d9190610d28565b61060c565b005b34801561019057600080fd5b506101ab60048036038101906101a69190610d55565b610704565b005b6101b56108ae565b73ffffffffffffffffffffffffffffffffffffffff166101d361029f565b73ffffffffffffffffffffffffffffffffffffffff1614610229576040517f08c379a000000000000000000000000000000000000000000000000000000000815260040161022090610e2a565b60405180910390fd5b61023360006108b6565b565b6000600380549050905090565b7f9752dd1a001f376248988b5c2a006a4cb28c6a813d30e59a98b454fb6c1caab06003828154811061027757610276610e4a565b5b90600052602060002090600402013360405161029492919061109b565b60405180910390a150565b60008060009054906101000a900473ffffffffffffffffffffffffffffffffffffffff16905090565b6102d06108ae565b73ffffffffffffffffffffffffffffffffffffffff166102ee61029f565b73ffffffffffffffffffffffffffffffffffffffff1614610344576040517f08c379a000000000000000000000000000000000000000000000000000000000815260040161033b90610e2a565b60405180910390fd5b81600160006101000a81548173ffffffffffffffffffffffffffffffffffffffff021916908373ffffffffffffffffffffffffffffffffffffffff16021790555080600260006101000a81548173ffffffffffffffffffffffffffffffffffffffff021916908373ffffffffffffffffffffffffffffffffffffffff1602179055505050565b6000341180156103e3575068056bc75e2d631000003411155b610422576040517f08c379a000000000000000000000000000000000000000000000000000000000815260040161041990611117565b60405180910390fd5b346003838154811061043757610436610e4a565b5b906000526020600020906004020160000160008282546104579190611166565b925050819055506003828154811061047257610471610e4a565b5b906000526020600020906004020160030160009054906101000a900473ffffffffffffffffffffffffffffffffffffffff1673ffffffffffffffffffffffffffffffffffffffff166108fc349081150290604051600060405180830381858888f193505050501580156104e9573d6000803e3d6000fd5b50600160009054906101000a900473ffffffffffffffffffffffffffffffffffffffff1673ffffffffffffffffffffffffffffffffffffffff166340c10f1933346040518363ffffffff1660e01b81526004016105479291906111bc565b600060405180830381600087803b15801561056157600080fd5b505af1158015610575573d6000803e3d6000fd5b50505050600260009054906101000a900473ffffffffffffffffffffffffffffffffffffffff1673ffffffffffffffffffffffffffffffffffffffff1663d204c45e33836040518363ffffffff1660e01b81526004016105d692919061125c565b600060405180830381600087803b1580156105f057600080fd5b505af1158015610604573d6000803e3d6000fd5b505050505050565b6106146108ae565b73ffffffffffffffffffffffffffffffffffffffff1661063261029f565b73ffffffffffffffffffffffffffffffffffffffff1614610688576040517f08c379a000000000000000000000000000000000000000000000000000000000815260040161067f90610e2a565b60405180910390fd5b600073ffffffffffffffffffffffffffffffffffffffff168173ffffffffffffffffffffffffffffffffffffffff1614156106f8576040517f08c379a00000000000000000000000000000000000000000000000000000000081526004016106ef906112fe565b60405180910390fd5b610701816108b6565b50565b60036040518060800160405280600081526020018481526020018381526020013373ffffffffffffffffffffffffffffffffffffffff16815250908060018154018082558091505060019003906000526020600020906004020160009091909190915060008201518160000155602082015181600101908051906020019061078d92919061097a565b5060408201518160020190805190602001906107aa92919061097a565b5060608201518160030160006101000a81548173ffffffffffffffffffffffffffffffffffffffff021916908373ffffffffffffffffffffffffffffffffffffffff16021790555050507f9d052371d5508337cb778bebe3c70018c8e5eeb5c8c0899f00cffbda54f743e06001600380549050610827919061131e565b6003600160038054905061083b919061131e565b8154811061084c5761084b610e4a565b5b906000526020600020906004020160010160036001600380549050610871919061131e565b8154811061088257610881610e4a565b5b90600052602060002090600402016002016040516108a2939291906113d2565b60405180910390a15050565b600033905090565b60008060009054906101000a900473ffffffffffffffffffffffffffffffffffffffff169050816000806101000a81548173ffffffffffffffffffffffffffffffffffffffff021916908373ffffffffffffffffffffffffffffffffffffffff1602179055508173ffffffffffffffffffffffffffffffffffffffff168173ffffffffffffffffffffffffffffffffffffffff167f8be0079c531659141344cd1fd0a4f28419497f9722a3daafe3b4186f6b6457e060405160405180910390a35050565b82805461098690610ee8565b90600052602060002090601f0160209004810192826109a857600085556109ef565b82601f106109c157805160ff19168380011785556109ef565b828001600101855582156109ef579182015b828111156109ee5782518255916020019190600101906109d3565b5b5090506109fc9190610a00565b5090565b5b80821115610a19576000816000905550600101610a01565b5090565b6000819050919050565b610a3081610a1d565b82525050565b6000602082019050610a4b6000830184610a27565b92915050565b6000604051905090565b600080fd5b600080fd5b610a6e81610a1d565b8114610a7957600080fd5b50565b600081359050610a8b81610a65565b92915050565b600060208284031215610aa757610aa6610a5b565b5b6000610ab584828501610a7c565b91505092915050565b600073ffffffffffffffffffffffffffffffffffffffff82169050919050565b6000610ae982610abe565b9050919050565b610af981610ade565b82525050565b6000602082019050610b146000830184610af0565b92915050565b610b2381610ade565b8114610b2e57600080fd5b50565b600081359050610b4081610b1a565b92915050565b60008060408385031215610b5d57610b5c610a5b565b5b6000610b6b85828601610b31565b9250506020610b7c85828601610b31565b9150509250929050565b600080fd5b600080fd5b6000601f19601f8301169050919050565b7f4e487b7100000000000000000000000000000000000000000000000000000000600052604160045260246000fd5b610bd982610b90565b810181811067ffffffffffffffff82111715610bf857610bf7610ba1565b5b80604052505050565b6000610c0b610a51565b9050610c178282610bd0565b919050565b600067ffffffffffffffff821115610c3757610c36610ba1565b5b610c4082610b90565b9050602081019050919050565b82818337600083830152505050565b6000610c6f610c6a84610c1c565b610c01565b905082815260208101848484011115610c8b57610c8a610b8b565b5b610c96848285610c4d565b509392505050565b600082601f830112610cb357610cb2610b86565b5b8135610cc3848260208601610c5c565b91505092915050565b60008060408385031215610ce357610ce2610a5b565b5b6000610cf185828601610a7c565b925050602083013567ffffffffffffffff811115610d1257610d11610a60565b5b610d1e85828601610c9e565b9150509250929050565b600060208284031215610d3e57610d3d610a5b565b5b6000610d4c84828501610b31565b91505092915050565b60008060408385031215610d6c57610d6b610a5b565b5b600083013567ffffffffffffffff811115610d8a57610d89610a60565b5b610d9685828601610c9e565b925050602083013567ffffffffffffffff811115610db757610db6610a60565b5b610dc385828601610c9e565b9150509250929050565b600082825260208201905092915050565b7f4f776e61626c653a2063616c6c6572206973206e6f7420746865206f776e6572600082015250565b6000610e14602083610dcd565b9150610e1f82610dde565b602082019050919050565b60006020820190508181036000830152610e4381610e07565b9050919050565b7f4e487b7100000000000000000000000000000000000000000000000000000000600052603260045260246000fd5b60008160001c9050919050565b6000819050919050565b6000610ea3610e9e83610e79565b610e86565b9050919050565b610eb381610a1d565b82525050565b7f4e487b7100000000000000000000000000000000000000000000000000000000600052602260045260246000fd5b60006002820490506001821680610f0057607f821691505b60208210811415610f1457610f13610eb9565b5b50919050565b600082825260208201905092915050565b60008190508160005260206000209050919050565b60008154610f4d81610ee8565b610f578186610f1a565b94506001821660008114610f725760018114610f8457610fb7565b60ff1983168652602086019350610fb7565b610f8d85610f2b565b60005b83811015610faf57815481890152600182019150602081019050610f90565b808801955050505b50505092915050565b600073ffffffffffffffffffffffffffffffffffffffff82169050919050565b6000610ff3610fee83610e79565b610fc0565b9050919050565b600061100582610abe565b9050919050565b61101581610ffa565b82525050565b600060808301600080840154905061103281610e90565b61103f6000870182610eaa565b506001840185830360208701526110568382610f40565b92505060028401858303604087015261106f8382610f40565b9250506003840154905061108281610fe0565b61108f606087018261100c565b50819250505092915050565b600060408201905081810360008301526110b5818561101b565b90506110c46020830184610af0565b9392505050565b7f496e76616c696420616d6f756e74000000000000000000000000000000000000600082015250565b6000611101600e83610dcd565b915061110c826110cb565b602082019050919050565b60006020820190508181036000830152611130816110f4565b9050919050565b7f4e487b7100000000000000000000000000000000000000000000000000000000600052601160045260246000fd5b600061117182610a1d565b915061117c83610a1d565b9250827fffffffffffffffffffffffffffffffffffffffffffffffffffffffffffffffff038211156111b1576111b0611137565b5b828201905092915050565b60006040820190506111d16000830185610af0565b6111de6020830184610a27565b9392505050565b600081519050919050565b60005b8381101561120e5780820151818401526020810190506111f3565b8381111561121d576000848401525b50505050565b600061122e826111e5565b6112388185610dcd565b93506112488185602086016111f0565b61125181610b90565b840191505092915050565b60006040820190506112716000830185610af0565b81810360208301526112838184611223565b90509392505050565b7f4f776e61626c653a206e6577206f776e657220697320746865207a65726f206160008201527f6464726573730000000000000000000000000000000000000000000000000000602082015250565b60006112e8602683610dcd565b91506112f38261128c565b604082019050919050565b60006020820190508181036000830152611317816112db565b9050919050565b600061132982610a1d565b915061133483610a1d565b92508282101561134757611346611137565b5b828203905092915050565b6000815461135f81610ee8565b6113698186610dcd565b945060018216600081146113845760018114611396576113c9565b60ff19831686526020860193506113c9565b61139f85610f2b565b60005b838110156113c1578154818901526001820191506020810190506113a2565b808801955050505b50505092915050565b60006060820190506113e76000830186610a27565b81810360208301526113f98185611352565b9050818103604083015261140d8184611352565b905094935050505056fea26469706673582212204a65b89c9aa1c9aeb421eb72bfe9a3559e1273804b0750a60ee9de44895f8c8b64736f6c63430008090033",
  "immutableReferences": {},
  "source": "// SPDX-License-Identifier: MIT\r\npragma solidity >=0.4.22 <0.9.0;\r\n\r\nimport \"./AnbeShivamNFT.sol\";\r\nimport \"./AnbeShivamInvestorToken.sol\";\r\nimport \"@openzeppelin/contracts/access/Ownable.sol\";\r\n\r\ncontract AnbeShivamMain is Ownable {\r\n    address GODSContract;\r\n    address NFTContract;\r\n\r\n    struct Content {\r\n        uint receivedFunds;\r\n        string name;\r\n        string fileURL;\r\n        address payable creator;\r\n    }\r\n\r\n    Content[] contents;\r\n\r\n    event newContentAdded(uint, string, string);\r\n    event viewedContent(Content, address);\r\n\r\n    function setContractAddresses(\r\n        address _GODSContract, \r\n        address _NFTContract\r\n    ) \r\n        external \r\n        onlyOwner \r\n    {\r\n        GODSContract = _GODSContract;\r\n        NFTContract = _NFTContract;\r\n    }\r\n\r\n    function returnContentCount() external view returns (uint) {\r\n        return contents.length;\r\n    }\r\n\r\n    function returnContent(uint _contentID) external {\r\n        emit viewedContent(contents[_contentID], msg.sender);\r\n    } \r\n\r\n    function addContent(string memory _name, string memory _fileURL) external {\r\n        contents.push(Content(0, _name, _fileURL, payable(msg.sender)));\r\n        emit newContentAdded(\r\n            contents.length - 1,\r\n            contents[contents.length - 1].name,\r\n            contents[contents.length - 1].fileURL\r\n        );\r\n    }\r\n\r\n    function investFunds(uint _contentID, string memory _metadata) external payable {\r\n        require(msg.value > 0 && msg.value <= 100 ether, \"Invalid amount\");\r\n        contents[_contentID].receivedFunds += msg.value;\r\n        contents[_contentID].creator.transfer(msg.value);\r\n        AnbeShivamInvestorToken(GODSContract).mint(msg.sender, msg.value);\r\n        AnbeShivamNFT(NFTContract).safeMint(msg.sender, _metadata);\r\n    }\r\n}",
  "sourcePath": "D:\\Projects\\AnbeShivam\\contracts\\AnbeShivamMain.sol",
  "compiler": {
    "name": "solc",
    "version": "0.8.9+commit.e5eed63a.Emscripten.clang"
  },
  "schemaVersion": "3.4.3",
  "updatedAt": "2021-10-05T14:11:01.703Z",
  "devdoc": {
    "kind": "dev",
    "methods": {
      "owner()": {
        "details": "Returns the address of the current owner."
      },
      "renounceOwnership()": {
        "details": "Leaves the contract without owner. It will not be possible to call `onlyOwner` functions anymore. Can only be called by the current owner. NOTE: Renouncing ownership will leave the contract without an owner, thereby removing any functionality that is only available to the owner."
      },
      "transferOwnership(address)": {
        "details": "Transfers ownership of the contract to a new account (`newOwner`). Can only be called by the current owner."
      }
    },
    "version": 1
  },
  "userdoc": {
    "kind": "user",
    "methods": {},
    "version": 1
  }
}