{
  "contractName": "AnbeShivamMain",
  "abi": [
    {
      "anonymous": false,
      "inputs": [
        {
          "indexed": true,
          "internalType": "address",
          "name": "previousOwner",
          "type": "address"
        },
        {
          "indexed": true,
          "internalType": "address",
          "name": "newOwner",
          "type": "address"
        }
      ],
      "name": "OwnershipTransferred",
      "type": "event"
    },
    {
      "anonymous": false,
      "inputs": [
        {
          "indexed": false,
          "internalType": "uint256",
          "name": "",
          "type": "uint256"
        },
        {
          "indexed": false,
          "internalType": "string",
          "name": "",
          "type": "string"
        },
        {
          "indexed": false,
          "internalType": "string",
          "name": "",
          "type": "string"
        }
      ],
      "name": "newContentAdded",
      "type": "event"
    },
    {
      "anonymous": false,
      "inputs": [
        {
          "indexed": false,
          "internalType": "uint256",
          "name": "",
          "type": "uint256"
        },
        {
          "indexed": false,
          "internalType": "uint256",
          "name": "",
          "type": "uint256"
        },
        {
          "indexed": false,
          "internalType": "address",
          "name": "",
          "type": "address"
        }
      ],
      "name": "projectFunded",
      "type": "event"
    },
    {
      "anonymous": false,
      "inputs": [
        {
          "components": [
            {
              "internalType": "uint256",
              "name": "id",
              "type": "uint256"
            },
            {
              "internalType": "uint256",
              "name": "receivedFunds",
              "type": "uint256"
            },
            {
              "internalType": "string",
              "name": "name",
              "type": "string"
            },
            {
              "internalType": "string",
              "name": "fileURL",
              "type": "string"
            },
            {
              "internalType": "address payable",
              "name": "creator",
              "type": "address"
            }
          ],
          "indexed": false,
          "internalType": "struct AnbeShivamMain.Content",
          "name": "",
          "type": "tuple"
        },
        {
          "indexed": false,
          "internalType": "address",
          "name": "",
          "type": "address"
        }
      ],
      "name": "viewedContent",
      "type": "event"
    },
    {
      "inputs": [],
      "name": "owner",
      "outputs": [
        {
          "internalType": "address",
          "name": "",
          "type": "address"
        }
      ],
      "stateMutability": "view",
      "type": "function",
      "constant": true
    },
    {
      "inputs": [
        {
          "internalType": "uint256",
          "name": "",
          "type": "uint256"
        }
      ],
      "name": "projects",
      "outputs": [
        {
          "internalType": "string",
          "name": "",
          "type": "string"
        }
      ],
      "stateMutability": "view",
      "type": "function",
      "constant": true
    },
    {
      "inputs": [],
      "name": "renounceOwnership",
      "outputs": [],
      "stateMutability": "nonpayable",
      "type": "function"
    },
    {
      "inputs": [
        {
          "internalType": "address",
          "name": "newOwner",
          "type": "address"
        }
      ],
      "name": "transferOwnership",
      "outputs": [],
      "stateMutability": "nonpayable",
      "type": "function"
    },
    {
      "inputs": [
        {
          "internalType": "address",
          "name": "_GODSContract",
          "type": "address"
        },
        {
          "internalType": "address",
          "name": "_NFTContract",
          "type": "address"
        }
      ],
      "name": "setContractAddresses",
      "outputs": [],
      "stateMutability": "nonpayable",
      "type": "function"
    },
    {
      "inputs": [],
      "name": "returnContentCount",
      "outputs": [
        {
          "internalType": "uint256",
          "name": "",
          "type": "uint256"
        }
      ],
      "stateMutability": "view",
      "type": "function",
      "constant": true
    },
    {
      "inputs": [
        {
          "internalType": "uint256",
          "name": "_contentID",
          "type": "uint256"
        }
      ],
      "name": "returnContent",
      "outputs": [],
      "stateMutability": "nonpayable",
      "type": "function"
    },
    {
      "inputs": [
        {
          "internalType": "string",
          "name": "_name",
          "type": "string"
        },
        {
          "internalType": "string",
          "name": "_fileURL",
          "type": "string"
        }
      ],
      "name": "addContent",
      "outputs": [],
      "stateMutability": "nonpayable",
      "type": "function"
    },
    {
      "inputs": [
        {
          "internalType": "uint256",
          "name": "_contentID",
          "type": "uint256"
        },
        {
          "internalType": "string",
          "name": "_metadata",
          "type": "string"
        }
      ],
      "name": "investFunds",
      "outputs": [],
      "stateMutability": "payable",
      "type": "function",
      "payable": true
    }
  ],
  "bytecode": "0x608060405234801561001057600080fd5b5061002d61002261003260201b60201c565b61003a60201b60201c565b6100fe565b600033905090565b60008060009054906101000a900473ffffffffffffffffffffffffffffffffffffffff169050816000806101000a81548173ffffffffffffffffffffffffffffffffffffffff021916908373ffffffffffffffffffffffffffffffffffffffff1602179055508173ffffffffffffffffffffffffffffffffffffffff168173ffffffffffffffffffffffffffffffffffffffff167f8be0079c531659141344cd1fd0a4f28419497f9722a3daafe3b4186f6b6457e060405160405180910390a35050565b6117568061010d6000396000f3fe6080604052600436106100865760003560e01c80638da5cb5b116100595780638da5cb5b14610133578063cd931e401461015e578063e6a122af14610187578063f2fde38b146101a3578063f761d008146101cc57610086565b8063107046bd1461008b578063715018a6146100c857806380230f60146100df578063805f1fa11461010a575b600080fd5b34801561009757600080fd5b506100b260048036038101906100ad9190610c8d565b6101f5565b6040516100bf9190610d53565b60405180910390f35b3480156100d457600080fd5b506100dd610295565b005b3480156100eb57600080fd5b506100f461031d565b6040516101019190610d84565b60405180910390f35b34801561011657600080fd5b50610131600480360381019061012c9190610c8d565b61032a565b005b34801561013f57600080fd5b50610148610387565b6040516101559190610de0565b60405180910390f35b34801561016a57600080fd5b5061018560048036038101906101809190610e27565b6103b0565b005b6101a1600480360381019061019c9190610f9c565b6104b2565b005b3480156101af57600080fd5b506101ca60048036038101906101c59190610ff8565b6107e4565b005b3480156101d857600080fd5b506101f360048036038101906101ee9190611025565b6108dc565b005b60046020528060005260406000206000915090508054610214906110cc565b80601f0160208091040260200160405190810160405280929190818152602001828054610240906110cc565b801561028d5780601f106102625761010080835404028352916020019161028d565b820191906000526020600020905b81548152906001019060200180831161027057829003601f168201915b505050505081565b61029d610ad4565b73ffffffffffffffffffffffffffffffffffffffff166102bb610387565b73ffffffffffffffffffffffffffffffffffffffff1614610311576040517f08c379a00000000000000000000000000000000000000000000000000000000081526004016103089061114a565b60405180910390fd5b61031b6000610adc565b565b6000600380549050905090565b7f31735d778b219a5b27dc737584eea719b853ecffd58023637b77127b5e23a0c36003828154811061035f5761035e61116a565b5b90600052602060002090600502013360405161037c929190611378565b60405180910390a150565b60008060009054906101000a900473ffffffffffffffffffffffffffffffffffffffff16905090565b6103b8610ad4565b73ffffffffffffffffffffffffffffffffffffffff166103d6610387565b73ffffffffffffffffffffffffffffffffffffffff161461042c576040517f08c379a00000000000000000000000000000000000000000000000000000000081526004016104239061114a565b60405180910390fd5b81600160006101000a81548173ffffffffffffffffffffffffffffffffffffffff021916908373ffffffffffffffffffffffffffffffffffffffff16021790555080600260006101000a81548173ffffffffffffffffffffffffffffffffffffffff021916908373ffffffffffffffffffffffffffffffffffffffff1602179055505050565b6000341180156104cc575069d3c21bcecceda10000003411155b61050b576040517f08c379a0000000000000000000000000000000000000000000000000000000008152600401610502906113f4565b60405180910390fd5b6003828154811061051f5761051e61116a565b5b906000526020600020906005020160040160009054906101000a900473ffffffffffffffffffffffffffffffffffffffff1673ffffffffffffffffffffffffffffffffffffffff163373ffffffffffffffffffffffffffffffffffffffff1614156105bf576040517f08c379a00000000000000000000000000000000000000000000000000000000081526004016105b690611460565b60405180910390fd5b34600383815481106105d4576105d361116a565b5b906000526020600020906005020160010160008282546105f491906114af565b925050819055506003828154811061060f5761060e61116a565b5b906000526020600020906005020160040160009054906101000a900473ffffffffffffffffffffffffffffffffffffffff1673ffffffffffffffffffffffffffffffffffffffff166108fc349081150290604051600060405180830381858888f19350505050158015610686573d6000803e3d6000fd5b50600160009054906101000a900473ffffffffffffffffffffffffffffffffffffffff1673ffffffffffffffffffffffffffffffffffffffff166340c10f1933346040518363ffffffff1660e01b81526004016106e4929190611505565b600060405180830381600087803b1580156106fe57600080fd5b505af1158015610712573d6000803e3d6000fd5b50505050600260009054906101000a900473ffffffffffffffffffffffffffffffffffffffff1673ffffffffffffffffffffffffffffffffffffffff1663d204c45e33836040518363ffffffff1660e01b815260040161077392919061152e565b600060405180830381600087803b15801561078d57600080fd5b505af11580156107a1573d6000803e3d6000fd5b505050507f31f78011fdaa6f4db6e053d1e5b5340b2d48b1c14cedc616a5bde37c16415cf28234336040516107d89392919061155e565b60405180910390a15050565b6107ec610ad4565b73ffffffffffffffffffffffffffffffffffffffff1661080a610387565b73ffffffffffffffffffffffffffffffffffffffff1614610860576040517f08c379a00000000000000000000000000000000000000000000000000000000081526004016108579061114a565b60405180910390fd5b600073ffffffffffffffffffffffffffffffffffffffff168173ffffffffffffffffffffffffffffffffffffffff1614156108d0576040517f08c379a00000000000000000000000000000000000000000000000000000000081526004016108c790611607565b60405180910390fd5b6108d981610adc565b50565b60036040518060a001604052806003805490508152602001600081526020018481526020018381526020013373ffffffffffffffffffffffffffffffffffffffff1681525090806001815401808255809150506001900390600052602060002090600502016000909190919091506000820151816000015560208201518160010155604082015181600201908051906020019061097a929190610ba0565b506060820151816003019080519060200190610997929190610ba0565b5060808201518160040160006101000a81548173ffffffffffffffffffffffffffffffffffffffff021916908373ffffffffffffffffffffffffffffffffffffffff1602179055505050816004600060016003805490506109f89190611627565b81526020019081526020016000209080519060200190610a19929190610ba0565b507f9d052371d5508337cb778bebe3c70018c8e5eeb5c8c0899f00cffbda54f743e06001600380549050610a4d9190611627565b60036001600380549050610a619190611627565b81548110610a7257610a7161116a565b5b906000526020600020906005020160020160036001600380549050610a979190611627565b81548110610aa857610aa761116a565b5b9060005260206000209060050201600301604051610ac8939291906116db565b60405180910390a15050565b600033905090565b60008060009054906101000a900473ffffffffffffffffffffffffffffffffffffffff169050816000806101000a81548173ffffffffffffffffffffffffffffffffffffffff021916908373ffffffffffffffffffffffffffffffffffffffff1602179055508173ffffffffffffffffffffffffffffffffffffffff168173ffffffffffffffffffffffffffffffffffffffff167f8be0079c531659141344cd1fd0a4f28419497f9722a3daafe3b4186f6b6457e060405160405180910390a35050565b828054610bac906110cc565b90600052602060002090601f016020900481019282610bce5760008555610c15565b82601f10610be757805160ff1916838001178555610c15565b82800160010185558215610c15579182015b82811115610c14578251825591602001919060010190610bf9565b5b509050610c229190610c26565b5090565b5b80821115610c3f576000816000905550600101610c27565b5090565b6000604051905090565b600080fd5b600080fd5b6000819050919050565b610c6a81610c57565b8114610c7557600080fd5b50565b600081359050610c8781610c61565b92915050565b600060208284031215610ca357610ca2610c4d565b5b6000610cb184828501610c78565b91505092915050565b600081519050919050565b600082825260208201905092915050565b60005b83811015610cf4578082015181840152602081019050610cd9565b83811115610d03576000848401525b50505050565b6000601f19601f8301169050919050565b6000610d2582610cba565b610d2f8185610cc5565b9350610d3f818560208601610cd6565b610d4881610d09565b840191505092915050565b60006020820190508181036000830152610d6d8184610d1a565b905092915050565b610d7e81610c57565b82525050565b6000602082019050610d996000830184610d75565b92915050565b600073ffffffffffffffffffffffffffffffffffffffff82169050919050565b6000610dca82610d9f565b9050919050565b610dda81610dbf565b82525050565b6000602082019050610df56000830184610dd1565b92915050565b610e0481610dbf565b8114610e0f57600080fd5b50565b600081359050610e2181610dfb565b92915050565b60008060408385031215610e3e57610e3d610c4d565b5b6000610e4c85828601610e12565b9250506020610e5d85828601610e12565b9150509250929050565b600080fd5b600080fd5b7f4e487b7100000000000000000000000000000000000000000000000000000000600052604160045260246000fd5b610ea982610d09565b810181811067ffffffffffffffff82111715610ec857610ec7610e71565b5b80604052505050565b6000610edb610c43565b9050610ee78282610ea0565b919050565b600067ffffffffffffffff821115610f0757610f06610e71565b5b610f1082610d09565b9050602081019050919050565b82818337600083830152505050565b6000610f3f610f3a84610eec565b610ed1565b905082815260208101848484011115610f5b57610f5a610e6c565b5b610f66848285610f1d565b509392505050565b600082601f830112610f8357610f82610e67565b5b8135610f93848260208601610f2c565b91505092915050565b60008060408385031215610fb357610fb2610c4d565b5b6000610fc185828601610c78565b925050602083013567ffffffffffffffff811115610fe257610fe1610c52565b5b610fee85828601610f6e565b9150509250929050565b60006020828403121561100e5761100d610c4d565b5b600061101c84828501610e12565b91505092915050565b6000806040838503121561103c5761103b610c4d565b5b600083013567ffffffffffffffff81111561105a57611059610c52565b5b61106685828601610f6e565b925050602083013567ffffffffffffffff81111561108757611086610c52565b5b61109385828601610f6e565b9150509250929050565b7f4e487b7100000000000000000000000000000000000000000000000000000000600052602260045260246000fd5b600060028204905060018216806110e457607f821691505b602082108114156110f8576110f761109d565b5b50919050565b7f4f776e61626c653a2063616c6c6572206973206e6f7420746865206f776e6572600082015250565b6000611134602083610cc5565b915061113f826110fe565b602082019050919050565b6000602082019050818103600083015261116381611127565b9050919050565b7f4e487b7100000000000000000000000000000000000000000000000000000000600052603260045260246000fd5b60008160001c9050919050565b6000819050919050565b60006111c36111be83611199565b6111a6565b9050919050565b6111d381610c57565b82525050565b600082825260208201905092915050565b60008190508160005260206000209050919050565b6000815461120c816110cc565b61121681866111d9565b94506001821660008114611231576001811461124357611276565b60ff1983168652602086019350611276565b61124c856111ea565b60005b8381101561126e5781548189015260018201915060208101905061124f565b808801955050505b50505092915050565b600073ffffffffffffffffffffffffffffffffffffffff82169050919050565b60006112b26112ad83611199565b61127f565b9050919050565b60006112c482610d9f565b9050919050565b6112d4816112b9565b82525050565b600060a0830160008084015490506112f1816111b0565b6112fe60008701826111ca565b506001840154905061130f816111b0565b61131c60208701826111ca565b5060028401858303604087015261133383826111ff565b92505060038401858303606087015261134c83826111ff565b9250506004840154905061135f8161129f565b61136c60808701826112cb565b50819250505092915050565b6000604082019050818103600083015261139281856112da565b90506113a16020830184610dd1565b9392505050565b7f496e76616c696420616d6f756e74000000000000000000000000000000000000600082015250565b60006113de600e83610cc5565b91506113e9826113a8565b602082019050919050565b6000602082019050818103600083015261140d816113d1565b9050919050565b7f43726561746f722063616e6e6f7420696e766573740000000000000000000000600082015250565b600061144a601583610cc5565b915061145582611414565b602082019050919050565b600060208201905081810360008301526114798161143d565b9050919050565b7f4e487b7100000000000000000000000000000000000000000000000000000000600052601160045260246000fd5b60006114ba82610c57565b91506114c583610c57565b9250827fffffffffffffffffffffffffffffffffffffffffffffffffffffffffffffffff038211156114fa576114f9611480565b5b828201905092915050565b600060408201905061151a6000830185610dd1565b6115276020830184610d75565b9392505050565b60006040820190506115436000830185610dd1565b81810360208301526115558184610d1a565b90509392505050565b60006060820190506115736000830186610d75565b6115806020830185610d75565b61158d6040830184610dd1565b949350505050565b7f4f776e61626c653a206e6577206f776e657220697320746865207a65726f206160008201527f6464726573730000000000000000000000000000000000000000000000000000602082015250565b60006115f1602683610cc5565b91506115fc82611595565b604082019050919050565b60006020820190508181036000830152611620816115e4565b9050919050565b600061163282610c57565b915061163d83610c57565b9250828210156116505761164f611480565b5b828203905092915050565b60008154611668816110cc565b6116728186610cc5565b9450600182166000811461168d576001811461169f576116d2565b60ff19831686526020860193506116d2565b6116a8856111ea565b60005b838110156116ca578154818901526001820191506020810190506116ab565b808801955050505b50505092915050565b60006060820190506116f06000830186610d75565b8181036020830152611702818561165b565b90508181036040830152611716818461165b565b905094935050505056fea26469706673582212203cb48ea1b15740ca313ede11b4df25db273d1f32915cafd2b930be28c40e91a964736f6c63430008090033",
  "immutableReferences": {},
  "source": "// SPDX-License-Identifier: MIT\r\npragma solidity >=0.4.22 <0.9.0;\r\n\r\nimport \"./AnbeShivamNFT.sol\";\r\nimport \"./AnbeShivamInvestorToken.sol\";\r\nimport \"@openzeppelin/contracts/access/Ownable.sol\";\r\n\r\ncontract AnbeShivamMain is Ownable {\r\n    address GODSContract;\r\n    address NFTContract;\r\n\r\n    struct Content {\r\n        uint id;\r\n        uint receivedFunds;\r\n        string name;\r\n        string fileURL;\r\n        address payable creator;\r\n    }\r\n\r\n    Content[] contents;\r\n\r\n    mapping(uint => string) public projects;\r\n\r\n    event newContentAdded(uint, string, string);\r\n    event viewedContent(Content, address);\r\n    event projectFunded(uint, uint, address);\r\n\r\n    function setContractAddresses(\r\n        address _GODSContract, \r\n        address _NFTContract\r\n    ) \r\n        external \r\n        onlyOwner \r\n    {\r\n        GODSContract = _GODSContract;\r\n        NFTContract = _NFTContract;\r\n    }\r\n\r\n    function returnContentCount() external view returns (uint) {\r\n        return contents.length;\r\n    }\r\n\r\n    function returnContent(uint _contentID) external {\r\n        emit viewedContent(contents[_contentID], msg.sender);\r\n    } \r\n\r\n    function addContent(string memory _name, string memory _fileURL) external {\r\n        contents.push(Content(contents.length, 0, _name, _fileURL, payable(msg.sender)));\r\n        projects[contents.length - 1] = _name;\r\n        emit newContentAdded(\r\n            contents.length - 1,\r\n            contents[contents.length - 1].name,\r\n            contents[contents.length - 1].fileURL\r\n        );\r\n    }\r\n\r\n    function investFunds(uint _contentID, string memory _metadata) external payable {\r\n        require(msg.value > 0 && msg.value <= 1000000 ether, \"Invalid amount\");\r\n        require(msg.sender != contents[_contentID].creator, \"Creator cannot invest\");\r\n        contents[_contentID].receivedFunds += msg.value;\r\n        contents[_contentID].creator.transfer(msg.value);\r\n        AnbeShivamInvestorToken(GODSContract).mint(msg.sender, msg.value);\r\n        AnbeShivamNFT(NFTContract).safeMint(msg.sender, _metadata);\r\n        emit projectFunded(_contentID, msg.value, msg.sender);\r\n    }\r\n}",
  "sourcePath": "D:\\Projects\\AnbeShivam\\contracts\\AnbeShivamMain.sol",
  "compiler": {
    "name": "solc",
    "version": "0.8.9+commit.e5eed63a.Emscripten.clang"
  },
  "schemaVersion": "3.4.3",
  "updatedAt": "2021-10-22T10:23:51.706Z",
  "networkType": "ethereum",
  "devdoc": {
    "kind": "dev",
    "methods": {
      "owner()": {
        "details": "Returns the address of the current owner."
      },
      "renounceOwnership()": {
        "details": "Leaves the contract without owner. It will not be possible to call `onlyOwner` functions anymore. Can only be called by the current owner. NOTE: Renouncing ownership will leave the contract without an owner, thereby removing any functionality that is only available to the owner."
      },
      "transferOwnership(address)": {
        "details": "Transfers ownership of the contract to a new account (`newOwner`). Can only be called by the current owner."
      }
    },
    "version": 1
  },
  "userdoc": {
    "kind": "user",
    "methods": {},
    "version": 1
  }
}